:020000022000DC
:1060000000000420F1620200196302001B63020019
:106010001D6302001F6302002163020000000000F4
:10602000000000000000000000000000D578030020
:106030002563020000000000F978030029630200D4
:1060400085C202002B630200E9C80200E5AA030032
:10605000FDAA03002B630200E5C5020005D902007A
:106060002B6302002B6302002B6302002B630200F0
:106070002B6302002B6302002B6302002B630200E0
:1060800079AD0300919D03002B6302002B63020096
:106090002B6302002B630200D9A503002B630200CF
:1060A0002B6302002B6302002B6302002B630200B0
:1060B0002B6302002B6302000000000000000000C0
:1060C0002B6302002B6302002B63020015AB03005D
:1060D00035B303002B6302002B6302002B63020025
:1060E0003DD802002B6302002B6302000000000079
:1060F000000000002B630200000000002B63020080
:10610000000000000000000000000000000000008F
:10611000000000000000000000000000000000007F
:10612000000000000000000000000000000000006F
:10613000000000000000000000000000000000005F
:10614000000000000000000000000000000000004F
:10615000000000000000000000000000000000003F
:10616000000000000000000000000000000000002F
:10617000000000000000000000000000000000001F
:10618000000000000000000000000000000000000F
:1061900000000000000000000000000000000000FF
:1061A00000000000000000000000000000000000EF
:1061B00000000000000000000000000000000000DF
:1061C00000000000000000000000000000000000CF
:1061D00000000000000000000000000000000000BF
:1061E00000000000000000000000000000000000AF
:1061F000000000000000000000000000000000009F
:106200000348044B834202D0034B03B11847704745
:106210008C3D00208C3D0020000000000548064910
:10622000091A891001EBD171491002D0034B03B157
:10623000184770478C3D00208C3D00200000000076
:1062400010B5064C237843B9FFF7DAFF044B13B1BE
:106250000448AFF300800123237010BDF83D0020F7
:1062600000000000AC67040008B5044B1BB10449F2
:106270000448AFF30080BDE80840CFE7000000000D
:10628000FC3D0020AC670400134B002B08BF114BF2
:106290009D46A3F5803A00218B460F461148124ACD
:1062A000121A1BF053FD0D4B002B00D098470C4BDE
:1062B000002B00D098470020002104000D000B485F
:1062C0001BF010FC1BF042FC2000290015F0C0F868
:1062D0001BF00EFC0000080000000420000000007D
:1062E00000000000F83D002084A60020191B0400D7
:1062F0000649074A074B9B1A03DD043BC858D05098
:10630000FBDC05F09DFAFFF7BFFF000038690400D1
:1063100040390020F83D0020FEE7FEE7FEE7FEE7FB
:10632000FEE7FEE7FEE7FEE7FEE7FEE780B584B0A6
:1063300000AF78607B68002B0AD0074B43F0010365
:10634000FB607B689B01BB60FB68B868984700E016
:1063500000BF1037BD4680BD3032040080B582B02A
:1063600000AF78607B68002B0AD04FF47A70FFF79B
:10637000DDFF7B68013B7B607B68002BF5D100E093
:1063800000BF0837BD4680BD80B500AF07F02AFECC
:1063900000BF80BD80B588B000AFF860B9607A609A
:1063A0007B68002B33D00023FB610323BB61BA68F9
:1063B000FB6913447A681946002007F0C5FD78612F
:1063C000FA697B691344FB617A687B69D31A7B6045
:1063D0007B69002B13D1104B1B7883F00103DBB2D8
:1063E000002B13D10120FFF7B9FFBB69013BBB6153
:1063F000BB69002B03D1084B00221A7007E0064B43
:1064000001221A707B68002BD1D100E000BF00BFD1
:106410002037BD4680BD00BF143E002080B584B04B
:1064200002AF78603960064B00934023054A396813
:10643000786800F01DF800BF0837BD4680BD00BF7A
:1064400095630200183E002080B483B000AF7860EE
:1064500000BF0C37BD465DF8047B704780B483B045
:1064600000AF786000BF0C37BD465DF8047B704715
:1064700080B5A0B002AFF860B9607A603B60B868E0
:1064800004F07FFF7B68FB643B683B6500237B6512
:10649000002387F858300023FB65D7F880303B662F
:1064A00000237B6707F134017B6F0C22B86805F08D
:1064B0001BF80C237B67FB6B3B643B8FA7F84430D6
:1064C0007B8FA7F84630002387F8493097F834309F
:1064D00003F00303DBB2012B29D17B6BC3F39523BC
:1064E000BB6697F83430C3F3C203DBB287F8483099
:1064F000BB8EC3F38313DBB27B667B6E9A0007F11E
:106500001C017B6FB86804F0EFFF7B6E9B007A6F15
:1065100013447B6707F1400207F11C0107F14C03AC
:10652000009313467A6EB86E00F0ACFF32E097F835
:10653000343003F00303DBB2022B2BD1FB8EC3F309
:1065400089139BB23B6797F83430C3F3C203DBB2C5
:1065500087F848303B6F082B28BF0823FB6607F1FC
:1065600014017B6FFA6EB86804F0BEFF7A6FFB6EA1
:1065700013447B673A6FFB6ED31A3B6707F14C03FA
:1065800007F1400207F11400F96E01F01DF83B6FAE
:10659000002BDFD1B86804F004FF00BF7837BD4698
:1065A00080BD80B483B000AF78607B6801225A72EE
:1065B00000BF0C37BD465DF8047B704780B582B0E4
:1065C00000AF4FF0FF337B60FFF7DEFE042105488C
:1065D00000F00CFE78600348FFF7E3FF00BF0837C8
:1065E000BD4680BD4039002080B582B000AF7860E4
:1065F00039607B681B681B6839687868984700BFFA
:106600000837BD4680BD80B582B000AF78607B683A
:106610001B685B687868984700BF0837BD4680BD37
:1066200080B582B000AF78607B681B689B68786833
:10663000984700BF0837BD4680BD80B483B000AF27
:1066400078600B46FB707B68FA781A7200BF0C37D3
:10665000BD465DF8047B704780B483B000AF7860BE
:106660007B681B7A18460C37BD465DF8047B704783
:1066700080B483B000AF78607B6801225A7200BF9B
:106680000C37BD465DF8047B704780B483B000AF23
:1066900078607B685B7A18460C37BD465DF8047BF2
:1066A0007047000080B586B000AF786039607B68C5
:1066B000002B01D107233DE0204BFF229A601F4BA6
:1066C00000221A601D4B00225A601C4B0022C3F8A6
:1066D00018241A4B0022C3F81424184B002283F804
:1066E0002024386800F0E4FF144A7B68C2F80C34B8
:1066F000134804F0ADFD38613B69002B01D03B69C4
:1067000018E0104A104BD31ADB08FB6000237B61B2
:106710000BE07B699B000D4A1344BB607B699AB216
:10672000BB681A807B6901337B617A69FB689A4296
:10673000EFD3002318461837BD4680BD283F002000
:10674000F0680400F0680400406804008C3D0020FC
:1067500080B400AF044A054BD31ADB081846BD4687
:106760005DF8047B704700BFF068040040680400D7
:1067700080B586B000AF78600B46FB70FB78002BCD
:106780001FD0FFF7E5FF386100237B6113E07B69D1
:106790009B000E4A1344FB60FB685B881A467B68CB
:1067A0001B689A4204D17B687A691A60002309E069
:1067B0007B6901337B617A693B699A42E7D30523A0
:1067C00000E0002318461837BD4680BD8C3D0020F0
:1067D00080B584B000AF78600B46FB70FA783B1D43
:1067E00011461846FFF7C4FF0346002B07D17B680C
:1067F000DB00054A1344FB60FB681B6800E00023D4
:1068000018461037BD4680BD4068040080B485B08E
:1068100000AF78600B46FB707B68DB00144A1344C2
:10682000BB60FB78013B032B18D801A252F823F080
:1068300041680200476802004D6802005568020086
:106840000223FB730DE00423FB730AE0BB681B7992
:10685000FB7306E0BB685B79FB7302E00023FB730C
:1068600000BFFB7B18461437BD465DF8047B7047BC
:106870004068040080B485B000AF786039600023C0
:10688000FB737B681B7803F00303DBB2002B06D09D
:106890007B681B7803F00403DBB2002B3CD07B68E1
:1068A0001B7803F00403DBB2002B21D07B681B783C
:1068B000C3F30103DBB2012B02D0022B0CD029E081
:1068C0003B681B687A681288C2F38312D2B2134401
:1068D000DA1C3B681A601DE03B681B687A685288C6
:1068E000C2F3891292B21344DA1C3B681A6011E0B9
:1068F0003B681A687B685B88C3F389139BB21946AF
:106900007B681B88C3F389139BB20B4413445A1C46
:106910003B681A600123FB73FB7B18461437BD46A6
:106920005DF8047B7047000080B58AB000AF00239B
:10693000FB84384803F009FA374803F006FA374B6E
:106940005B683B61354B9B68BB613A69BB6913402F
:1069500002339B00314A134404333B6207F11003B6
:106960001946386AFFF786FF0346002B09D03A69BB
:10697000BB69134002339B00284A134404333B6233
:10698000ECE700BF0023FB6111E03B695A1C3A6150
:10699000BA691340FA699200391D0A441F4902334B
:1069A0009B000B445B681360FB690133FB61FB696F
:1069B000022BEAD93B79C3F30103DBB2012B0ED0E2
:1069C000022B00D016E07B89FB84FB88C3F389137C
:1069D0009BB203339A083B6913443B610AE07B890D
:1069E000FB84BB88C3F38313DBB21A463B691344B1
:1069F0003B6100BF084803F0B5F978617B69002B63
:106A000002D03B69054A5360FB8C18462837BD46C7
:106A100080BD00BF404300203C430020283F0020B1
:106A200080B584B000AF0021074803F0BAF8F860E1
:106A3000FB68BB60BB6883F310037B607B68184610
:106A40001037BD4680BD00BF4443002090B589B0DB
:106A500000AFF860B9607A603B60FB681B0CFB61BB
:106A6000FFF7DEFFB861BB6919043B685A1C3B6B3A
:106A70001340FA690A43234902339B000B445A60CE
:106A8000204BD3F80C343A68911C3A6B01EA0204AB
:106A9000984701461B4AA31C9B00134459603A685F
:106AA0003B6B134002339B00164A134404337B6153
:106AB000FB6803F00703D9B27A69137861F3C50361
:106AC00013707B6803F00F03D9B27A69138861F3FE
:106AD00089131380BB68C3F315017A69136861F3E6
:106AE0009F2313607A691378012161F30103137006
:106AF0007A6913786FF38203137000BF2437BD46A1
:106B000090BD00BF283F002080B58CB000AFF8607A
:106B1000B9601346FB71FB680333BB62012387F83E
:106B200027300023FB7607F11B03184600F056FFC1
:106B3000384B1A68BB681A60364B9A68354B5968EF
:106B4000344B1B68CB1A13440133FB6214E0012160
:106B5000314803F0BBF8FFF7E7FEF861F9692E480A
:106B600003F0B4F82B4B9A682A4B5968294B1B68E1
:106B7000CB1A13440133FB62BA6AFB6A9A42E6D825
:106B800097F82730002B3BD000237B61FB79002B4B
:106B900011D03B7D012262F301033B753B7D43F045
:106BA00004033B75FB6803F00F03DAB2BB8A62F3A0
:106BB0008913BB8210E03B7D022262F301033B7527
:106BC0003B7D43F004033B75FB68C3F309039AB2B2
:106BD000FB8A62F38F13FB820E4B1A680D4B9B6886
:106BE000134002339B000B4A134404333B627A691F
:106BF0003B6A1A60074B1A68BB6A1344054A136064
:106C0000FB7E184600F0F5FE97F82730184630371F
:106C1000BD4680BD283F00204443002080B58AB097
:106C200002AFF860B9607A603B60204B9B687B6183
:106C300007F11003012219463868FFF765FF034684
:106C4000002B24D03B690333FB610023BB6111E0BF
:106C5000BB699B007A681A44FB69591CF961796920
:106C60000B401268114902339B000B445A60BB6908
:106C70000133BB61BA693B689A42E9D33A697B69DF
:106C8000009313463A68B968F868FFF7DFFE074BD0
:106C900093F82034002B05D000BF00F0BFF8034666
:106CA000002BFAD100BF2037BD4680BD283F002011
:106CB00080B582B000AF7860396000230022396867
:106CC0007868FFF7ABFF00BF0837BD4680BD80B5D1
:106CD00086B000AFF860B9607A607B687B6107F1CD
:106CE00014020123B968F868FFF798FF00BF18374E
:106CF000BD4680BD80B586B000AFF860B9607A60EF
:106D00003B607B683B613B687B6107F110020223BB
:106D1000B968F868FFF782FF00BF1837BD4680BD2D
:106D200080B588B000AFF860B9607A603B607B687E
:106D30007B613B68BB61BB6AFB6107F11402032303
:106D4000B968F868FFF76AFF00BF2037BD4680BD0D
:106D500080B588B000AFF860B9607A603B607B684E
:106D60003B613B687B61BB6ABB61FB6AFB6107F10E
:106D700010020423B968F868FFF750FF00BF2037FE
:106D8000BD4680BD80B58AB000AFF860B9607A605A
:106D90003B607B687B613B68BB613B6BFB617B6BF2
:106DA0003B62BB6B7B6207F114020523B968F8688C
:106DB000FFF734FF00BF2837BD4680BD80B58AB0DD
:106DC00000AFF860B9607A603B607B683B613B680C
:106DD0007B613B6BBB617B6BFB61BB6B3B62FB6BAA
:106DE0007B6207F110020623B968F868FFF716FF07
:106DF00000BF2837BD4680BD80B400AF064B5A683F
:106E0000054B1B689A420CBF01230023DBB21846D6
:106E1000BD465DF8047B7047283F002080B598B0E0
:106E200000AFFFF7E9FF0346002B01D00023A1E1EB
:106E3000904B0022C3F81824BFF34F8F8D4B5B6833
:106E40003B618C4B9B683B643A693B6C134002335B
:106E50009B00884A13440433BB640023FB65002372
:106E6000BB650023FB6307F110031946B86CFFF7FD
:106E700001FD0346002B14D07E4B1A683B699A42F1
:106E800005D87C4B1B687B4A5360002372E13A694A
:106E90003B6C134002339B00764A13440433BB64BB
:106EA000E1E700BF00237B6511E03B695A1C3A61B2
:106EB0003A6C13407A6D9200391D0A446D490233D1
:106EC0009B000B445B6813607B6D01337B657B6DBE
:106ED000022BEAD93B7903F00303DBB2022B40F02B
:106EE0009280FB88C3F389139BB27B63FB88C3F357
:106EF00089139BB2502B28BF50239BB23B633B6B43
:106F0000C3F309039AB2FB8862F38F13FB803B6BD8
:106F10000C33FB623B79C3F3C203DBB2FB63F96A58
:106F2000554804F0A1F9F865FB6D002B00F0C58011
:106F3000F86D04F026FA391DBB6D0C22F86D04F0D3
:106F4000C0FABB6D0C33BB653B69DA433B6C134045
:106F500001339B00BB623A6BBB6A9A423DD9BB6A64
:106F6000002B08D03A693B6C134002339B00414A26
:106F70001344043300E0414B3B62BB6A002B02D058
:106F8000BB6ADBB201E03B6BDBB2FB77BB6A002B79
:106F900001D03A4B00E00023BB61BB6A002B06D056
:106FA0003B6BDAB2BB6ADBB2D31ADBB200E0002380
:106FB000FB75FA7FBB6D396AF86D04F082FAFB7FCE
:106FC000BA6D1344BB65BB69002B15D0FA7DBB6D50
:106FD000B969F86D04F075FA0EE03A693B6C13403C
:106FE00002339B00234A134404337B62BB6D3A6B2C
:106FF000796AF86D04F065FA7B6B03339A083B6994
:1070000013443B6159E03B7903F00303DBB2012BEE
:1070100053D1BB88C3F38313DBB2062B28BF0623EF
:10702000DAB2BB8862F38913BB80BB88C3F38313D6
:10703000DBB20333BB633B79C3F3C203DBB2FB6355
:10704000BB6B9B0019460C4804F00EF9F865FB6D0C
:10705000002B32D0F86D04F094F9391DBB6D0C2271
:10706000F86D04F02EFABB6D0C33BB6500237B6515
:107070001BE000BF283F0020F0680400343F0020E0
:107080003B695A1C3A613A6C134002339B003B4AFD
:107090001344191DBB6D0422F86D04F012FABB6D88
:1070A0000433BB657B6D01337B65BB88C3F38313FE
:1070B000DBB21A467B6D9342E2D3FB6D002B3CD0D2
:1070C0002E4BD3F810343B652C4BD3F81834002BDF
:1070D0001AD0F86D04F065F946E0002387F84F30C8
:1070E000386DFFF7D2FA0346002B02D0012387F850
:1070F0004F3097F84F30002B03D0F96D386DFFF704
:1071000073FA3B6D5B683B653B6D002BE5D1F86D19
:1071100004F047F90023FB70FB1C184600F05EFCEE
:10712000164BD3F81834002B02D13B69134A536035
:10713000FB78184600F05DFC16E0104BD3F81034D5
:107140007B6405E0786CFFF76BFA7B6C5B687B64B3
:107150007B6C002BF6D10A4B1B881B0443F0020307
:1071600008491846FFF7A4FDFFF746FE034683F0E3
:107170000103DBB218466037BD4680BD283F0020C2
:10718000B03D00205032040080B584B000AF002331
:10719000FB601FE0144BD3F81034BB600123FB717C
:1071A0000DE0B868FFF758FA03461A46FB689342A9
:1071B00002D10023FB7105E0BB685B68BB60BB6864
:1071C000002BEED1FB79002B01D0FB6807E0FB68B8
:1071D0000133FB60FB68092BDCDD4FF0FF33184601
:1071E0001037BD4680BD00BF283F002080B584B069
:1071F00000AF78600B46FB70FFF7C6FFF860FB68D6
:10720000B3F1FF3F01D1FB681EE0FB68DBB219461A
:107210007868FFF712FA0E4BD3F81034002B07D121
:107220000B4A7B68C2F810347B6800225A600AE07F
:10723000074BD3F810345A687B685A60044BD3F874
:1072400010347A685A60FB6818461037BD4680BD16
:10725000283F002080B582B000AF0C4BD3F810342B
:107260007B600A4B012283F8202408E07868FFF74E
:10727000FFF97868FFF7C7F97B685B687B607B681C
:10728000002BF3D100BF0837BD4680BD283F00204A
:1072900080B58CB004AF78603960304B1B683A68B9
:1072A000B2FBF3F33B602E4B1B683A68B2FBF3F37F
:1072B000FB61FB692B4AA2FB0323DB0ABB61BB69B1
:1072C0004FF4616202FB03F3FA69D31AFB61FB69B5
:1072D000254AA2FB03235B097B617A6913461B01E4
:1072E0009B1A9B001A46FB699B1AFB611C4B1A6890
:1072F0003B68B3FBF2F102FB01F29B1A3B613B6975
:107300004FF47A7202FB03F2154B1B68B2FBF3F3E6
:10731000FB603B694FF47A7202FB03F2104B1B686F
:10732000F96801FB03F3D31A4FF47A7202FB03F2FC
:107330000B4B1B68B2FBF3F3BB60BB680293FB68AB
:107340000193FB6900937B69BA690849786802F088
:10735000E0FD00BF2037BD4680BD00BF5043002088
:107360004C430020C5B3A29189888888CC320400A0
:1073700090B585B002AF786039607B68DB88002B00
:107380000AD07B68DB881A461F4B009313461F4ABE
:107390001F49386802F0BDFD7B681B7A052B2ED093
:1073A0007B685B7A002B12D07B689B881A467B68CF
:1073B0001B7A19461046FFF729FA03461A46154B61
:1073C00053F822301A461449386802F0A2FD7B684F
:1073D0001B6819463868FFF75BFF7B681B7A1A4603
:1073E0000E4B53F822407B689B8800211846FFF71C
:1073F000EFF9034622460A49386802F08AFD00BFC9
:107400000C37BD4690BD00BF8432040094320400A6
:10741000E832040060390020003304004C390020B9
:107420000433040080B584B000AFF860B96013463F
:10743000FB71FB681B7A052B0FD0FB685B7A002B76
:1074400006D00D4B1B681A460C49B86802F061FD66
:107450000B49B86802F05DFD06E0FB79002B03D014
:107460000749B86802F055FDB86802F039FD00BF61
:107470001037BD4680BD00BF6039002000330400D6
:1074800010330400B0B58AB004AFF860B9607A6018
:107490003B60BB6A1B7BFB75BB6A00221A73B96A2F
:1074A0003868FFF765FF7B68062B7FD801A252F88A
:1074B00023F000BFD1740200DB740200EB74020001
:1074C000FF7402001D75020045750200757502000B
:1074D000F968B86A02F01DFD69E0BB681B681A46CE
:1074E000F968B86A02F015FD61E0BB681A68BB680C
:1074F00004331B68F968B86A02F00BFD57E0BB68FB
:107500001A68BB6804331968BB6808331B680093AA
:107510000B46F968B86A02F0FCFC48E0BB681968E1
:10752000BB6804331868BB6808331B68BA680C3240
:1075300012680192009303460A46F968B86A02F09D
:10754000E8FC34E0BB681868BB6804331C68BB689F
:1075500008331B68BA680C321268B96810310968C0
:1075600002910192009323460246F968B86A02F03C
:10757000D0FC1CE0BB681C68BB6804331D68BB689A
:1075800008331B68BA680C321268B9681031096890
:10759000B8681430006803900291019200932B4662
:1075A0002246F968B86A02F0B4FC00E000BF00228D
:1075B000B96A3868FFF736FFBB6AFA7D1A7300BFF5
:1075C0001837BD46B0BD00BF80B586B000AFF860CB
:1075D000B9607A603B60BB68082B59D83B681B7B5D
:1075E000FB743B6800221A7339687868FFF7C0FEA5
:1075F00000237B6114E07A69BB689A4209D2FA6879
:107600007B6913441B781A462349386802F081FCD1
:1076100003E02249386802F07CFC7B6901337B611E
:107620007B69072BE7D91E49386802F072FC0023FA
:107630007B6121E07A69BB689A4216D2FA687B695D
:1076400013441B78BB74BB7C0133164A13441B786C
:1076500003F09703002B01D0BB7C00E02E231A46D9
:107660001149386802F055FC03E01049386802F00F
:1076700050FC7B6901337B617B69072BDAD90122DE
:1076800039687868FFF7CEFE3B68FA7C1A7300E031
:1076900000BF1837BD4680BD143304001C330400FE
:1076A00020330400686604002433040028330400F7
:1076B00080B483B000AF78600C4B01221A6007E001
:1076C0007B685B087B60094B1B685B00074A1360A3
:1076D0007B68074A9342F3D8064A7B68136000BF71
:1076E0000C37BD465DF8047B704700BF5043002057
:1076F00040420F004C43002080B487B000AFF860D8
:10770000B9607A600123FB75FB7D204AFB6813603A
:107710001E4ABB6853601D4A7B689360FB6844F255
:107720000102934212D044F20202934221D17B68BB
:10773000164AD360154BDB681B881A46134B9A61B7
:10774000124BDB685B68114AD36112E07B680F4A19
:1077500013610E4B1B699B680C4A53610B4B1B69F1
:107760001B680A4A9361094B1B695B68074AD3612E
:1077700000BF72B600BFFB7DDBB2002BFBD162B64F
:1077800000BF1C37BD465DF8047B704754430020A2
:1077900000B583B002900091019244F2010071465D
:1077A0006A4600F003F803B000BD00BFB0B58AB070
:1077B00004AFF860B9607A6072B6FFF74BFD00BFA6
:1077C000FFF72CFB0346002BFAD1FB6841F20102C4
:1077D000934219D041F20102934202D8012B09D001
:1077E00057E044F20102934229D044F2020293424C
:1077F00014D04EE0344B1B881B0443F00103334983
:107800001846FFF755FA4FE02F4B1B881B0443F037
:1078100001032F491846FFF74BFA45E07B687B616F
:10782000294B1B881B0443F0010318467B695B68E6
:107830001A467B691B882749FFF75CFA34E07B68AE
:107840003B61214B1B881B0443F001031D463B6930
:107850009C683B699B68184603F084FF0346184602
:107860003B695B6819463B691B68BA6802920193E1
:1078700000910346224618492846FFF783FA124B27
:107880001B881B0443F0010314491846FFF710FA44
:107890000AE00D4B1B881B0443F00103BA68104932
:1078A0001846FFF714FA00BF0E4B1B6803F00103E4
:1078B000002B00D000BE7A68B968F868FFF71CFF9B
:1078C00000BF1837BD46B0BDB03D00202C330400CA
:1078D0004C330400703304008C330400B4330400D0
:1078E000C8330400F0ED00E080B483B000AFEFF3E4
:1078F00010833B603B687B6072B67B6818460C3730
:10790000BD465DF8047B704780B400AF62B600BF2F
:10791000BD465DF8047B704780B584B000AF7860E9
:10792000FFF7E2FFF860164B9B68002B1BD1144B4E
:1079300001229A60134BD3F88020134B1340104A56
:107940001360104B104AC3F880200E4BD3F88430DC
:107950000B4A53600B4B4FF0FF32C3F884207B6817
:1079600000221A7002E07B6801221A70FB68002B6B
:1079700001D1FFF7C9FF002318461037BD4680BD6F
:10798000ECA5002000E100E0FC06FFBD80B584B05E
:1079900000AF0346FB710F4B9B68002B15D0FB79A2
:1079A000002B12D1FFF7A0FFF8600B4A094B1B68B0
:1079B0001360094A074B5B685360064B00229A60CC
:1079C000FB68002B01D1FFF79FFF002318461037FB
:1079D000BD4680BDECA5002000E100E080B582B08E
:1079E00000AF78607868FFF797FF00BF0837BD46A3
:1079F00080BD80B582B000AF0346FB71FB791846AD
:107A0000FFF7C4FF00BF0837BD4680BD80B487B014
:107A100000AFF860B9607A607B68002B02D07B68A9
:107A20001B8801E04FF6FF73FB8200233B6130E0CF
:107A3000FB8A1B0A9BB2DBB21AB2FB8A1B021BB287
:107A400013431BB2FB82FA683B6913441B789AB25A
:107A5000FB8A5340FB82FB8ADBB21B09DBB29AB282
:107A6000FB8A5340FB82FB8A1B031AB2B7F916301C
:107A700053401BB2FB82FB8A5B011BB203F4FF5332
:107A80001AB2B7F9163053401BB2FB823B6901337F
:107A90003B613A69BB689A42CAD3FB8A18461C37D5
:107AA000BD465DF8047B704780B483B000AF78605A
:107AB0007B6803F00303002B0CBF01230023DBB220
:107AC00018460C37BD465DF8047B704780B584B01E
:107AD00000AF78600023FB600EE00B4AFB6852F8B1
:107AE0002330002B05D0084AFB6852F82330786811
:107AF0009847FB680133FB60FB68032BEDD900BF9F
:107B00001037BD4680BD00BF8443002080B483B0E1
:107B100000AF786039607B681B78013B052B61D82A
:107B200001A252F823F000BF417B0200497B020012
:107B30006F7B0200A17B0200C17B0200DD7B0200A3
:107B40003B6800221A704EE03B6801221A707B6885
:107B50001A893B689A817B689A883B68DA817B68DE
:107B6000DA683B689A603B6800221A743BE03B6825
:107B700002221A707B681A893B689A817B689A880E
:107B80003B68DA817B68DA683B689A607B689B7D3A
:107B9000062B0CBF01230023DAB23B681A7422E0E3
:107BA0003B6803221A707B68DA883B689A817B689D
:107BB0001A893B68DA817B68DA683B689A6012E070
:107BC0003B6804221A707B68DA883B689A813B68BC
:107BD0000022DA813B6800229A6004E03B680522BB
:107BE0001A7000E000BF00BF0C37BD465DF8047B93
:107BF000704700BF80B485B000AF786039607B68A3
:107C0000FB60FA683B689A4206D2FB681B68B3F1D6
:107C1000FF3F01D0012300E0002303F00103DBB2AA
:107C200018461437BD465DF8047B704780B483B0B6
:107C300000AF78607B685B8803339B007A681344ED
:107C400018460C37BD465DF8047B704780B582B09E
:107C500000AF786039607868FFF7E8FF02463B685C
:107C6000934201D202230CE07B689B884FF6FF729F
:107C7000934203D07B681B88002B01D1012300E0D5
:107C8000002318460837BD4680BD000080B582B08D
:107C900000AF78607B68002B13D00E4BDB681A4670
:107CA0007B6893420DD30B4B1B691A467B6893424A
:107CB00007D87868FFF7F8FE0346002B01D00123B0
:107CC00000E0002303F00103DBB218460837BD468D
:107CD00080BD00BFE43D002080B483B000AF786079
:107CE0007B68002B04D07B681B680C4A934201D050
:107CF00003230DE07B6804331B68094A934204D0D8
:107D0000084A934203D1012302E0002300E0032349
:107D100018460C37BD465DF8047B7047DEC0ADDE0B
:107D2000FE011EF1FF011EF180B485B000AF786046
:107D30000023FB600CE0FB689B007A6813441B681F
:107D4000B3F1FF3F01D0002307E0FB680133FB6084
:107D5000FB68B3F5806FEED3012318461437BD4698
:107D60005DF8047B7047000080B483B000AF034629
:107D70000A46FB801346BB80FA88124913469B00D3
:107D800013449B000B4408331A88BB881344BB8000
:107D9000FA880C4913469B0013449B000B440A339A
:107DA0001A88BB881344BB80BB8840F2FF329342E1
:107DB00094BF01230023DBB218460C37BD465DF8A3
:107DC000047B70472444002080B485B000AF786005
:107DD00039600A23FB6000237B8122E07A891649FF
:107DE00013469B0013449B000B4404331B683A6802
:107DF0009A4213D97A89104913469B0013449B0079
:107E00000B4404331B6803F580533A689A4205D249
:107E10000023FB607B687A891A8005E07B89013347
:107E20007B817B89012BD9D9FB6818461437BD4665
:107E30005DF8047B704700BF2444002080B588B003
:107E400000AFF860B9607A60FB6803F58053BB61EE
:107E5000FB680833FB60BB6802221A80FB68FB6189
:107E60002FE0B969F869FFF7F1FE0346FB75FB7D6A
:107E7000002B0AD1FB699A68174B1B689A4212D9EA
:107E8000FB699B68144A13600DE07B68002B02D0ED
:107E90007B6801221A70FB7D022B04D1BB684FF472
:107EA00080621A8014E0BB681A88FB695B881344FF
:107EB0009BB203339AB2BB681A80F869FFF7B6FE2B
:107EC000F861B969F869FFF795FE0346002BC8D140
:107ED0002037BD4680BD00BF9443002080B483B0EE
:107EE00000AF786039603B689B7D022B09D97B68C5
:107EF0001A893B68DB8813449BB203339AB27B68D0
:107F00001A817B685A893B68DB88D31A9BB2033B92
:107F10009AB27B685A8100BF0C37BD465DF8047B7E
:107F20007047000080B582B002AF074B1B6819464E
:107F3000002300930823054A054802F081FC03460C
:107F40001846BD4680BD00BF4C440020F0330400FD
:107F5000E43D002080B584B002AF786079680023EA
:107F600000930823044A054802F06AFC03461846B9
:107F70000837BD4680BD00BFF8330400E43D002053
:107F800080B584B000AF03463960FB800023FB73EB
:107F9000FB8803337B817B8940F2FD32934201D918
:107FA00009233DE00023BB8131E0BA891E49134615
:107FB0009B0013449B000B441B78002B24D17A892F
:107FC000BB8911461846FFF7CFFE0346002B1BD096
:107FD0000123FB733B68BA891A80BA891249134698
:107FE0009B0013449B000B440A331988BA897B8990
:107FF0000B4498B20C4913469B0013449B000B445E
:108000000A3302461A8005E0BB890133BB81BB8974
:10801000012BCAD9FB7B002B01D0002300E00723F2
:1080200018461037BD4680BD2444002080B483B07C
:1080300000AF03460A46FB801346BB80BA880E4950
:1080400013469B0013449B000B440A331A88FB8899
:10805000D31A9BB2BA88033B98B2074913469B00D8
:1080600013449B000B440A3302461A8000BF0C37AE
:10807000BD465DF8047B70472444002080B500AF06
:108080000121034801F022FE0346184680BD00BFCF
:108090009443002080B584B000AF03463960FB8074
:1080A000FA88234913469B0013449B000B44043376
:1080B0001B6803F58053BB603B681B68FB60FB6873
:1080C000002B04D0F868FFF7B1FDF86023E0FA88D0
:1080D000174913469B0013449B000B4404331B6851
:1080E0000833FB6017E0B968F868FFF7AFFD034697
:1080F000012B09D0022B0CD0002B00D00BE03B68E9
:10810000FA681A6001230EE0F868FFF78FFDF86047
:1081100001E0002307E0B968F868FFF76BFD03464C
:10812000002BE0D1002318461037BD4680BD00BFAC
:108130002444002080B584B000AF786039607B684B
:108140005B681846FFF7A2FD0346002B19D07B6839
:108150001A89254B1B899A4213D17B681A687B6860
:108160005B689B689A420CD17B685B6819463868EB
:10817000FFF72AFE0346002B0CBF01230023DBB2CE
:108180002DE03B6800221A8024E00023BB6010E051
:10819000BB68FB60FB689A687B681B689A4208D1E1
:1081A000BA687B685A60104B1A897B681A81012370
:1081B00015E03B681B8807F1080211461846FFF7D7
:1081C00069FF0346002BE3D13B681B8801339AB259
:1081D0003B681A803B681B88012BD6D900231846C0
:1081E0001037BD4680BD00BF5444002080B586B026
:1081F00000AFF860B9607A603B60314B1B78DBB24E
:1082000083F00103DBB2002B01D0022353E07B6833
:10821000002B02D03B68002B48D105234BE03B6884
:108220009B881946274A0B469B000B449B0013442E
:108230001B78002B33D124E03B681B687B61FB6813
:10824000002B06D07B699A88FB681B889A4200D075
:1082500017E0BB68002B06D07B691A88BB681B88B7
:108260009A4200D00DE07B699A687B681A603B688F
:108270001A687B685A60144B1A897B681A8100233C
:1082800019E03B689B883A6811461846FFF702FFE1
:108290000346002BD0D13B6800221A6000E000BFEB
:1082A0003B689B8801339AB23B689A803B689B8805
:1082B000012BB4D90A2318461837BD4680BD00BF2C
:1082C00074430020244400205444002080B584B02E
:1082D00000AF7860074B7968184601F042FBF86000
:1082E0001C220021F86819F031FDFB681846103790
:1082F000BD4680BD8439002080B582B000AF786073
:10830000044B7968184601F046FB00BF0837BD46AC
:1083100080BD00BF8439002080B582B000AF786096
:10832000044B7968184601F04BFB034618460837A2
:10833000BD4680BD8439002080B582B000AF786032
:10834000044B7968184601F055FB00BF0837BD465D
:1083500080BD00BF8439002080B500AF01210548F1
:1083600001F0CDFC0346002B14BF01230023DBB238
:10837000184680BD7C43002080B586B000AF002346
:108380007B6100237B8203233B820023FB7300235A
:10839000BB81D2E0BB891B031A466F4BDB681344D9
:1083A000BB60B868FFF798FC0346FB71FB79012BB3
:1083B00000F08980032B02D0002B55D0BAE0B868BA
:1083C000FFF7B2FC0346002B34D0644B1B68002B34
:1083D00023D07A8A624913469B0013449B000B44C6
:1083E00002221A707A8A5E4913469B0013449B004E
:1083F0000B440433BA681A607A8A594913469B00C1
:1084000013449B000B44083302221A80554A7B8A8E
:1084100053807B8A01337B8207E0504ABB6813603C
:108420004E4B02229A800123FB737B6943F00103C8
:108430007B617FE03B8A013B3B827A8A4849134655
:108440009B0013449B000B440433BA681A607A8A79
:10845000434913469B0013449B000B4403221A70AC
:108460007B8A01337B8265E07A8A3D4913469B0013
:1084700013449B000B4400221A707A8A3849134631
:108480009B0013449B000B440433BA681A607A8A39
:1084900013469B0013449B000833314A99187A8A8B
:1084A00013469B0013449B0010332D4A13441A4675
:1084B000B868FFF7C3FC7B6943F002037B617B8AEA
:1084C00001337B8236E0FB7B002B20D07A8A244963
:1084D00013469B0013449B000B4402221A707A8AB5
:1084E0001E4B19681E4813469B0013449B0003440F
:1084F000043319607A8A1A4913469B0013449B007F
:108500000B44083302221A807B8A01337B82134A90
:10851000BB68136000221449B868FFF78FFC0F4B4B
:108520009B88022B01D1042300E008237A691343BE
:108530007B6100BFBB890133BB81BB89022B7FF606
:1085400029AF3B8A012B01D800237B617B69DBB219
:1085500018461837BD4680BDE43D00204C4400203D
:1085600024440020544400205044002080B586B0AC
:1085700002AF786039607B6802229A7539687B683F
:108580001A1D002300930423064802F059F9F860ED
:10859000FB68002B01D1002300E00E2318461037A2
:1085A000BD4680BDE43D002080B586B002AF786056
:1085B00039607B681B69002B01D0032200E0012297
:1085C0007B689A753B68083319467B6803F10C0297
:1085D000002300930423074802F032F9F860FB6897
:1085E000002B01D1002300E00E2318461037BD46B2
:1085F00080BD00BFE43D002080B586B002AF78604A
:1086000039607B681B78032B01D1052200E006222C
:108610007B689A753B68043319467B6803F108024E
:10862000002300930423074802F00AF9F860FB686E
:10863000002B01D1002300E00E2318461037BD4661
:1086400080BD00BFE43D002080B586B002AF7860F9
:108650000B467B8079680023009304230C4A0D4865
:1086600002F0EEF8F860FB68002B01D00E230AE060
:108670007A88094913469B0013449B000B4410332E
:1086800001221A70002318461037BD4680BD00BF76
:1086900000340400E43D00202444002080B588B06C
:1086A00000AF786007F1080300221A605A609A60F0
:1086B0007B68DB68BB6007F1160207F1080311460F
:1086C0001846FFF737FD0346002B11D0FB68BB614E
:1086D000BB699A887B68DA80BB691A887B681A81D3
:1086E000FB68FA8A11461846FFF7AEFFF86101E011
:1086F0000A23FB61FB6918462037BD4680BD000098
:1087000080B586B000AF78607B68981D07F10802DD
:108710000D4B0021FFF76AFD78617B69002B08D1C2
:10872000FA68094B9B8819461046FFF78DFF786160
:1087300004E008220021044819F008FB7B69184670
:108740001837BD4680BD00BF6444002080B586B0A8
:1087500002AF786039607B6801229A753B680C3300
:1087600018467B681A697B68DB88990000230093B0
:108770000B460146064802F063F8F860FB68002BE0
:1087800001D1002300E00E2318461037BD4680BDFE
:10879000E43D002080B483B000AF164B1B89013349
:1087A0009AB2144B1A81134B00225A80114B0022AB
:1087B0001A730023FB8014E0FA880F4913469B00CC
:1087C00013449B000B441A78FB88002A0CBF01223B
:1087D0000022D1B2074A13440A469A72FB88013339
:1087E000FB80FB88012BE7D900BF0C37BD465DF845
:1087F000047B7047544400202444002080B485B09A
:1088000000AF78600023FB730023BB8129E0BB89A4
:10881000194A13449B7A002B20D0BB89164A134473
:1088200000229A72BA89154913469B0013449B0093
:108830000B440C331B68002B10D1BA890F49134627
:108840009B0013449B000B4410331B78002B05D076
:108850007B68BA891A800123FB7305E0BB89013369
:10886000BB81BB89012BD2D9FB7B18461437BD468F
:108870005DF8047B704700BF54440020244400206E
:1088800080B500AF084B05221A70084B02229A806F
:10889000064B1B68194600230122054802F0AAF87E
:1088A0000346184680BD00BF544400204C440020BD
:1088B000E43D002080B582B000AF154B5B887B8023
:1088C0007A88144913469B0013449B000B440C33D5
:1088D0001B68002B13D10E4B04221A707A880D49A5
:1088E00013469B0013449B000B4404331B6819463A
:1088F00000230122084802F07DF8786002E0FFF7CB
:10890000BFFF78607B6818460837BD4680BD00BF52
:108910005444002024440020E43D002080B586B06B
:1089200002AF104B5B68FB600F4B1A680E4B9B88C5
:108930009B001344BB60FB685B880333FB80094BDF
:1089400003221A70B968074B5A68FB889800002305
:1089500000930346054801F073FF0346184610379D
:10896000BD4680BD544400204C440020E43D00201E
:1089700080B582B000AF0A4B5B880A491846FFF702
:1089800089FB0346002B03D0FFF7C8FF786002E0A5
:10899000FFF790FF78607B6818460837BD4680BDBA
:1089A000544400205844002080B500AF094B0622F3
:1089B0001A70084B5B881946074A0B469B000B440C
:1089C0009B00134404331B681846FFF7C3FA0346A1
:1089D000184680BD544400202444002080B500AFD8
:1089E000054B07221A70044B00225A60FFF79AFACF
:1089F0000346184680BD00BF5444002080B500AF38
:108A00000C48FFF7FBFE034683F00103DBB2002BAB
:108A10000BD0094B00221A70074B00225A80064BDC
:108A200000225A6041F61D5302E0FFF7A1FF034602
:108A3000184680BD564400205444002080B483B0C2
:108A400000AF0A4B5B687B607B685B8803337B808D
:108A5000074B9A887B8813449AB2054B9A8000BFD3
:108A60000C37BD465DF8047B704700BF54440020BE
:108A70004C44002080B483B000AF194B1B687B606E
:108A8000184B5B881946184A0B469B000B449B0009
:108A9000134404331B68124A1360124B5B88194657
:108AA000114A0B469B000B449B00134404337A6825
:108AB0001A600C4B5B881946094B98880A4A0B468A
:108AC0009B000B449B001344083302461A80044B5E
:108AD00002229A8000BF0C37BD465DF8047B7047C8
:108AE0004C440020544400202444002080B500AFB2
:108AF0001A4B1B78072B2DD801A252F823F000BF88
:108B0000218B0200558B0200558B02002D8B020039
:108B1000398B0200458B0200458B02004D8B020011
:108B2000FFF738FE0D4B01221A7014E0FFF786FFA5
:108B30000A4B02221A700EE0FFF79CFF074B062239
:108B40001A7008E0054B07221A7004E0034B01225B
:108B50001A7000E000BF00BF80BD00BF5444002079
:108B600080B586B000AF786039600F237B617B6889
:108B7000002B04D05B4B00225A600123ADE03B6820
:108B80001B79032B00F29D8001A252F823F000BF55
:108B9000A18B0200AF8B0200298C0200498C0200DD
:108BA0003B6801221A71FFF7BDF978618CE0002360
:108BB000FB7400233B8225E03A8A4B4913469B0015
:108BC00013449B000B441B78022B18D13A8A464968
:108BD00013469B0013449B000B4400221A70012390
:108BE000FB743A8A404913469B0013449B000B4494
:108BF00004331B681846FFF7ADF9786105E03B8A3E
:108C000001333B823B8A012BD6D9FB7C83F00103E5
:108C1000DBB2002B57D0334B01221A70314B0022AC
:108C20005A6041F61D5358E03B6800221A712F4BE1
:108C300002229A802D4B1B681946002301222C48E2
:108C400001F0D8FE78613FE03B6800221A71274BA3
:108C50001B681846FFF77EF97861264B5B88FB811D
:108C6000224B1B68BB60FA891F4913469B001344C3
:108C70009B000B4404331B681C4A1360FA891A4991
:108C800013469B0013449B000B440433BA681A60DC
:108C9000FA89164B9888144913469B0013449B008D
:108CA0000B44083302461A80104B02229A80FA893C
:108CB0000D4913469B0013449B000B4400221A707D
:108CC00002E000BF00E000BF7B69002B04D0054B31
:108CD00000225A600E2300E0002318461837BD46D4
:108CE00080BD00BF74430020244400204C44002079
:108CF000E43D00205444002080B586B000AF786089
:108D000039603B689B8A1A4613469B0013449B00BC
:108D1000394A13443B617B68002B05D039683869B8
:108D2000FFF7DCF8012362E03B695A683B691B8965
:108D30009B001344FB603B689B7D062B4CD801A233
:108D400052F823F0878D0200AB8D0200938D020054
:108D50009F8D0200618D0200B78D0200D18D02004F
:108D6000264B00225A603B689B69244A13602449C1
:108D70002248FFF7DFF9034683F00103DBB2002B43
:108D800001D00A2333E0F9683868FFF7EFFB786118
:108D900025E0F9683868FFF707FC78611FE0F9689B
:108DA0003868FFF7D3FC786119E0F9683868FFF795
:108DB00023FC786113E03B6806229A750F4B5A68D2
:108DC0000F4B1B8819461046FFF73EFC786106E002
:108DD00041F61D537B6102E00F237B6100BF7B697D
:108DE000002B03D039683869FFF778F87B6918469B
:108DF0001837BD4680BD00BF244400206C440020CD
:108E00007844002080B584B000AF786039607B681A
:108E1000002B01D0012323E03B681B79012B0BD0F1
:108E2000022B14D0002B16D13B6802221A7138682D
:108E3000FFF734FCF86012E03868FFF761FCF86077
:108E4000FB680A2B0AD141F61D53FB6006E041F690
:108E50001D53FB6003E00F23FB6000E000BFFB68D5
:108E600018461037BD4680BD80B584B000AF78602D
:108E70007B68002B01D001233CE0204B1B7B002BA7
:108E800003D01E4B00221A7301E0FFF72FFE1B4B8D
:108E90001B78013B062B29D801A252F823F000BF12
:108EA000BD8E0200C58E0200CD8E0200D58E02005E
:108EB000ED8E0200DD8E0200E58E0200FFF79EFDC2
:108EC000F86016E0FFF754FDF86012E0FFF726FDAA
:108ED000F8600EE0FFF7EEFCF8600AE0FFF764FDD3
:108EE000F86006E0FFF77AFDF86002E00F23FB6010
:108EF00000BFFB6818461037BD4680BD54440020B3
:108F000080B588B000AF78603C4B1B68002B05D162
:108F10003B48FFF701FA0246384B1A60374B1B6893
:108F20001B78013B052B2CD801A252F823F000BF7F
:108F3000498F0200598F0200598F0200698F020089
:108F4000698F0200798F02002C4B1B6819467868E4
:108F5000FFF706FE786017E0284B1B681946786813
:108F6000FFF7CAFE78600FE0244B1B68194678684B
:108F7000FFF748FF786007E07868FFF775FF7860D3
:108F800002E00F237B6000BF7B68002B2ED007F12F
:108F90000C0300221A605A609A60DA601A617B68DA
:108FA00041F61D52934201D07B6800E000233B61F3
:108FB000124B1B6807F10C0211461846FEF7A6FD7E
:108FC00007F10C031846FEF781FD0C4B00221A60D6
:108FD00000237B600A48FFF7AFF9FFF7BDF90346AE
:108FE00083F00103DBB2002B02D18DE700BF00E06C
:108FF00000BF00BF2037BD4680BD00BF7C440020BD
:109000008044002080B500AF0121054800F045FEF6
:109010000346002B02D10020FFF772FF00BF80BD86
:109020007C43002080B582B000AF78607B685B68CD
:109030001846FFF765FF00BF0837BD4680BD00003A
:1090400080B58AB000AFF860B9607A60FB70002329
:10905000BB840023FB844C4B1B78DBB283F0010301
:10906000DBB2002B01D002238AE0BB68002B01D1C8
:10907000052385E0BB681B884FF6FF72934203D03F
:10908000BB685B88002B01D1042379E0BB685B6877
:109090001846FEF709FD034683F00103DBB2002BFF
:1090A00001D003236CE07B68002B0FD1BB689B6869
:1090B000FB8407F11A02FB8C11461846FEF760FF8D
:1090C00038623B6A002B07D03B6A59E07B681B88FB
:1090D0007B837B685B88FB8407F114031846FFF7EA
:1090E000F5F8F861FB69002B07D17A8BFB8C1146F0
:1090F0001846FEF79BFF082342E0FB69FA781A70D6
:10910000FB6900229A757A8BFB699A82BB685A6860
:10911000FB691A61FEF7B2FF0246FB69DA60BB68C1
:109120001A88FB691A81BB685A88FB699A80FB69B7
:10913000FA8CDA80FB78032B06D1FB6904229A753E
:10914000FB681A68FB699A61FB69BA8C5A8107F15E
:1091500014031846FFF7D0F8FB68002B0DD0FB680E
:1091600000225A60FB69DA68FB681A60FB6800221B
:109170009A72064B1A89FB681A81FFF743FF002396
:1091800018462837BD4680BD744300205444002053
:1091900080B584B000AF78600B4B1B68042B02D104
:1091A0000C23FB600BE0084B1B6808497A6841F808
:1091B00023200121044800F089FD0023FB60FB68A7
:1091C00018461037BD4680BD8043002084430020F0
:1091D00080B485B000AF4FF010235B69FB604FF0A7
:1091E00080531B69BB604FF080535B697B60FB68F9
:1091F000B3F1FF3F04D17B68BA6802FB03F300E0E0
:10920000FB6818461437BD465DF8047B70470000C4
:1092100080B582B000AF4FF440537B60FFF7D8FFBA
:109220000246064B1A61054B1A697B68D31A034A3A
:10923000D36000BF0837BD4680BD00BFE43D0020BD
:1092400080B500AFFFF7E4FF00220349034801F0B7
:1092500011FA0346184680BD34360400E43D002070
:1092600080B500AF03481C238C22034900F034FB77
:1092700000BF80BD843900209843002080B58AB0AB
:1092800000AF07F1080300221A605A609A60DA60A2
:109290001A61414B1B78DBB2002B06D007F10803A3
:1092A0001846FEF713FC002372E03C4800F040FD36
:1092B0000346002B01D000236AE0FFF7C1FF78626C
:1092C0007B6A002B01D07B6A62E0FFF7C9FFFFF7E2
:1092D00053F8034687F8233097F82330022B0DD03C
:1092E000062B0DD0002B09D000BF3B1D1846FEF702
:1092F000EDFFF861FB69002B11D10EE00B2347E075
:10930000254B01221A70244B00225A6007F10803F2
:109310001846FEF7DBFB00233AE0082338E0FB6940
:1093200001221A7097F82330013B0A2B28D801A29A
:1093300052F823F0619302008193020061930200CE
:1093400081930200799302008193020079930200D5
:1093500081930200699302007193020069930200F5
:10936000FB6900221A710CE0FB6903221A7108E004
:10937000FB6902221A7104E0FB6901221A7100E004
:1093800000BF3B1D1846FEF7B7FFFFF73BFE00236B
:1093900018462837BD4680BD74430020784300201E
:1093A00080B584B000AF786039607B68002B02D054
:1093B0003B68002B01D1052328E007F10A03194679
:1093C0007868FEF7B7FE0346002B1ED07B685B680B
:1093D000FB607B891A4613469B0013449B000833AD
:1093E0000C4A134404330121184600F06FFC3B681B
:1093F000FA681A607B685B6803F10C023B685A608C
:109400007B6801229A72002300E00A231846103775
:10941000BD4680BD2444002080B584B000AF786094
:109420007B68002B01D1052337E007F10A031946B9
:109430007868FEF77FFE0346002B2BD07B89194608
:10944000184A0B469B000B449B0013440C331B68CB
:10945000002B1CD07B689B7A002B18D07B891A4686
:10946000104913469B0013449B000B440C331B68AC
:10947000591E0C4813469B0013449B0003440C33B5
:1094800019607B6800229A720023FB6004E00623C7
:10949000FB6001E00A23FB60FB6818461037BD46FD
:1094A00080BD00BF2444002080B584B000AF786048
:1094B0000B467B80124B1B78DBB283F00103DBB2DF
:1094C000002B01D0022316E07B68002B01D105237D
:1094D00011E007F10A027B8811461846FEF750FD9D
:1094E000F860FB68002B05D17A897B681A807B685D
:1094F0007A885A80FB6818461037BD4680BD00BF89
:109500007443002080B584B000AF78601E4B1B7898
:10951000DBB283F00103DBB2002B01D002232FE08A
:109520007B68002B01D105232AE07B681B88022B76
:1095300001D9042324E07B681B881A4613469B004C
:1095400013449B00114A1344BB607B685B88033360
:10955000BA685289934210DC7B685A887B681B8802
:1095600019461046FEF762FD7B6800221A807B6870
:1095700000225A800023FB6001E00423FB60FB68AB
:1095800018461037BD4680BD744300202444002097
:1095900080B582B000AF786039600223002239685C
:1095A0007868FFF74DFD034618460837BD4680BD75
:1095B00080B584B000AFF860B9607A607B68002B3A
:1095C00001D1052306E002237A68B968F868FFF73D
:1095D00037FD034618461037BD4680BD80B582B0C2
:1095E00000AF786039607B68002B01D1052306E06D
:1095F0000323002239687868FFF722FD03461846E6
:109600000837BD4680BD000080B584B000AF03467A
:10961000FB80184B1B78DBB283F00103DBB2002B1D
:1096200001D0022322E0FB884FF6FF72934201D162
:1096300004231BE007F108031846FEF747FEF86015
:10964000FB68002B01D1082310E0FB6805221A708B
:10965000FB6801221A71FB68FA88DA8007F10803B7
:109660001846FEF749FEFFF7CDFC002318461037D9
:10967000BD4680BD7443002080B582B000AF144B5E
:109680001B78DBB283F00103DBB2002B01D0022395
:109690001AE03B461846FEF719FE78607B68002BFF
:1096A00001D1082310E07B6806221A703B46184659
:1096B000FEF722FE074B1B78002B02D0054B012240
:1096C0001A73FFF79FFC002318460837BD4680BD7C
:1096D000744300205444002080B584B000AFBA60C9
:1096E0007B600346FB810B46BB8107F10C0107F150
:1096F0000E007B68BA68FEF779FD034618461037FE
:10970000BD4680BD80B584B000AF0346B9607A60C5
:10971000FB8107F10E017B68BA680020FEF766FD49
:10972000034618461037BD4680BD80B584B000AFF3
:109730000346B9607A60FB8107F10E007B68BA6866
:109740000021FEF753FD034618461037BD4680BD85
:1097500080B483B000AF786039607B68002B02D0A2
:109760003B68002B01D1052304E07B681A683B6845
:109770001A60002318460C37BD465DF8047B70471D
:1097800080B487B000AF786039607B6853E8011F10
:109790008AB2D88902449889824228BF121A18894D
:1097A000824202BFBFF32F8F002307E0C2EA01020B
:1097B00043E801200028E9D14FF00103FB737861F1
:1097C000B9603A61BA683B681A60FB7BDBB2184645
:1097D0001C37BD465DF8047B704780B485B000AF90
:1097E0007860796851E8013FC3EA034341E80132F8
:1097F000002AF7D1FA60BB6000BF1437BD465DF8A0
:10980000047B704780B487B000AF786039607B68B4
:1098100053E8021F1FFAA1F2D888824202BFBFF3A9
:109820002F8F00230DE0D88902449889824228BFF7
:10983000121AC1EA024243E802200028E8D14FF0A0
:109840000103FB737861B9603A61BA683B681A60DA
:10985000FB7BDBB218461C37BD465DF8047B7047C6
:1098600080B485B000AF7860796851E8023FC3EA00
:10987000234341E80232002AF7D1FA60BB6000BFFF
:109880001437BD465DF8047B704780B487B000AFE5
:1098900078607B6853E8021FDA88B1EB314F4FF0F4
:1098A000000017BF89B242EA024241EA024204E0E4
:1098B0005968B1EB314F08BF012043E8022100296C
:1098C000E8D1F87379613A61FB7BDBB218461C374B
:1098D000BD465DF8047B704780B485B000AFF8608A
:1098E000B96011461A460B46FB801346BB80BB6825
:1098F000002B01D10E231BE0FB88BA88B3FBF2F1E9
:1099000002FB01F29B1A9BB2002B01D009230FE04E
:10991000FB68BA681A60FB6800225A60FB68002284
:109920009A60FB68FA889A81FB68BA88DA8100231A
:1099300018461437BD465DF8047B704780B584B087
:1099400000AF78607868FFF7A0FF0346FB73FB7BEE
:10995000002B01D0002300E0112318461037BD462C
:1099600080BD80B584B000AF786039603B6819462F
:109970007868FFF705FF0346002B07D07B681B685C
:109980003A6812881344FB60FB6800E00023184625
:109990001037BD4680BD80B582B000AF78603960B9
:1099A0003B681A883B685B889A4204D17868FFF765
:1099B00014FF012300E0002318460837BD4680BD90
:1099C00080B584B000AF786039603B68194678682C
:1099D000FFF718FF0346002B07D07B681B683A6827
:1099E00052881344FB60FB6800E0002318461037E0
:1099F000BD4680BD80B582B000AF786039603B68FD
:109A00001A883B685B889A4204D17868FFF728FF80
:109A1000012300E0002318460837BD4680BD80B50D
:109A200084B000AF786039603B685B099B007A685E
:109A3000D0183B6803F01F03012202FA03F3194612
:109A400000F0E0F8F86000BF1037BD4680BD80B57B
:109A500082B000AF786039603B685B099B007A6830
:109A6000D0183B6803F01F03012202FA03F31946E2
:109A700000F0AFF802463B6803F01F0322FA03F33D
:109A800003F00103002B14BF01230023DBB21846AF
:109A90000837BD4680BD80B584B000AF78603960BE
:109AA0003B685B099B007A68D0183B6803F01F0392
:109AB000012202FA03F3DB43194600F0D5F8F860FF
:109AC00000BF1037BD4680BD80B483B000AF786062
:109AD00039603B685B099B007A6813441A683B68ED
:109AE00003F01F0322FA03F303F00103002B14BF5A
:109AF00001230023DBB218460C37BD465DF8047B1A
:109B0000704780B58AB000AF7860396000237B620F
:109B10003BE07B6A9B007A6813441B68DB43BB61B4
:109B2000BB6993FAA3F37B617B69B3FA83F33B626E
:109B300023E07B6A5B013A6A1344FB61FA693B6884
:109B40009A421ED2F9697868FFF781FF034683F0D5
:109B50000103DBB2002B01D0FB691EE07B6A9B0096
:109B60007A6813441B68DB433B613B6993FAA3F3B8
:109B7000FB60FB68B3FA83F33B623B6A1F2BD8D9C7
:109B800000E000BF7B6A01337B623B68013B5B09FD
:109B900001337A6A9A42BCD33B6818462837BD46DF
:109BA00080BD90B486B000AF786039607B683A6859
:109BB00053E8004F104643E8000191F0000FF7D141
:109BC0007C613861F9607B6918461837BD4690BCE6
:109BD000704790B486B000AF786039607B683A68AF
:109BE00053E8004F44EA020043E8000191F0000FFF
:109BF000F6D17C613861F9607B6918461837BD463B
:109C000090BC704790B486B000AF786039607B68D4
:109C10003A6853E8004F44EA020043E8000191F03B
:109C2000000FF6D17C613861F9603B69184618373E
:109C3000BD4690BC704790B486B000AF7860396084
:109C40007B683A6853E8004F04EA020043E80001E9
:109C500091F0000FF6D17C613861F9607B6918469C
:109C60001837BD4690BC704790B486B000AF78609E
:109C700039607B683A6853E8004F04EA020043E821
:109C8000000191F0000FF6D17C613861F9603B6909
:109C900018461837BD4690BC704790B486B000AFE8
:109CA000786039607B683A6853E8004F04EB020043
:109CB00043E8000191F0000FF6D17C613861F96052
:109CC0007B6918461837BD4690BC704790B486B083
:109CD00000AF786039607B683A6853E8004F04EB66
:109CE000020043E8000191F0000FF6D17C61386179
:109CF000F9603B6918461837BD4690BC704790B470
:109D000086B000AF786039607B683A6853E8004FEE
:109D1000A4EB020043E8000191F0000FF6D17C6152
:109D20003861F9603B6918461837BD4690BC7047EA
:109D300080B582B000AF786001217868FFF749FFF5
:109D4000034618460837BD4680BD80B582B000AFD7
:109D5000786001217868FFF755FF034618460837F9
:109D6000BD4680BD80B582B000AF786000217868C4
:109D7000FFF761FF034618460837BD4680BD80B433
:109D800083B000AF78600B46FB707B68DA68FB78C5
:109D90007968898A01FB03F3134418460C37BD46E2
:109DA0005DF8047B704780B483B000AF78603960A1
:109DB0003B687A68D2689B1A7A68928AB3FBF2F39E
:109DC000DBB218460C37BD465DF8047B704780B4A3
:109DD00085B000AF78607B68002B01D10E231DE0B9
:109DE0007B689B681A467B685B68D31AFB737B6849
:109DF0001B687A6852681A6006E07B681A68136804
:109E0000591C1160FA7B1A70FB7B5A1EFA73002BE7
:109E1000F3D17B681B6800221A710023184614379F
:109E2000BD465DF8047B704780B584B000AF7860B4
:109E30000023FB600023BB7207F10A031846FDF7FD
:109E4000CDFD7B681B681A687B685B689A421DD9E8
:109E50007B681B681A68013A1A601B681B781946F0
:109E60007868FFF78CFFF8607B689B681A467B6810
:109E70001B681B68D31AFB727B681B681B79FA7A14
:109E80009A4203D97B681B68FA7A1A71BB7A184622
:109E9000FDF7AFFDFB6818461037BD4680BD90B595
:109EA00085B000AF786039603B68FB600023FB72CF
:109EB00007F10B031846FDF791FD7B681B681C68D2
:109EC000621C1A60F9687868FFF76DFF034623701B
:109ED000FB7A1846FDF78DFD00BF1437BD4690BDD7
:109EE00080B582B000AF78607B689B68002B0CD097
:109EF0007B685B697A6810697A6811687A68926829
:109F000098477B6800229A6000E000BF0837BD4692
:109F100080BD0EB480B585B000AF7860FB69002BC2
:109F20000CD00023FB6007F12003FB6007F10C035A
:109F30001A46F969786800F0A7F900E000BF143705
:109F4000BD46BDE8804003B0704780B582B000AF29
:109F500078600B46FB707B681A687B689B68581CAE
:109F6000796888601344FA781A707B689A687B680D
:109F70005B689A4202D37868FFF7B2FF00BF0837E8
:109F8000BD4680BD80B586B000AFF860B9607A602C
:109F90003B6000237B613B6803F00103002B21D071
:109FA0000AE0BB680133BB607B6901337B61FB7CEA
:109FB0001946F868FFF7C9FFBB681B78FB74FB7C88
:109FC000002BEED106E07B68013B7B602021F86826
:109FD000FFF7BBFF7A687B699A422BD97B68002B1D
:109FE000F1D127E0BB68002B0BD0B86818F068F8F7
:109FF000786106E07B68013B7B602021F868FFF711
:10A00000A4FF7A687B699A420ED97B68002BF1D154
:10A010000AE0BB680133BB607B6901337B61FB7C79
:10A020001946F868FFF791FFBB681B78FB74FB7C4F
:10A03000002BEED100BF1837BD4680BD80B588B07B
:10A0400000AFF860B9607A603B60BB68FB610123D8
:10A05000BB6107E0FA697B68B2FBF3F3FB61BB69A4
:10A060000133BB61FA697B689A42F3D23A68BB69F3
:10A070009A4201D93B68BB61FB6A03F00103002BE4
:10A080001FD1BB6A002B1CD0FB6A03F00203002B1C
:10A0900005D03B68002B02D13023FB7501E0202363
:10A0A000FB7507E0BB6A013BBB62FB7D1946F868A4
:10A0B000FFF74BFFBB6A002B03D0BA69BB6A9A4219
:10A0C000F0D30123FB613B68012B03D93B68013BC3
:10A0D0003B6009E0BA68FB69B2FBF3F33B613A69A4
:10A0E0007B689A4200D205E0FB697A6802FB03F3C1
:10A0F000FB61E8E7BA68FB69B2FBF3F33B613B69DC
:10A10000FA6902FB03F3BA68D31ABB60154A3B69CC
:10A1100013441B781946F868FFF717FFFA697B6844
:10A12000B2FBF3F3FB61FB69002BE3D1FB6A03F0A5
:10A130000103002B11D0BB6A002B0ED006E0BB6AD6
:10A14000013BBB622021F868FFF7FFFEBB6A002BD2
:10A1500003D0BA69BB6A9A42F1D300BF2037BD462B
:10A1600080BD00BF0434040080B588B002AFF86041
:10A17000B9607A603B60BB68002BB8BF5B423B6153
:10A1800001237B6107E07B683A6992FBF3F33B6153
:10A190007B6901337B617B683A699A42F3DA3A68FA
:10A1A0007B699A4201D93B687B613B6A002B0AD0EC
:10A1B000BB68002B04DB7B6A03F00403002B02D096
:10A1C0003B6A013B3B627B6A03F00203002B02D037
:10A1D0003B68002B16D07B6A03F00103002B11D1E2
:10A1E0003B6A002B0ED006E03B6A013B3B6220211C
:10A1F000F868FFF7AAFE3B6A002B03D07A693B6A36
:10A200009A42F1D3BB68002B07DABB685B42BB60A4
:10A210002D21F868FFF799FE08E07B6A03F004033C
:10A22000002B03D02B21F868FFF78FFE7B6A03F029
:10A230000203002B19D07B6A03F00103002B14D119
:10A240003B68002B11D13B6A002B0ED006E03B6A25
:10A25000013B3B623021F868FFF777FE3B6A002B39
:10A2600003D07A693B6A9A42F1D3B9687B6A019359
:10A270003B6A00933B687A68F868FFF7DFFE00BF2F
:10A280001837BD4680BD000080B58EB002AFF860C3
:10A29000B9607A60BB68002B00F0E881BB681B786E
:10A2A00087F82F30BB680133BB6097F82F30002B45
:10A2B00000F0D38197F82F30252B40F0C281002386
:10A2C0003B620123BB62BB681B7887F82F3097F88D
:10A2D0002F302D2B04D0302B0AD02B2B10D017E091
:10A2E0003B6A43F001033B62BB680133BB6012E091
:10A2F0003B6A43F002033B62BB680133BB600AE088
:10A300003B6A43F004033B62BB680133BB6002E07D
:10A310000023BB6200BFBB6A002BD4D10023FB61CA
:10A3200097F82F302A2B0CD17B681B68191D7A688F
:10A3300011601B68FA691344FB61BB680133BB60A1
:10A340001AE0BB681B7887F82F3097F82F302F2B37
:10A3500012D997F82F30392B0ED8BB680133BB6068
:10A36000FA6913469B0013445B001A4697F82F3096
:10A370001344303BFB61D3E700237B62BB681B784F
:10A3800087F82F3097F82F302E2B1DD1BB68013363
:10A39000BB60BB681B7887F82F3097F82F302F2BC6
:10A3A00012D997F82F30392B0ED8BB680133BB6018
:10A3B0007A6A13469B0013445B001A4697F82F30C5
:10A3C0001344303B7B62E4E7BB681B7887F82F308F
:10A3D00097F82F306C2B03D097F82F30682B07D1CC
:10A3E000BB680133BB60BB681B7887F82F30EFE791
:10A3F00097F82F30253B532B00F21E8101A252F813
:10A4000023F000BF2FA6020039A6020039A60200E1
:10A4100039A6020039A6020039A6020039A60200B8
:10A4200039A6020039A6020039A6020039A60200A8
:10A4300039A6020039A6020039A6020039A6020098
:10A4400039A6020039A6020039A6020039A6020088
:10A4500039A6020039A6020039A6020039A6020078
:10A4600039A6020039A6020039A6020039A6020068
:10A4700039A6020039A6020039A6020039A6020058
:10A4800039A6020039A6020039A6020039A6020048
:10A4900039A6020039A6020039A6020039A6020038
:10A4A00039A6020039A6020039A6020039A6020028
:10A4B00039A6020039A6020039A6020039A6020018
:10A4C00039A6020039A6020039A6020039A6020008
:10A4D000BBA5020039A6020039A6020039A6020077
:10A4E00039A6020039A6020039A6020039A60200E8
:10A4F00039A6020039A6020039A6020055A50200BD
:10A5000073A5020039A6020039A6020039A602008E
:10A5100039A6020073A5020039A6020039A602007E
:10A5200039A6020039A6020039A6020039A60200A7
:10A53000FBA5020039A6020039A60200DFA5020031
:10A5400039A6020097A5020039A6020039A602002A
:10A55000BBA502007B681B68191D7A6811601B6827
:10A56000BB62BB6AFB75FB7D1946F868FFF7EDFC23
:10A5700063E07B681B68191D7A6811601B68BB6209
:10A580003B6A0193FB6900937B6A0A22B96AF86807
:10A59000FFF7EAFD51E07B681B68191D7A681160BE
:10A5A0001B68BB62B96A3B6A0193FB6900937B6AD3
:10A5B0000A22F868FFF742FD3FE07B681B68191D1F
:10A5C0007A6811601B68BB62B96A3B6A0193FB69D8
:10A5D00000937B6A1022F868FFF730FD2DE07B685E
:10A5E0001B68191D7A6811601B68BB613B6AFA69B8
:10A5F000B969F868FFF7C6FC1FE07B681B68191D86
:10A600007A6811601B68BB623021F868FFF79DFC17
:10A610007821F868FFF799FCB96A002301930823B1
:10A62000009308231022F868FFF708FD05E02521B4
:10A63000F868FFF78AFC00E000BFBB680133BB602D
:10A6400005E097F82F301946F868FFF77EFCBB68E5
:10A650001B78002B7FF422AE00E000BFFB681B7B61
:10A66000002B04D0F868FFF73BFC00E000BF303758
:10A67000BD4680BD80B586B002AFF860B9607A6033
:10A68000FB68002B0FD1184B1B881B0443F0010300
:10A690001846164A16490E2300930B461549FCF737
:10A6A0003FFB0E231CE0BB68002B0FD10E4B1B8819
:10A6B0001B0443F0010318460F4A0D490E23009373
:10A6C0000B460C49FCF72CFB0E2309E0FB68BA682B
:10A6D0001A60FB681B681B687968F868984703462E
:10A6E00018461037BD4680BDCC3D00202434040000
:10A6F000C83504002C3404005834040090B587B0E9
:10A7000002AFF860B9607A603B60FB68002B0FD144
:10A71000424B1B881B0443F001031846404A414941
:10A720000E2300930B464049FCF7FAFA0E2370E023
:10A730007B68002B0FD1394B1B881B0443F00103AE
:10A7400018463A4A37490E2300930B463649FCF720
:10A75000E7FA0E235DE0FB681B68002B0FD12F4B3F
:10A760001B881B0443F001031846314A2D49082376
:10A7700000930B462C49FCF7D3FA082349E03B68C9
:10A78000002B0FD1254B1B881B0443F001031846F7
:10A79000284A2449092300930B462349FCF7C0FAB1
:10A7A000092336E0B86800F01CFA0346002B0FD1ED
:10A7B0001A4B1B881B0443F0010318461E4A194913
:10A7C000102300930B461849FCF7AAFA102320E047
:10A7D0003A68B968F86800F0E5F90346002B0FD134
:10A7E0000E4B1B881B0443F001031846134A0D4906
:10A7F000102300930B460C49FCF792FA102308E053
:10A80000FB681B689C683B687A68B968F868A04771
:10A81000034618461437BD4690BD00BFCC3D00200E
:10A8200024340400DC3504002C3404006C340400AF
:10A83000603404007434040078340400903404005C
:10A8400090B587B002AFF860B9607A603B60FB6892
:10A85000002B0FD15C4B1B881B0443F001031846EF
:10A860005A4A5B490E2300930B465A49FCF758FAA3
:10A870000E23A4E07B68002B0FD1534B1B881B04D5
:10A8800043F001031846544A51490E2300930B46E6
:10A890005049FCF745FA0E2391E0FB681B68002B3A
:10A8A0000FD1494B1B881B0443F0010318464B4A48
:10A8B0004749082300930B464649FCF731FA082321
:10A8C0007DE03B68002B0FD13F4B1B881B0443F0FE
:10A8D00001031846424A3E49092300930B463D496D
:10A8E000FCF71EFA09236AE0FB685B685A683B685C
:10A8F000B3FBF2F102FB01F29B1A002B0FD0324B9B
:10A900001B881B0443F001031846364A30490923CB
:10A9100000930B462F49FCF703FA09234FE0B86870
:10A9200000F05FF90346002B0FD1274B1B881B0457
:10A9300043F0010318462C4A2549102300930B4687
:10A940002449FCF7EDF9102339E07B68184600F044
:10A9500048F90346002B0FD11B4B1B881B0443F007
:10A9600001031846214A1A49102300930B4619493E
:10A97000FCF7D6F9102322E03A68B968F86800F0CD
:10A9800011F90346002B0FD10F4B1B881B0443F01A
:10A9900001031846164A0E49102300930B460D4931
:10A9A000FCF7BEF910230AE0FB681B68DC683B6A11
:10A9B00000933B687A68B968F868A0470346184670
:10A9C0001437BD4690BD00BFCC3D002024340400A8
:10A9D000F03504002C340400B83404006034040062
:10A9E00074340400C0340400EC3404000435040062
:10A9F0002835040090B587B002AFF860B9607A607E
:10AA00003B60FB68002B0FD13C4B1B881B0443F0C1
:10AA1000010318463A4A3B490E2300930B463A4934
:10AA2000FCF77EF90E2364E0FB681B68002B0FD156
:10AA3000324B1B881B0443F001031846334A31494B
:10AA4000082300930B463049FCF76AF9082350E0CD
:10AA50007B68002B0FD1294B1B881B0443F001039B
:10AA600018462B4A2749092300930B462649FCF731
:10AA700057F909233DE0B968F86800F0C4F80346C7
:10AA8000002B0FD11D4B1B881B0443F001031846FC
:10AA9000204A1C49102300930B461B49FCF740F940
:10AAA000102326E0FB685B681B687A6802FB03F3EF
:10AAB0001A46B968F86800F075F80346002B0FD104
:10AAC0000E4B1B881B0443F001031846124A0D4924
:10AAD000102300930B460C49FCF722F9102308E0E1
:10AAE000FB681B681C693B687A68B968F868A0470E
:10AAF000034618461437BD4690BD00BFCC3D00202C
:10AB000024340400043604002C34040060340400AF
:10AB100074340400503504007835040080B584B0E6
:10AB200000AF78607B68002B03D07B681B68002B2C
:10AB300028D10023FB6019E0FA6813469B001344F8
:10AB40009B001A46144B13447B607B681B68002BE8
:10AB500009D07B681B68DB69786898470346002B3F
:10AB600001D0012314E0FB680133FB600B4A0A4B60
:10AB7000D31A0B4AA2FB03231B09FA689A42DBD3C0
:10AB8000002305E07B681B68DB697868984703460B
:10AB900018461037BD4680BDE43D0020F83D00203A
:10ABA000CDCCCCCC80B485B000AFF860B9607A6011
:10ABB000FB68DB68BA689A4209D3BA687B681344B9
:10ABC0005A1EFB681B699A4201D8012300E000234A
:10ABD00003F00103DBB218461437BD465DF8047B71
:10ABE000704780B483B000AF78607B6803F00303E4
:10ABF000002B0CBF01230023DBB218460C37BD46E7
:10AC00005DF8047B704780B483B000AF7860396032
:10AC10007B685B681B685A1E3B681340002B0CBFA7
:10AC200001230023DBB218460C37BD465DF8047BD8
:10AC3000704729DF704700BF184628DF704700BF04
:10AC4000184680B588B000AF786039607B681B68B3
:10AC50009B68002B35D007F1080300221A605A6068
:10AC60009A60DA601A615A613B68FB607B689B6896
:10AC7000FB617B681B79002B02D0012B0CD018E004
:10AC800001233B727B681B693B617B68DB687B61EE
:10AC90007B685B69BB610CE002233B727B68DB680D
:10ACA0004FF4805202FB03F33B617B685B69BB613D
:10ACB00000BF7B681B689B6807F108021046984735
:10ACC00000E000BF2037BD4680BD80B586B000AF34
:10ACD00078607B685A697B689B69D31AB3F5805F9B
:10ACE00028BF4FF480537B6104227B69B3FBF2F3EE
:10ACF000012B38BF01237B617B681A697B689B69E4
:10AD000013443B617B68DB681A467B689B6913448C
:10AD1000FB607A69F9683869FFF78BFF03461846CC
:10AD20001837BD4680BD80B582B000AF78607B68C3
:10AD3000DA687B681B6913441846FFF77EFF0346F9
:10AD400018460837BD4680BD80B500AF034B0449A7
:10AD50001846FEF74FFE00BF80BD00BF98390020A7
:10AD60002845002080B500AF084B09491846FEF77A
:10AD700027FE0246074B1A60064B1B68002B14BFC8
:10AD800001230023DBB2184680BD00BF98390020A4
:10AD9000284500202445002080B582B000AF2B4B11
:10ADA0001B7A002B0BD1FFF7DDFF034683F0010375
:10ADB000DBB2002B03D0254B00225A6042E0234B2C
:10ADC00002221A72224B1B681B79002B02D0012B26
:10ADD00007D00DE01E4B1B681846FFF776FF786022
:10ADE00009E01B4B1B681846FFF79DFF786002E0E7
:10ADF00003237B6000BF7B68002B02D0112B0CD09B
:10AE00000FE0124B1B7C83F00103DBB2002B18D048
:10AE10000021022000F088F913E00C4B01221A7285
:10AE200010E00B4B1B6803211846FFF70AFF074B86
:10AE300000221A72054B00225A60FFF785FF00BFFF
:10AE400000E000BF0837BD4680BD00BF10450020B0
:10AE50002445002080B500AF0848FEF769FF03468F
:10AE6000002B08D1064B5B7C83F00103DBB2002B87
:10AE700001D0FFF791FF00BF80BD00BF1445002047
:10AE80001045002080B485B000AF78601C4B0022D4
:10AE9000DA607B681B79002B02D0012B19D028E0E7
:10AEA0007B685A697B689B69D31AB3F5805F28BFBA
:10AEB0004FF48053FB607B689A69FB681A447B6897
:10AEC0009A617B689A697B685B699A420ED101231B
:10AED00010E07B681B695A1C7B681A617B681A69E1
:10AEE0007B685B699A4203D1012303E000BF00E065
:10AEF00000BF002318461437BD465DF8047B704739
:10AF00001045002080B483B000AF78600A4BDB6846
:10AF10000133094AD360084BDB68082B04D9064B80
:10AF20000022DA60012300E0002318460C37BD46FA
:10AF30005DF8047B704700BF1045002080B582B0EB
:10AF400000AF786039607B680C4A5A600C48FEF7A5
:10AF5000EFFE0346002B0BD10BF08AFF03461A4687
:10AF6000074B1A7407481C238C220749FEF7B4FCD0
:10AF7000002318460837BD4680BD00BF18360400C0
:10AF800010450020983900208444002080B582B00C
:10AF900000AF7860396014220021064816F0D6FE12
:10AFA000054B1846FEF7CAFC002318460837BD4675
:10AFB00080BD00BF104500209839002080B586B0C4
:10AFC00000AFF860B9607A603B60194A07F110037E
:10AFD00019461046FEF7C5FC78617B69002B01D14C
:10AFE000042320E01C220021786916F0AFFE7B6963
:10AFF00000221A717B69FA681A607B693A6A9A6062
:10B000007B69BA681A617B697A68DA607B693A6839
:10B010005A61074A07F1100319461046FEF7BBFCB8
:10B02000FFF718FF002318461837BD4680BD00BF44
:10B030009839002080B584B000AFF860B9607A60BC
:10B040003B60BB683A681946786816F0E5FD002356
:10B0500018461037BD4680BD80B586B000AFF86099
:10B06000B9607A603B60194A07F11003194610462F
:10B07000FEF777FC78617B69002B01D1042321E086
:10B080001C220021786916F061FE7B6901221A7189
:10B090007B69FA681A607B693A689A604FF480525B
:10B0A000BB68B3FBF2F27B69DA607B697A685A614C
:10B0B000064A07F1100319461046FEF76CFCFFF72D
:10B0C000C9FE002318461837BD4680BD98390020B8
:10B0D00080B483B000AF786039603B6818460C37A5
:10B0E000BD465DF8047B704780B483B000AF7860E4
:10B0F0003960002318460C37BD465DF8047B704765
:10B1000080B483B000AF7860064B1B7A002B14BF6D
:10B1100001230023DBB218460C37BD465DF8047BE3
:10B12000704700BF1045002080B584B000AF786044
:10B1300039607B68022B02D07B68032B45D1264BFC
:10B140001B7A012B31D0022B02D0002B3FD02FE0F5
:10B150000023FB737B68022B02D0032B08D00FE087
:10B160001E4B1B681846FFF78DFE0346FB7307E076
:10B170001A4B1B681846FFF7C5FE0346FB7300BF5A
:10B18000FB7B002B13D0144B00221A72134B1A684E
:10B190007B68022B01D1002300E00D2319461046E5
:10B1A000FFF74FFDFFF7D0FD01E000BF00E000BF5B
:10B1B000094B5B7C83F00103DBB2002B02D0FFF76D
:10B1C000EBFD05E00BF038FE02E000BF00E000BF41
:10B1D0001037BD4680BD00BF10450020244500202B
:10B1E00080B483B000AF03463960FB71074B012286
:10B1F0005A74064B1B7A002B0CBF01230023DBB2D1
:10B2000018460C37BD465DF8047B7047104500209A
:10B2100080B582B000AF03463960FB71FB79012B2A
:10B2200002D0FB79032B0CD1084B00225A74FB7916
:10B23000012B0CBF01230023DAB2044B1A74FFF771
:10B24000ABFD00BF0837BD4680BD00BF10450020E4
:10B2500080B582B000AF78607868FEF7B8FD03462D
:10B2600018460837BD4680BD80B58AB000AF78600B
:10B2700039607B689B8A043BFB613A68FB69134435
:10B28000DA1CFB69B2FBF3F3FB767868FEF7CCFDC2
:10B2900078617B69002B01D1002337E07B690022B4
:10B2A0001A717B6901225A71FB699AB27B69DA8053
:10B2B0007B697B62FB7E013B3B617B6A7A681A603B
:10B2C00000233B621DE07868FEF7AEFDF860FB6886
:10B2D000002B0ED07B695B790133DAB27B695A713E
:10B2E0007B6AFA681A60FB687A681A60FB687B629E
:10B2F00004E0786900F00EF8002307E03B6A0133B0
:10B300003B623A6A3B699A42DDD37B69184628372B
:10B31000BD4680BD80B58AB000AF78607B68FB61B8
:10B32000FB695B79FB767B683B62FB7E013B7B6163
:10B3300000237B6205E03B6A1B683B627B6A01334A
:10B340007B627A6A7B699A42F5D33B6A1B683B61F0
:10B350007B683B6200237B620BE03B6A1B68FB60FF
:10B36000396A3869FEF79BFDFB683B627B6A0133F3
:10B370007B62FB7E7A6A9A42EFD300BF2837BD46D4
:10B3800080BD80B584B000AF78607B68FB60FB68EF
:10B39000043301211846FEF799FC00BF1037BD4663
:10B3A00080BD80B586B000AF78607B687B617B69CB
:10B3B000043301211846FEF7A2FC0346FB6007F1A7
:10B3C0000C033B613B691B78002B02D17868FFF7C7
:10B3D000A1FF00BF1837BD4680BD80B58CB000AF5F
:10B3E000F860B9607A603B60FB68BB61BB69DB8871
:10B3F0007B61FB68FB623B681A1D7B69B2FBF3F360
:10B40000BB623B6804337A69B3FBF2F2796901FBF2
:10B4100002F29B1A7B623A687B681A447B69134488
:10B42000DA1C7B69B2FBF3F3FB7405E0FB6A1B6873
:10B43000FB62BB6A013BBB62BB6A002BF6D10023F7
:10B440003B627A697B6AD31AFB61FA697B68934233
:10B4500028BF1346FB612DE097F83830002B0BD046
:10B46000BA683B6AD018FA6A7B6A13440433FA69F3
:10B47000194616F0D1FB0AE0FA6A7B6A1344181DDC
:10B48000BA683B6A1344FA69194616F0C5FB0023F3
:10B490007B62FB6A1B68FB627A68FB69D31A7B607C
:10B4A0003A6AFB6913443B627A697B68934228BF1E
:10B4B0001346FB617B68002BCED100BF3037BD4601
:10B4C00080BD80B586B002AFF860B9607A603B603D
:10B4D000002300933B687A68B968F868FFF77DFF3E
:10B4E00000BF1037BD4680BD80B586B002AFF860A2
:10B4F000B9607A603B60012300933B687A68B96861
:10B50000F868FFF76AFF00BF1037BD4680BD000036
:10B5100080B400AFBFF34F8F054BDB6803F4E062EC
:10B520000349044B1343CB60BFF34F8F00BFFDE7CC
:10B5300000ED00E00400FA0580B483B000AF78604D
:10B540007B685B6818460C37BD465DF8047B704726
:10B5500080B483B000AF78607B6800221A60BFF3CC
:10B560005F8F00BF0C37BD465DF8047B704780B528
:10B5700084B000AF786001217868FEF712FBF860B4
:10B58000BFF35F8FFB68002B0CBF01230023DBB2EE
:10B5900018461037BD4680BD80B483B000AF7860D8
:10B5A000BFF35F8F7B6800221A6000BF0C37BD4677
:10B5B0005DF8047B704733DF704700BF184680B4E6
:10B5C00000AF4FF080430122C3F80025BFF34F8F37
:10B5D00020BFFDE780B500AF064B00221A70064879
:10B5E000FFF7B6FF0549064800F07CF8002318462F
:10B5F00080BD00BF34450020304500206036040087
:10B600003845002080B582B000AF0FE01B48FFF73F
:10B6100093FF78607B681B68194A12781046984738
:10B620000346002B26D0154800F079F81348FFF7A1
:10B6300083FF0346002BE9D1FBF70CFE00BFFBF7AD
:10B64000EDFB0346002BFAD10D4B1B78032B03D0E7
:10B650000B4B1B78022B02D1FFF75AFF0BE00BF0CC
:10B6600007FC0346002B02D0FFF7A5FF3860FFF769
:10B67000A6FF00E000BF0837BD4680BD384500206A
:10B680002C45002080B582B000AF0346FB71124804
:10B69000FFF76DFF034683F00103DBB2002B16D1E9
:10B6A000FB79042B0DD00D4B1B78002B03D00A48DF
:10B6B000FFF772FF0CE00A4AFB791370074B012277
:10B6C0001A70FFF79FFF0448FFF766FF00E000BF16
:10B6D0000837BD4680BD00BF3045002034450020FE
:10B6E0002C45002080B483B000AF786039607B685F
:10B6F0003A681A607B681B681A687B685A607B68C6
:10B700005A687B681B685B689A4202D17B6800229A
:10B710005A6000BF0C37BD465DF8047B704780B4AB
:10B7200083B000AF78607B685B68002B14D07B68C7
:10B730005B681A467B681B689B6813441A467B68E3
:10B740005A607B685A687B681B685B689A4204D1C0
:10B750007B6800225A6000E000BF0C37BD465DF8F0
:10B76000047B704780B584B000AF7860786800F0E3
:10B770000DF8F860FB68002B01D0FB6800E0024B7D
:10B7800018461037BD4680BD6C36040080B487B0C3
:10B7900000AF7860174B7B61174B3B611FE03A6944
:10B7A0007B69D31ADB10DA0F13445B10DB007A6974
:10B7B0001344FB60FB681B68BB60BA687B689A42F5
:10B7C00002D9FB683B610AE0BA687B689A4203D2FF
:10B7D000FB6808337B6102E0FB685B6804E07A6920
:10B7E0003B699A42DBD3002318461C37BD465DF8FF
:10B7F000047B70476C3A0400943B040080B400AFB3
:10B80000BFF34F8F054BDB6803F4E0620349044B41
:10B810001343CB60BFF34F8F00BFFDE700ED00E0A7
:10B820000400FA0580B400AF034B044A1A6000BF5D
:10B83000BD465DF8047B7047AC3900200090D00312
:10B8400080B500AF00F054F90346002B0ED04FF046
:10B8500080430022C3F80C214FF080430022C3F83C
:10B8600010214FF080430022C3F8382500F062F920
:10B870000346002B76D04FF08053944AD3F804341B
:10B88000C2F820354FF08053904AD3F80834C2F8FC
:10B8900024354FF080538D4AD3F80C34C2F8283544
:10B8A0004FF08053894AD3F81034C2F82C354FF04A
:10B8B0008053864AD3F81434C2F830354FF08053A1
:10B8C000824AD3F81834C2F834354FF080537F4A97
:10B8D000D3F81C34C2F840354FF080537B4AD3F87C
:10B8E0002034C2F844354FF08053784AD3F82434DA
:10B8F000C2F848354FF08053744AD3F82834C2F860
:10B900004C354FF08053714AD3F82C34C2F850357F
:10B910004FF080536D4AD3F83034C2F854354FF0AD
:10B9200080536A4AD3F83434C2F860354FF08053FC
:10B93000664AD3F83834C2F864354FF08053634A0E
:10B94000D3F83C34C2F868354FF080535F4AD3F8DF
:10B950004034C2F86C354FF080535C4AD3F844341D
:10B96000C2F8703500F008F90346002B02D0584B9E
:10B97000584A1A6000F016F90346002B03D0564BC4
:10B98000FB22C3F8182500F023F90346002B0AD048
:10B99000524B1B6823F00F02514B1B6803F00F033F
:10B9A0004E4913430B6000F029F90346002B03D0E6
:10B9B0004C4B4FF400721A6000F036F90346002B2E
:10B9C0000DD04FF08043D3F8003403F00103002B77
:10B9D00005D04FF080436FF00102C3F80024424BC2
:10B9E000D3F88830404A43F47003C2F88830BFF37C
:10B9F0004F8FBFF36F8F4FF01023D3F80C3203F04B
:10BA00000103012B25D1394B0122C3F8042500BFC6
:10BA1000364BD3F80034002BFAD04FF01023D3F874
:10BA20000C324FF0102223F00103C2F80C3200BF99
:10BA30002E4BD3F80034002BFAD02C4B0022C3F845
:10BA4000042500BF294BD3F80034002BFAD0FFF7B0
:10BA5000D5FE4FF01023D3F80032002B05DB4FF05A
:10BA60001023D3F80432002B2BDA204B0122C3F829
:10BA7000042500BF1D4BD3F80034002BFAD04FF043
:10BA800010231222C3F8002200BF184BD3F8003451
:10BA9000002BFAD04FF010231222C3F8042200BF6B
:10BAA000124BD3F80034002BFAD0104B0022C3F80D
:10BAB000042500BF0D4BD3F80034002BFAD0FFF75C
:10BAC0009DFEFFF7AFFE00BF80BD00BF00C000407D
:10BAD0008C5600404881030000F00040E40E004016
