:020000022000DC
:1060000000000420F1620200196302001B63020019
:106010001D6302001F6302002163020000000000F4
:1060200000000000000000000000000023630200E8
:1060300025630200000000002763020029630200BC
:106040005DAF02002B630200CDB802002B6302009B
:106050002B6302002B63020065B302002B63020076
:106060002B6302002B6302002B6302002B630200F0
:106070002B6302002B6302002B6302002B630200E0
:106080002B630200397702002B6302002B630200AE
:10609000D97702002B630200252203002B63020044
:1060A0002B6302002B6302002B6302002B630200B0
:1060B0002B6302002B6302000000000000000000C0
:1060C0002B6302002B6302002B6302002B63020090
:1060D0002B6302002B6302002B6302002B63020080
:1060E0002B6302002B6302002B6302000000000000
:1060F000000000002B630200000000002B63020080
:10610000000000000000000000000000000000008F
:10611000000000000000000000000000000000007F
:10612000000000000000000000000000000000006F
:10613000000000000000000000000000000000005F
:10614000000000000000000000000000000000004F
:10615000000000000000000000000000000000003F
:10616000000000000000000000000000000000002F
:10617000000000000000000000000000000000001F
:10618000000000000000000000000000000000000F
:1061900000000000000000000000000000000000FF
:1061A00000000000000000000000000000000000EF
:1061B00000000000000000000000000000000000DF
:1061C00000000000000000000000000000000000CF
:1061D00000000000000000000000000000000000BF
:1061E00000000000000000000000000000000000AF
:1061F000000000000000000000000000000000009F
:106200000348044B834202D0034B03B11847704745
:10621000EC220020EC220020000000000548064986
:10622000091A891001EBD171491002D0034B03B157
:1062300018477047EC220020EC22002000000000EC
:1062400010B5064C237843B9FFF7DAFF044B13B1BE
:106250000448AFF300800123237010BD40230020C9
:1062600000000000543F030008B5044B1BB1044973
:106270000448AFF30080BDE80840CFE7000000000D
:1062800044230020543F0300134B002B08BF114B45
:106290009D46A3F5803A00218B460F461148124ACD
:1062A000121A0CF055FA0D4B002B00D098470C4BEE
:1062B000002B00D098470020002104000D000B485F
:1062C0000CF022F90CF054F92000290006F070FEC1
:1062D0000CF020F90000080000000420000000007D
:1062E0000000000040230020843200203D250300F0
:1062F0000649074A074B9B1A03DD043BC858D05098
:10630000FBDC00F09FFFFFF7BFFF0000944003009D
:106310002022002040230020FEE7FEE7FEE7FEE704
:10632000FEE7FEE7FEE7FEE7FEE7FEE7F0B595B025
:10633000002415460F4608461E4604F011FB384659
:1063400023460895082205A91A9D09960D950A94D9
:106350008DF82C400C9404F057FB9DF814308DF808
:106360001140DDE9061003F00302012ACDE9020124
:1063700027D0022A04D0384604F0F6FA15B0F0BD52
:10638000BDF81650C3F3C2038DF81030AD090826CE
:10639000082D2C4628BF0824334622460EA938462D
:1063A00004F032FB2D1B214608AB02AA0EA826449E
:1063B00000F0BCFD002DEBD1384604F0D5FA15B045
:1063C000F0BDBDF81460059DC6F38316C3F3C20487
:1063D000B2000EA9384608238DF81040C5F3952564
:1063E00004F012FB08AB324628460EA9009302AB1C
:1063F00000F0F6FC384604F0B7FA15B0F0BD00BF67
:10640000014B01221A707047A0230020704700BF83
:1064100000B583B0044B0093044A4023FFF786FF86
:1064200003B05DF804FB00BF31640200602300206C
:1064300038B50E480E4D03780E4CEB5C0025D2B2F9
:10644000257053B90C3005F0CDFC58B90A4B1B78B8
:1064500013B12378002BFCD038BD043005F046FF83
:106460000028F3D001F022F9F0E700BF202200203D
:1064700080320020A02300205C23002070B5134848
:10648000134A0378D35C88B0DBB90C3005F02CFCE0
:10649000104D0FCD6C460FC495E80F0008AD0626D1
:1064A00045F8206D84E80F0029460022074804F0D3
:1064B000E3FC08B101F0FAF8074B00221A7008B0AB
:1064C00070BD043005F092FEE2E700BF20220020FC
:1064D00080320020402D03005C23002070B50D4D5C
:1064E0000FCD88B06C460FC495E80F0008AD0626A6
:1064F00045F8206D84E80F002946074A074804F054
:10650000BBFC08B101F0D2F8054B01221A7008B0AB
:1065100070BD00BF402D0300016402002022002056
:106520005C23002010B5054CFFF7D8FF204604215E
:1065300000F014FC0123637210BD00BF3422002060
:10654000F0B5314D85B005F5836003F0FBF805F239
:10655000144003F0F7F8D5E9012702EA0704E31C29
:1065600005EB830319788E0701F004000ED0C8B143
:1065700001F00301012935D0022902F10200EED118
:106580005A8800EB921202EA0704E8E7561C00283A
:10659000EED159881A8806EB911606EB921202EAA0
:1065A0000704DCE705EB8404531CE16801913B40E0
:1065B00005EB830301F003010129DE6802F1020407
:1065C0001AD0022916D1BDF806309B090333360CC8
:1065D00004EB93040D4803F0C1F800B16C60304641
:1065E00005B0F0BD1B880232C3F383131A4402EADC
:1065F0000704B4E70646EDE7BDF80430C3F38313A0
:10660000360C1C44E6E700BF7424002088280020D4
:1066100008B50E4B0E480022FF21C3F818249960DC
:10662000C3E90022C3F8142483F8202404F054F9A9
:1066300058B9084A084BD21AD20806D0074903466F
:1066400021F8233001339A42FAD108BD7424002086
:106650004440030044400300C43F0300EC220020F8
:1066600021B9134A02EBC0000068704730B41149E9
:106670000F4C091BC90816D00F4B5A88824218BF0D
:10668000002205D111E0DD88854203F1040305D025
:1066900001329142F7D1002030BC704704EBC200B8
:1066A000006830BC70470846F6E72046F8E700BFB0
:1066B000C43F030044400300EC220020094B013991
:1066C00003EBC00003290BD8DFE801F00208060441
:1066D0000220704740797047007970470420704766
:1066E00000207047C43F03002DE9F04383B002ABA4
:1066F000002203F8012DDFF8DC9007461846884693
:10670000D9F8084001F028FBD9E90132D9F8006036
:10671000134401339B1B012B58D809F21C4501215E
:10672000284602F0EBFFFFF70BFF0146284602F078
:10673000E5FFD9E90132D9F80010134401335B1A9F
:10674000012BECD90A400332052302319DF80700E2
:1067500049F82230C9F8001001F024FB00211C4840
:1067600002F092FF80F31000731C234009EB8303B7
:1067700000043440033440EA1740D86019F824304C
:1067800067F3C50309F8243039F824306FF389130F
:1067900029F8243059F8242068F39F221346012158
:1067A00061F301036FF3820349F8242009F82430D0
:1067B00099F820341BB906E000F00EF818B1D9E9B9
:1067C00000329A42F8D103B0BDE8F0833146B9E710
:1067D00090280020742400202DE9F0478F4D0023DD
:1067E00084B0C5F81834BFF34F8FD5E901462B6844
:1067F0000CE037B301F0030101294FD0022903D186
:106800005288023404EB9214A34215D904EA06001C
:10681000C21C05EB8202117811F0030F01F004078E
:10682000E7D1002FE6D151881288013404EB91148E
:1068300004EB9214A342E9D800206B6004B0BDE8D9
:10684000F08705EB8000631CC2680192334005EBC2
:10685000830302F00302DB680293022A04F10208B8
:1068600000F08380012A1FD0D5F8104434B123688A
:1068700020469B6898476468002CF8D1684B6949AA
:106880001888000440F00200FFF72EFFD5E9003021
:10689000C01A18BF012004B0BDE8F0871288023486
:1068A000C2F383121444AFE7BDF804205E48C2F37C
:1068B0008313062B28BF062363F389120233990042
:1068C000ADF8042004F00AF881460028CCD004F08A
:1068D00047F83B46082201A9484604F067F8BDF88E
:1068E000043013F4707F00F097806FF0010AAAEB78
:1068F000040A082406EA080103312346042205EBB2
:106900008101484604F052F8BDF8043008F101074F
:106910000AEB0702C3F383139342B84604F104045D
:10692000E8D8D5F81834002B6BD1D5F8104454B101
:10693000637A20464946002B5FD023681B6898473E
:106940006468002CF4D1484604F00EF804A8002333
:1069500000F80D3D01F000FAD5F8183403B96F6066
:106960009DF8030001F01EFA90E7BDF806302E48AE
:106970009C09502CA24628BF4FF0500A6AF38F138F
:106980000AF10801ADF8063003F0A8FF814600289F
:106990003FF46AAF03F0E4FF3B4626EA08070137FD
:1069A000082201A94846BF0004F000F8BA4519D9E9
:1069B0005FFA8AF34FB306EA0801DB1B033105EBEC
:1069C0008101DEB23A460823484603F0EFFF324623
:1069D00007F108031549484603F0E8FF033408EBC4
:1069E00094079EE706EA0801033105EB8101524650
:1069F0000823484603F0DAFFF0E76468002C97D1DB
:106A0000A1E7484603F0B0FF40E752460823074994
:106A1000484603F0CBFFE1E7474682E774240020B5
:106A2000002300206C2D030044400300802400203C
:106A30002DE9F04782B002AB002403F8014DDFF8E6
:106A4000ECA00746184691468846DAF8084001F05F
:106A500083F9DAE90132DAF80060134401339B1B51
:106A6000022B5ED80AF21C450121284602F046FEA0
:106A7000FFF766FD0146284602F040FEDAE90132E2
:106A8000DAF80010134401335B1A022BECD90A40E8
:106A90000332033145239DF807004AF82230CAF833
:106AA000001001F07FF9B31C23400AEB830300219F
:106AB0001D48C3F80C9002F0E7FD80F31000731C32
:106AC00023400AEB830300043440033440EA1740B8
:106AD000D8601AF8243067F3C5030AF824303AF86E
:106AE0002430012161F389132AF824305AF8242034
:106AF00068F39F22134661F301036FF382034AF8A0
:106B000024200AF824309AF820341BB906E0FFF755
:106B100063FE18B1DAE900329A42F8D102B0BDE85A
:106B2000F0873146B3E700BF90280020742400208E
:106B30002DE9F04F83B002AD002405F8014D3B4C28
:106B40008046284693469A468946A56801F004F98E
:106B5000D4E90132276813440133DB1B032B63D8CC
:106B600004F21C460121304602F0C8FDFFF7E8FCA4
:106B70000146304602F0C2FDD4E9013221681344D7
:106B800001335B1A032BEDD90A400332852344F805
:106B9000223004319DF80700216001F003F9BA1C8E
:106BA000FB1C2A402B4004EB820204EB83030021F0
:106BB0001F48C2F80CB0C3F80CA002F065FD80F3CA
:106BC00010007B1C2B4004EB830300043D40033585
:106BD00040EA1840D86014F8253068F3C50304F87B
:106BE000253034F82530022262F3891324F8253049
:106BF00054F8252069F39F221346012161F3010314
:106C00006FF3820344F8252004F8253094F82034EB
:106C10001BB906E0FFF7E0FD18B1D4E900329A4253
:106C2000F8D103B0BDE8F08F3946ADE774240020F9
:106C3000902800202DE9F04F83B002AE002406F822
:106C4000014D3E4C8046304693469A46A56889469B
:106C500001F082F8D4E90132276813440133DB1BC9
:106C6000042B69D804F21C460121304602F046FD8F
:106C7000FFF766FC0146304602F040FDD4E90132E0
:106C80002168134401335B1A042BEDD90A40033207
:106C9000C52344F8223005319DF80700216001F03A
:106CA00081F8B81CFA1C28402A403B1D2B4004EBFD
:106CB000800004EB820204EB8303C0F80CB00021D7
:106CC000C2F80CA01E480C9ADA6002F0DDFC80F3DA
:106CD00010007B1C2B4004EB830300043D40033574
:106CE00040EA1840D86014F8253068F3C50304F86A
:106CF000253034F82530032262F3891324F8253037
:106D000054F8252069F39F221346012161F3010302
:106D10006FF3820344F8252004F8253094F82034DA
:106D20001BB906E0FFF758FD18B1D4E900329A42CA
:106D3000F8D103B0BDE8F08F3946A7E774240020EE
:106D400090280020044BD3E900239A4201D0FFF79A
:106D500043BD0020704700BF7424002030B4154D9F
:106D6000D5F81044002154B1237A8B4213D0234626
:106D700002E01A7A8A420ED05B68002BF9D10172C8
:106D8000D5F810347BB15B684360D5F81034586097
:106D900030BC0846704701310A29E4D14FF0FF3179
:106DA000084630BC7047C5F81004436030BC084644
:106DB000704700BF7424002038B5084BD3F8104446
:106DC000012583F820543CB12368657220465B6836
:106DD00098476468002CF7D138BD00BF74240020A8
:106DE0002DE9F04784B01D460C9C002394F80C80DC
:106DF0002373EB8881460E461746002B40D1297A33
:106E000005290ED06B7AA88873BB404B53F821A09C
:106E10000021FFF725FC524603463D49204602F07B
:106E200015FD062F09D8DFE807F0046A4249525DD4
:106E300033004946204602F009FD2B7A052B05D088
:106E40006B7A5BB93349204602F000FD204602F020
:106E5000F1FC84F80C8004B0BDE8F0872E4A2F497D
:106E6000204602F0F3FCEDE7FFF728FC2C4B2B4902
:106E700053F82020204602F0E9FC297AA888C4E7CC
:106E8000254A00922749284A204602F0DFFCB6E74F
:106E9000D6E90410D6E900230390D6E9020702914F
:106EA000CDE900074946204602F0D0FCC5E7494637
:106EB000D6E90023204602F0C9FCBEE7B168D6E956
:106EC000002320460091494602F0C0FCB5E7D6E910
:106ED0000201D6E90023019100904946204602F0C4
:106EE000B5FCAAE7D6E90371B068D6E900230291A0
:106EF000CDE900074946204602F0A8FC9DE732682C
:106F00004946204602F0A2FC97E700BF0C2E030082
:106F1000FC2D0300082E0300F02D0300F82D0300C4
:106F2000982D0300D82D0300D02D0300082900D987
:106F300070472DE9F04F1C4617460023227B237330
:106F400085B0FB88039206460D46002B79D1397A2D
:106F500005290FD07B7AB888002B66D13D4B53F8BA
:106F600021800021FFF77CFB424603463A49204638
:106F700002F06CFCDFF800A1DFF800914FF0000890
:106F800008E016F8082008F1010802F05FFCB8F1EB
:106F9000080F0BD0454549462046F2D8514608F126
:106FA000010802F053FCB8F1080FF3D12B49DFF8C8
:106FB000D0A0DFF8D090DFF8D080204602F046FC69
:106FC0004FF0000B0EE016F80B2012F809C01CF071
:106FD000970F08BF2E220BF1010B02F037FCBBF11B
:106FE000080F0BD05D4541462046ECD851460BF1C9
:106FF000010B02F02BFCBBF1080FF3D13B7A052B00
:1070000001D07B7A5BB91649204602F01FFC20466E
:1070100002F010FC039B237305B0BDE8F08F114A0A
:107020001149204602F012FCEDE7FFF747FB0F4B3A
:107030000D4953F82020204602F008FC397AB88820
:107040008CE7084A00920A490A4A204602F0FEFBF1
:107050007DE700BF0C2E0300FC2D0300C82D0300AC
:10706000082E0300F02D0300F82D0300982D0300D7
:10707000D82D0300D02D0300C42D0300BC2D030028
:10708000042E03004D3E0300CC2D0300074B1B5C78
:107090001F2B8ABF064A4FF0A04203F01F03D2F80D
:1070A0000405D840C04300F0010070477C2E030067
:1070B00000030050074B1B5C1F2B86BF03F01F0310
:1070C00005494FF0A041012202FA03F3C1F80C3543
:1070D000704700BF7C2E030000030050074B1B5C71
:1070E0001F2B86BF03F01F0305494FF0A04101226B
:1070F00002FA03F3C1F80835704700BF7C2E030085
:10710000000300504FF0A04310B44FF480404FF400
:1071100000544FF400414FF48032C3F80845C3F8DF
:107120000805C3F80815C3F808255DF8044B704737
:107130004FF0A04310B44FF480404FF400544FF48C
:1071400000414FF48032C3F80C45C3F80C05C3F876
:107150000C15C3F80C255DF8044B70470A4B195CFD
:107160001F298ABF09484FF0A04001F01F01D0F845
:10717000043501228A4022EA03011340C0F80815B1
:10718000C0F80C35704700BF7C2E03000003005090
:10719000074B1B5C1F2B8ABF064A4FF0A04203F02F
:1071A0001F03D2F81005D840C04300F0010070471B
:1071B000782E0300000300500B2809D00C2809D0BA
:1071C000182809D019280CBF03204FF0FF30704752
:1071D000002070470120704702207047014B185C67
:1071E000704700BF782E0300C20730B40ED4830767
:1071F0000AD54FF0A0430C22C3F82C27C3F8302740
:10720000C3F86027C3F8642730BC70474FF0A04331
:107210000322C3F834274FF40055C3F838274FF43E
:107220008044C3F83C274FF40041C3F840274FF493
:107230008032C3F80855C3F80845C3F80815C3F8E9
:107240000825D4E710B44FF080414FF08052002061
:10725000C1F80C015E4BC1F81001C1F83805D2F835
:107260000414C3F82015D2F80814C3F82415D2F872
:107270000C14C3F82815D2F81014C3F82C15D2F842
:107280001414C3F83015D2F81814C3F83415D2F812
:107290001C14C3F84015D2F82014C3F84415D2F8D2
:1072A0002414C3F84815D2F82814C3F84C15D2F8A2
:1072B0002C14C3F85015D2F83014C3F85415D2F872
:1072C0003414C3F86015D2F83814C3F86415D2F832
:1072D0003C04C3F86805D2F840043E49C3F86C0585
:1072E0000968D2F84424C3F87025082924D04FF047
:1072F0008043D3F80024D20744BF6FF00102C3F8E3
:107300000024354AD2F8883043F47003C2F888303C
:10731000BFF34F8FBFF36F8F4FF01023D3F80022CE
:10732000002A23DBD3F80432002B1FDB2B4B2C4A23
:107330001A605DF8044B70472A4B1B68002BD6D1AE
:1073400029482A4A2A4C04602A492B4BFB20C2F8C0
:1073500018050A681B68294822F00F0203F00F0382
:1073600013434FF400720B600260C0E7244B01220C
:10737000C3F80425D3F80024002AFBD04FF01023D3
:1073800012221F49C3F80022D1F80034002BFBD091
:107390004FF0102212211A4BC2F80412D3F8002425
:1073A000002AFBD000221649C3F80425D1F8003486
:1073B000002BFBD0BFF34F8F0749124BCA6802F472
:1073C000E0621343CB60BFF34F8F00BFFDE700BF08
:1073D00000C000403001001000ED00E0402200201D
:1073E0000090D003340100108C56004000F00040A3
:1073F00048810300E40E004058020010409602400D
:1074000000E001400400FA05434B1978002900F020
:1074100081802DE9F04F002487B001258E4603E0DE
:107420000134E4B2744560D23C4B27B21E6816F8B2
:1074300037C0ACF1200205FA02F9394ACCF1200339
:10744000D2E9000125FA03F349EA030905FA0CF829
:1074500000EA080201EA0903134306EBC70BDFD079
:1074600021EA09032E4920EA08026046C1E9002307
:1074700003F068FF16F837C0ACF1200205FA02F2FB
:1074800001920199CCF12003C6B225FA03F3ACF1C5
:107490002002194306FA02F30393224B0191D3E928
:1074A0000023CDE9042305FA0CF30093CCF120016D
:1074B000039B26FA01F10B43039306FA0CF30293A4
:1074C000DDE90467DDE9002316401F4032463B46F4
:1074D000DDE90267BB4208BFB24209D00E4B01345E
:1074E00093F800E0E4B274459ED307B0BDE8F08F96
:1074F0009BF80110DBF80430A1F10101B1FA81F130
:107500004909091AB1FA81F14909002BE6D0604610
:107510009847E3E7704700BF98280020D028002054
:10752000C8280020C02800202DE9F84F064624482E
:1075300000F0D8FBD8B9234F0123A6F1200103FAAC
:1075400001FBC6F12002D7E9000123FA02F24BEA5F
:10755000020B03FA06FA00EA0A0201EA0B031343DC
:1075600007D020EA0A0421EA0B05C7E90045BDE877
:10757000F88F304603F0E6FE134ED6E90089C8B115
:1075800048EA0A0349EA0B049846A146D7E90023D2
:107590004BEA03050D4B0A4819684AEA02044B46B8
:1075A0004246C6E90023C7E900450022BDE8F84F7E
:1075B00000F042BB28EA0A0829EA0B09E6E700BF07
:1075C000A0280020C8280020C02800209C280020D7
:1075D000042A36D92DE9F04182B00E4605461446FC
:1075E00003F03AFD002836D01D491E4A1E4B0D609F
:1075F0001E481F491C60167000230022741EC0E93B
:107600000023C1E90023E4B2EEB105EBC404194F35
:10761000083D4FF00008032601E0AC4213D0A378E8
:1076200020788DF806803A4601A98DF804608DF81F
:10763000053003F01BFD083C0028EED002B0BDE889
:10764000F081072070470C4A0C48002100F0E2FA54
:1076500002B0BDE8F08103F0B3FC0028C4D0EDE730
:10766000D0280020982800209C280020C028002036
:10767000C82800202975020009740200802E03002A
:1076800070B5084D2B785BB1074E0024336801219B
:1076900013F8340003F0DAFD2B780134A342F5D857
:1076A000002070BD98280020D028002000B585B0AB
:1076B00000230390194601AA44F20100CDE90133E9
:1076C00000F004F805B05DF804FB00BF10B572B619
:1076D000FFF772FBFFF736FB0028FBD1104C114976
:1076E0002088000440F00100FEF7FEFF0E4B1B68EF
:1076F000DB0700D500BE20880C49000440F00200E2
:10770000FEF7F2FFBFF34F8F09490A4BCA6802F434
:10771000E0621343CB60BFF34F8F00BFFDE700BFB4
:1077200000230020842E0300F0ED00E0902E0300E3
:1077300000ED00E00400FA05F8B5204A204B0024D3
:10774000C2F84041C2F84441C2F84841C2F84C4135
:10775000C2F80041C2F804411B6833B31949D2F89A
:1077600004550A68AD1A1A6825F07F45AA422746D3
:107770000DD8197CDE69AD1A144419B11F74D3E910
:10778000052090471EB133461A68AA42F1D90E4926
:107790000E4A0B7812789A4208D00D490D4A41F8EA
:1077A00023404FF48013C2F80031F8BD531CDBB204
:1077B000022B08BF00230B70EFE700BF0010014051
:1077C000F4290020F0290020ED290020EC290020D8
:1077D000E429002000E100E02DE9F04F8C4A8D49BA
:1077E00013780978DFF85082994285B0D8F800A064
:1077F00000F07B810133DBB2022B08BF00238648F7
:107800001370864A076852F823107B1823F07F43D1
:1078100000240360534626462046A446ABB11A68AE
:107820008A4200F26581DC68C3F800C0891A1044FE
:10783000DA6934B13D1825F07F45C3E90154DE61B2
:107840001E4613460124002BE9D1002C40F07C8118
:1078500001230093724B734FDFF8E09143F0010373
:10786000019355464FF0000B46B3D6E901C13446AB
:10787000F669694B6C481A68ACEB020323F07F434E
:10788000834248D80B44236000220121C4E901222D
:10789000E2612174002D5DD02A689A424DD22846BB
:1078A00003E00A689A424FD20846C1699B1A002930
:1078B000F7D12360E161C461002ED6D178783978A0
:1078C000884264D00B4603EB43034C1CBA7807EBA9
:1078D000C303E1B28A421A79397004BF00213970BA
:1078E000022A9C6844D0032A38D0012AE8D1227C9D
:1078F000002AE5D1D3F80CC0C4F804C01969A1600E
:107900005869E06099F800009B69A3610028B0D035
:1079100062609446ADE7A2EB0C0222F07F428A42FD
:1079200002D28B1A2360AFE700230122C4E900339F
:10793000A360E36122746DB12A68C8F80040D31ACD
:107940002B60E56125468FE7D21A0A602360E1616A
:10795000C461B1E7C8F80040254685E7002DAFD0E7
:1079600000232B74ED69002DFBD1C8F80050A5E76A
:107970004DB1AC422B4603D1E4E094422FD01346E4
:10798000DA69002AF9D10023237488429AD1BBF125
:10799000000F01D1554553D0002D56D1234E244A16
:1079A0001F4C4FF480334FF400310127C2F8801090
:1079B0003C43C6F848334FF43C60C6F80833776060
:1079C000A047154BB7604FF43C601D60A047194BB2
:1079D0001D70002389F8003005B0BDE8F08FA34288
:1079E00000F09180E0692168D861002800F086806D
:1079F0002A4603680B440360AA424FF0000339781B
:107A0000787823741CBF15464FF0010BBDE700BF0B
:107A1000EC290020ED290020F0290020E429002095
:107A2000A02E0300D4280020FEFF7F00001001409C
:107A300000E100E0E1290020F4290020E0290020F5
:107A4000009B002BC5D0002DA8D0434B434A1C6897
:107A5000D2F80465424FD5F800A03978331B23F0E3
:107A60007F43DD1CB9B93F493F4B4FF48030C2F82A
:107A700044034FF00108C2F804034FF40030C1F88A
:107A8000800143F001030860C2F800804FF43C60BD
:107A9000984787F80080AA452CBF04EB0A036319B6
:107AA0002E4923F07F43C1F84035D1F80425921BBD
:107AB0009B1B22F07F4223F07F4303329A4288D9F6
:107AC000294BD1F80425C1F8402543F001034FF4B8
:107AD0003C609847234B4FF40032C3F80021002349
:107AE00089F8003005B0BDE8F08F00260096B1E6B9
:107AF00074BB521A1A6001230093ABE60023397855
:107B00007878237441E71946EA69C8F8002092B9E9
:107B1000CDE90231114BDFF840C001209860019B94
:107B200089F80000CCF800204FF43C609847DDE96C
:107B30000231D8F80020C8690968D86100287FF4AC
:107B400058AF59E72946DFE7C8F800309A467FE684
:107B5000C8F800309A46CCE7F02900200010014018
:107B6000E129002000E100E0A02E03002DE9F84308
:107B70001F4D204E204FDFF898804FF480334FF494
:107B800000324FF001090024C6F8802047EA0907B7
:107B9000C5F848334FF43C60C5F80833C5F8049085
:107BA000B847C5F808904FF43C60C8F80040B847A3
:107BB000124A134B13491C601470134B134A0C7078
:107BC0000B2114701C8099704FF48012E023C6F8CA
:107BD000802186F814333260C5F8084586F81133E1
:107BE000D5F80435C8F800302046BDE8F88300BF5A
:107BF0000010014000E100E0A02E0300E129002078
:107C0000F4290020EC290020D4280020ED290020B0
:107C1000F0290020074B9B784BB132B128B10368A3
:107C2000187C20B959745A617047072070470820A2
:107C3000704700BFD42800202DE9F047264CA378D8
:107C400082B0002B3CD000283AD004293CD94369AB
:107C5000002B35D0814602A899F811300026012B5F
:107C600000F8016D0CBF8846B04617468A4600F002
:107C700073F86378A17822789DF807005D1CEDB257
:107C8000A94208BF3546AA4222D003EB430304EBC6
:107C9000C3030121114AC3F808901971D2F80425D1
:107CA0006570C3E9032AC3E9058700F07BF80C4B34
:107CB0004FF480123046C3F8002102B0BDE8F087CF
:107CC000082002B0BDE8F087072002B0BDE8F087C9
:107CD00000F068F80420F0E7D428002000100140EC
:107CE00000E100E0F0B51A4CA37883B043B338B399
:107CF00043692BB3064602A8002500F8015D3574E0
:107D000000F02AF86278A77821789DF80700531CC4
:107D1000DBB29F4208BF2B46994214D002EB4202CD
:107D200004EBC202022196601171637000F03AF810
:107D3000084B4FF480122846C3F8002103B0F0BD71
:107D4000082003B0F0BD00F02DF80420F9E700BFD3
:107D5000D428002000E100E070B4EFF3108472B684
:107D60000D4B9A68AAB90D490D4E01259D60D1F8B9
:107D7000805035401D60C1F88060D1F884505D604E
:107D80004FF0FF33C1F88430027004B962B670BCA2
:107D9000704701230370F8E77432002000E100E02F
:107DA000FC06FFBD094B9A687AB170B910B4EFF3C5
:107DB000108172B6064A1C6814605C685460986052
:107DC00001B962B65DF8044B704770477432002009
:107DD00000E100E0F0B443681BB1384AD468A34224
:107DE00046D20023364F0B807A684FF0010C02F523
:107DF00080544FF6FF76083294420ED8BCF1020F41
:107E0000A1F800C007F1140754D07A6802F5805435
:107E1000083294424FF0020CF0D913680133EDD0D0
:107E20005388033302EB83039C42E7D39588B54222
:107E30000AD0158845B1956803689D4211D05388D2
:107E4000033302EB8302D7E79C42D7D91A68013289
:107E50001A46D3D05D88033503EB85039C42E5D2F7
:107E6000CCE7184B42601B8903810120F0BC7047AE
:107E700012699342B5D813F00305B2D1114A0489AF
:107E800012899442ADD104689A689442A9D10C48F1
:107E90004268934203D902F58052934207D3826924
:107EA000934207D902F58052934203D201250D80F7
:107EB0000120DBE70020F0BC704700BF2C2300202E
:107EC000382A00201C2A0020F0B5334C334DB4F87A
:107ED00002C062684FEA8C0606EB0C0305EB8303D5
:107EE00083B0596801F58050002A52D0538803337B
:107EF00002EB8302904213D8664405EB8605EB68DB
:107F0000002B3DD0264B2748196802229A80052570
:107F100000230122257003B0BDE8F04002F0C8B88C
:107F200013680133E8D05388033302EB83038342A1
:107F3000E2D84FF6FF7E9788774514D0178897B11F
:107F400062605388164D1748AE88296803330025B0
:107F50009BB200959B0001EB86010325257002F082
:107F600013F803B0F0BD9842C6D91A6801321A4618
:107F7000C2D05F88033703EB87039842DBD2BBE7AD
:107F8000084804250122257003B0BDE8F04002F046
:107F90008FB801F10802ADE71C2A0020382A002022
:107FA000F02A00202C2300202DE9F04FAC4E89B0A0
:107FB00004464FF6FF773568002D00F0D9802A7807
:107FC000531E052B67D8DFE803F05931311D1D031F
:107FD000002C40F0C380DFF8B0C29CF80C209CF865
:107FE0000030002A00F05281013B8CF80C40062B37
:107FF00051D8DFE813F0E703F8020302D80150007C
:10800000FB02C802002C40F0A9802B79012B00F064
:108010004A81C0F0DE800DF10C08022B0394C8E900
:108020000244C8F810403ED120463DE0B5F8149017
:10803000AB7D002C00F0A380022BEA8840F2C480C4
:108040004FEA8904DFF8388204EB090108EB81016B
:10805000D31C0A8913440B81EA884C4408EB84043E
:108060000DF10C086389033B9B1A00226381C8F859
:1080700008200392C8E90322012015E0002C40F0FB
:1080800097802B79032B00F2DF80DFE813F080016B
:108090003D015501600100230DF10C08C8E90333CF
:1080A000C8F8083003930F2004902B78023B042B70
:1080B0000AD8DFE803F0472F2303430004238DF899
:1080C0000C30EB88ADF81830664C04F1100554F80C
:1080D000043B404603B19847A542F8D16249634842
:1080E0000024346001F05EFA0121614801F012FBC6
:1080F00000287FF460AF09B0BDE8F08F03238DF84E
:108100000C30EB88ADF818302B89ADF81A30EB68DD
:108110000593D9E702238DF80C302B89ADF8183080
:10812000AB88ADF81A30EB680593AB7DA3F106037D
:10813000B3FA83F35B098DF81C30C5E705238DF88E
:108140000C30C1E701238DF80C302B89ADF81830C5
:10815000AB88ADF81A30EB680593B5E70DF10C0864
:108160000023C8F808300393C8E9033301209BE7D4
:108170003D493E4801F0E8F9054630601FE74FEA07
:108180008904DFF8FC8004EB090108EB8101B1F8F8
:1081900008A0496801EB8A0A062B00F2B682DFE8E4
:1081A00013F0CC019301A501B80141016C018601D6
:1081B0000DF10C082F4A002353600393C8E90233E2
:1081C000C8F8103001206FE7DFF8B4804FEA890467
:1081D00043E702232B71CDE904440DF10C08EB6851
:1081E000039340460DF10A01FFF7F4FD002800F06B
:1081F000C1810499204A8B88EB800B882B811F4812
:1082000000940423BDF80A4001F0BEFE002840F0AF
:10821000DE821B4B04EB840403EB840401232374F0
:1082200069E701239A001A4408EB82030020596889
:108230000090082308F82200124A104801F0A4FE1A
:1082400000283FF458AF35680A4A0DF10C080023A6
:1082500053600393C8E90233C8F810300E2023E7B7
:10826000342A0020042A00202C2A00204422002046
:10827000EC2A0020142A0020A82E03002C23002022
:10828000382A0020AC2E03001C2A0020072B00F205
:108290008382DFE813F0FA01810281029D01E60189
:1082A00078017801C001BF4B1B78002B00F053818F
:1082B000DFF8F4E2BEF80490B9F1010F15D8DFF849
:1082C0000C8309EB890208EB8202043212F8043CA9
:1082D000002B00F0088209F1010399B201299946A7
:1082E000AEF8043002F11402F0D90DF10C080822A6
:1082F0000021AD480AF02CFA0020C8F808000390CD
:10830000C8E903003568CFE6DFF8C08298F800308E
:10831000022B00F0688298F81430022B81D0A14B18
:108320000DF10C08002001221A7003905860C8E972
:108330000200C8F81000B7E69C4A9D481168002367
:1083400002242B719480012201F0B2FE78E7974C51
:10835000984A21689648DFF874824FF0000985F842
:1083600004900823CDF8009001F00EFE924B256892
:108370005B88A18803EB830308EB830208F8239052
:1083800053682360022355601181A38058E7874B0F
:108390008A4A1968864801232B7100230093082319
:1083A00001F0F2FD4CE7BCF80230DFF8208203EB6D
:1083B000830308EB8308D8F80C30002B00F0DC8135
:1083C0007A4B7B48196802229A8005228CF800209B
:1083D0000023012201F06CFE00283FF48CAE0DF169
:1083E0000C08002341F61D523568C8F80830039385
:1083F000C8E90333904208BF184655E6DCF804206C
:108400006A48538884880168694801EB8401033312
:10841000002400949BB203249B008CF8004001F0E0
:10842000B3FDD9E7664BAA6966491A604FF0000BA5
:108430001846C3F804B0FFF7CDFC002800F0CA814D
:108440000223AB7504235146CDF800B0EA18584812
:1084500001F09AFD00283FF44EAEAB7DEA88022B76
:108460004FF00E0026D84C4408EB8408B8F80A30C8
:10847000033B9B1AA8F80A30B1E7524B504AB3F8B5
:1084800000A051684A48504A00234FF0060C85F876
:1084900016C00093042301F077FD0028DDD10AEB1C
:1084A0008A0A08EB8A08012388F8103023E6EA8854
:1084B00041F61D5004EB090108EB8101D31C0A8928
:1084C00013440B81EA88CEE7032A0CBF0523062359
:1084D0000022AB750AF104010092042305F10802A1
:1084E000334801F051FD0028B7D104E62B6930482C
:1084F000002B14BF032301230022AB750AF10801EE
:108500000092042305F10C0201F03EFD0028A4D1E5
:10851000F1E5EB882A6926484FF0010C85F816C072
:108520004FF0000C0AF10C019B00CDF800C001F0E7
:108530002BFD00283FF4DFAD8FE702230022AB754F
:10854000042300925146EA18194801F01DFD002845
:108550003FF4D1AD81E70DF10C0808222146124805
:108560000AF0F6F80394C8E90244C8F810403568E8
:10857000022099E50A200023C8E90033C8E9023344
:10858000C8F8103090E5094B0C4A196808480023D8
:108590000093CCF8043007238CF80030082301F056
:1085A000F3FC19E7142A0020002B0020F02A0020F9
:1085B0002C230020AC2E03001C2A0020B42E030024
:1085C000F8290020FC2A0020A82E0300382A0020C9
:1085D000884ADCF804109388498803330B4402214D
:1085E00093808CF80010FFF76FFCF5E6BCF80220D2
:1085F000DFF810829300134408EB83080620002361
:10860000D8F804107C4A00938CF8000008237B48BB
:1086100001F0BAFCE0E601238CF800309CF80A3047
:108620004BB1DFF8E081D8F80C3000228CF80A203A
:10863000002B00F0AB809CF80B30002B43D0DFF810
:10864000C481D8F8203000228CF80B20002B3AD1BE
:1086500098F82430BBB30123ACF80230FFF734FCA8
:10866000BAE6BCF80220DFF89C81624C93009918AE
:1086700008EB810120684D68B4F804E048600220EE
:108680002560A1F808E0A080B5E7DFF87881BCF8A4
:10869000081098F8142098F80030B2FA82F25209C3
:1086A0000131B3FA83F35B098CF80B20ACF80810A6
:1086B000002201218CF80A30ACF802208CF80C2042
:1086C0008CF80010ACE70DF10C080020C8F8080089
:1086D0008CF80000ACF80200CCF804000390C8E964
:1086E00003003568E0E41368DEF8001003F5805CF1
:1086F00003F1080A002968D04B88033301EB83019A
:108700008C4505D8CEF80040E5E5EA880F20D1E693
:108710000B680133F6D04B88033301EB83039C4590
:10872000F0D38888B8421AD0B1F800B0BBF1000F7E
:1087300015D0EB88CEF800108342DBD100230093E4
:108740002F4A2E48042301F01FFC00284DD109EBCD
:10875000890908EB8908012388F81030CBE49C458F
:10876000D0D9196801311946CCD05888033003EBB1
:1087700080039C45D5D2C5E704228CF80020D8F8A8
:1087800004101E48012201F093FC25E698F8102001
:10879000002A3FF450AF5FE7013B062B3FF67BAC6E
:1087A00001A252F823F000BFC5870200E78502004E
:1087B000FD830200A783020097800200ED8502007E
:1087C000878502009CF80A302AE7514698E7356809
:1087D0000E20D0E60DF10C080390C8E90200C8F89D
:1087E00010000A2060E400231CE535680E200DF11E
:1087F0000C08C0E6F02A0020AC2E03002C23002039
:10880000A82E0300382A00204068FFF7CDBB00BF28
:1088100038B5084B1A68042A0AD01D68064C02466F
:108820000121184644F8252000F068FF002038BDDB
:108830000C2038BDF82A0020042A00202DE9F04F32
:10884000A34C8BB022780023CDE90533CDE9073363
:10885000099372B19F4C04F1100554F8043B05A82C
:1088600003B19847A542F8D1002528460BB0BDE8D2
:10887000F08F201D02F0FF0600F058FF0746002889
:10888000F2D14FF010234FF080525B6911695269A9
:10889000DFF86482581C08BF02FB01F3C8F81030EF
:1088A0008D49A3F5405340460022C8F80C3001F032
:1088B00041FB05460028D8D11C238C2287498848D3
:1088C000DFF838A200F0CAFDD8F80C90DFF830824B
:1088D000029609F5405348464FF0030B2A46994645
:1088E000002800F0998003687E498B4240F0948014
:1088F00043687D498B4200F0058101318B4240F095
:108900008B80029B63B102EB820C08EB8C01022688
:108910000132DAF8003008F82C6092B24B600E8118
:108920008168CAF800004FF0020C0131AAF804C0B7
:1089300000F5805300F108062CD04189033106EB85
:1089400081008342C0F0A58060464FF6FF7E019211
:10895000B6F804C0F4450FD0B6F800C0BCF1000F63
:108960000AD0624AD6F808C01268944504D95F4A12
:10897000C2F800C071880331084480B2AAF804002C
:108980007188033106EB8106B34277D80228019A39
:1089900040F01F8104210F4399451846A0D1BBF137
:1089A000010F7CD9FFB2022F79D0062F00F0818011
:1089B000002F74D004A94A4800F08AFD1C22044606
:1089C000002109F0C5FE002C00F001810123013FC8
:1089D00023700A2F09D8DFE807F0190819081608CC
:1089E00016081C061C000223237104A93C4800F051
:1089F0009BFD01213E4800F075FE00287FF434AF56
:108A0000FFF7D2FA31E701232371EEE70023237148
:108A1000EBE703232371E8E700F58053014601E00B
:108A20008B4214D00E68013601F10401F8D002EB3C
:108A3000820108EB81060BF1FF3B01324FF0030C82
:108A40001FFA8BFB92B208F821C07060A4E7DAF835
:108A5000001031B3274E02EB820108EB810C7280CB
:108A6000022602F1010E08F821601FFA8EF2CCF8FE
:108A70000400ACF8086047F001078DE73168013168
:108A800084D07188033106EB810C6345BFF460AF7D
:108A9000019A4FF48061AAF8041008217BE70B25A6
:108AA000E3E60221AAF804100121CAF800000291AD
:108AB000E1E7084D01220023227005F110066360F2
:108AC00055F8043B05A803B19847AE42F8D1CBE670
:108AD000142A0020042A0020D8300300602A002035
:108AE00044220020DEC0ADDEFE011EF1302A00204F
:108AF000EC2A00201C2A00202C230020F02A002031
:108B0000382A002093000393134408EB830C0021C0
:108B100008F823104FF00203ACF80830CCF804003A
:108B20008668013600F5805300F1080140D0408985
:108B300000F1030E01EB8E0E73452FD30226019236
:108B4000E646B1F804C04FF6FF72944537D0B1F84D
:108B500000C0BCF1000F32D01F4AD1F808C0126823
:108B6000944505D91C4ABEF80860C2F800C0488880
:108B700006440336B6B2AEF808604888033001EB0D
:108B800080018B4219D90868013016D0488800F15D
:108B9000030C01EB8C0C6345D3D2019A0399114469
:108BA00008EB81014FF480604FF001060E740881DC
:108BB000013292B247F00207EEE6019AF8E74FF071
:108BC00001028EF810204888BEF80860D0E708251A
:108BD0004BE60821DFE600BF302A002008B301B3CE
:108BE00070B582B00C460DF106010546FFF7F2F8AC
:108BF000A0B1BDF806000C4B6E6800EB800003EBE3
:108C0000800001210C3000F079FD26606B680122A4
:108C10000C3300206360AA7202B070BD0A2002B05B
:108C200070BD0520704700BF382A0020E8B110B59C
:108C300082B00DF106010446FFF7CCF890B1BDF803
:108C400006300C4A03EB830302EB8303DA6872B14C
:108C5000A27A62B1DA680021013A0846DA60A172AC
:108C600002B010BD0A2002B010BD052070470620DA
:108C700002B010BD382A00201E4B1B78C3B1D0B102
:108C8000CB1C9BB240F2FD32934222D8F0B41A4A78
:108C900016783EB9558914892C441C44A4B2B4F505
:108CA000806F19D3147D4CB107231846F0BC704770
:108CB000022318467047052318467047D58B948BBE
:108CC0002C441C44A4B2B4F5806FEDD20126374683
:108CD00003E00923184670473746BC003C4402EBCA
:108CE00084022B4453810680418000231846F0BC47
:108CF000704700BF142A0020382A0020134B1A782E
:108D0000D2B1034600B30288022A17D810B4104823
:108D1000598802EB820200EB82028C1C508984424B
:108D20000EDAC1F57F41FD310024014451811C6000
:108D300020465DF8044B70470220704704207047BE
:108D400004205DF8044B704705207047142A00206A
:108D5000382A0020484B1B78002B32D0002934D011
:108D60000A884FF6FF739A4229D04B883BB34B6871
:108D70009B072CD12DE9F043B1F8088008F10303DB
:108D80009BB240F2FD32934283B01CD83B4A177825
:108D90003FB95689148934441C44A4B2B4F5806F99
:108DA00017D3147D3CB9D68B948B34441C44A4B2A5
:108DB000B4F5806F5DD3072003B0BDE8F0830420D5
:108DC0007047022070470920F6E70520704703200E
:108DD0007047BC464FEA8C09E14402EB89093344F1
:108DE0000C46054601A92648A9F80A3000F070FB98
:108DF0001C220646002109F0ABFC5EB302234FF0B3
:108E00000009B782337086F81690636833610121D8
:108E10001C4800F073FCF060238833816388B380C2
:108E200001A9A6F80A90A6F80680154800F07CFB78
:108E300045B1C5F80490F268134B2A601B8985F888
:108E40000A902B810121114800F04CFC044660B1CE
:108E50000020B1E7B9F80A30C8F57F4808F1FD08ED
:108E60009844A9F80A800820A6E7FFF79DF8204655
:108E7000A2E70127BC46ADE7142A0020382A0020CB
:108E800044220020302A00201C2A0020EC2A002046
:108E9000002A50D0364B1B78002B4AD000294AD0EC
:108EA0002DE9F0430C884FF6FF739C4283B046D007
:108EB0004B88002B43D04F6817F003073DD10C4679
:108EC000064601A92B48B2F80090B2F8028000F0E3
:108ED000FFFA1C220546394609F03AFC002D32D033
:108EE0000223AF75A5F814902B7063682B610121E4
:108EF000214800F003FCE86023882B816388AB8065
:108F000001A9A5F806806F811A4800F00DFB36B163
:108F10007760EA68194B32601B89B772338101218F
:108F2000174800F0DFFB0446E8B1002003B0BDE8BD
:108F3000F08302207047052070470320F6E70420E5
:108F400003B0BDE8F0830F4B09EB890903EB8909F6
:108F5000C8F57F48B9F80A3008F1FD089844A9F827
:108F60000A800820E2E7FFF71FF82046DEE700BF8F
:108F7000142A002044220020302A00201C2A00202D
:108F8000EC2A0020382A0020002836D0484B1B78D5
:108F9000002B30D0002930D00A884FF6FF739A4258
:108FA0002FD04B886BB34B689B0728D12DE9F0433A
:108FB000B1F8089009F103039BB240F2FD329342ED
:108FC00083B020D83B4A15783DB9578914893C4471
:108FD0001C44A4B2B4F5806F17D3147D3CB9D78B71
:108FE000948B3C441C44A4B2B4F5806F5BD307203F
:108FF00003B0BDE8F08302207047052070470320CE
:109000007047042070470920F2E7A846AC464FEAB3
:109010008C05654402EB85053B4406460C46264814
:109020006B8101A900F054FA1C220746002109F0C7
:109030008FFB57B300250323A7F814803B70BD7541
:1090400063683B6101211D4800F058FBF8602388EC
:109050003B816388BB800423A7F80690BB75336807
:10906000BB6101A97D81144800F05EFA7560FA6861
:10907000134B32601B89B57233810121114800F016
:1090800031FB044658B12846B2E76B89C9F57F49E0
:1090900009F1FD099944A5F80A900820A8E7FEF710
:1090A00083FF2046A4E74FF00108C446AFE700BFA6
:1090B000142A0020382A002044220020302A0020D0
:1090C0001C2A0020EC2A0020184B1B7823B34FF6F3
:1090D000FF7398421ED070B582B001A904461448AF
:1090E00000F0F6F91C220546002109F031FBADB174
:1090F00005230126EC8001A92B702E710C4800F08D
:1091000013FA31460B4800F0EDFA044648B100204E
:1091100002B070BD0420704702207047082002B0E2
:1091200070BDFEF741FF204602B070BD142A00203A
:1091300044220020EC2A0020194B1B78EBB110B51B
:1091400082B001A9174800F0C3F91C22044600218F
:1091500009F0FEFA0CB30623237001A9114800F0B0
:10916000E3F9114B1A7852B90121104800F0BAFA0C
:10917000044668B1002002B010BD022070470122F1
:1091800001210A481A7300F0ADFA04460028F1D113
:10919000FEF70AFF204602B010BD082002B010BD45
:1091A000142A0020442200201C2A0020EC2A00203F
:1091B0002DE9F043344C2478002C60D03AB333B31B
:1091C0009F88012F5ED8314C07EB870C013704EBE9
:1091D0008C0CBFB24FF6FF7E4FF000089CF80040A9
:1091E00074B91C68DCF8045005F58056002C43D097
:1091F0006588033504EB8504B4420BD3C3F80080C3
:10920000022F9F800CF1140C3CD00227E6E70520CA
:10921000BDE8F08325680135F0D06588033504EB9F
:109220008505AE42EAD3B4F80490F14515D0B4F800
:109230000090B9F1000F10D01C60A5888542D1D1F3
:1092400025888D42CED1A16811601968104B5160FC
:109250001B8913810020BDE8F083AE42CED92C6873
:1092600001342C46CAD0B5F8029009F1030905EB88
:109270008905AE42D7D2C1E705F10804BCE7022058
:10928000BDE8F0830A20C3E7142A0020382A002012
:109290001C2A0020334B1B78002B5CD051B34AB3FF
:1092A0002DE9F0419588012D5AD82F4F05EB850304
:1092B00007EB830701353B78ADB24FF6FF7C4FF0EB
:1092C000000E43B1022D958007F1140748D03B787A
:1092D0000225002BF6D113687C6804F58056002B1C
:1092E0003BD05C88033403EB8403B34204D3C2F85D
:1092F00000E0E7E7052070471C680134F7D05C8880
:10930000033403EB8404A642F1D3B3F80480E045B0
:1093100012D0B3F80080B8F1000F0DD013601C8894
:109320008442D9D19B680B601268104B4A601B893C
:109330000B810020BDE8F081A642D8D92368013313
:109340002346D4D0B4F8028008F1030804EB880463
:10935000A642DAD2CBE70220704704F10803C4E743
:109360000A20E7E7142A0020382A00201C2A0020BF
:10937000334B1B78002B5CD051B34AB32DE9F0413D
:109380009588012D5AD82F4F05EB850307EB8307EE
:1093900001353B78ADB24FF6FF7C4FF0000E43B184
:1093A000022D958007F1140748D03B780225002B49
:1093B000F6D113687C6804F58056002B3BD05C889E
:1093C000033403EB8403B34204D3C2F800E0E7E7BD
:1093D000052070471C680134F7D05C88033403EB28
:1093E0008404A642F1D3B3F80480E04512D0B3F868
:1093F0000080B8F1000F0DD013609C888442D9D151
:109400009B680B601268104B4A601B890B8100201F
:10941000BDE8F081A642D8D9236801332346D4D0D1
:10942000B4F8028008F1030804EB8804A642DAD2FB
:10943000CBE70220704704F10803C4E70A20E7E7FE
:10944000142A0020382A00201C2A002020B119B13B
:1094500003680B60002070470520704799B110B475
:10946000B2FBF3F403FB1424A4B244B9C0E9001422
:1094700084608281C38120465DF8044B70470920D7
:109480005DF8044B70470E20704700BF82B050E873
:10949000022FC188B2EB324F4FF0000317BF92B2D8
:1094A00041EA014142EA014104E04268B2EB324F35
:1094B00008BF012340E80212002AE8D18DF80730E6
:1094C0009DF80730002B0CBF1120002002B0704720
:1094D00030B482B050E8013F9DB2C48925448489EC
:1094E000A54228BF2D1B0489A54202BFBFF32F8FC1
:1094F000002207E0C5EA030540E80154002CE9D149
:109500004FF001028DF803200193019B9DF8032089
:109510000B602AB10B880068184402B030BC704759
:1095200002F0FF031846F8E70A884B889A4201D0F8
:109530000020704750E8012FC2EA024240E80123B0
:10954000002BF7D10120704730B482B050E8023FC1
:109550001FFAA3F5C488A54202BFBFF32F8F0022D4
:109560000DE0C48925448489A54228BF2D1BC3EA88
:10957000054540E80254002CE8D14FF001028DF877
:1095800003200193019B9DF803200B602AB14B88B7
:109590000068184402B030BC704702F0FF03184660
:1095A000F8E700BF0A884B889A4201D00020704734
:1095B00050E8022FC2EA224240E80223002BF7D1F2
:1095C0000120704701F01F024B09012100EB8300CD
:1095D000914000F06FB800BF01F01F02012349095C
:1095E000934000EB8100D94300F070B84B0901F0C3
:1095F0001F0150F82300C84000F00100704700BF71
:109600002DE9F84F01F1FF394FEA591300F1040930
:109610000F46064609EB8309044600254FF0010872
:1096200023686FEA030B9BFAABFBBBFA8BFBBBF126
:10963000200F20D0AB445F450CD81CE02368DB43EF
:1096400093FAA3F3B3FA83F3202B05EB030B12D0A9
:109650005F4510D90BF01F0A4FEA5B1008FA0AF1B8
:1096600006EB800000F01AF820FA0AF0C307E5D4F0
:109670005846BDE8F88F04344C4505F12005CFD19C
:10968000BB465846BDE8F88F50E8002F0B4640E82F
:10969000003C9CF0000FF7D11046704750E8002FB7
:1096A00042EA010340E8003C9CF0000FF6D110466E
:1096B000704700BF50E8003F43EA010240E8002C39
:1096C0009CF0000FF6D11046704700BF50E8003FF5
:1096D00003EA010240E8002C9CF0000FF6D110468E
:1096E000704700BF50E8002F02EB010340E8003C48
:1096F0009CF0000FF6D11046704700BF50E8003FC5
:1097000003EB010240E8002C9CF0000FF6D110465C
:10971000704700BF50E8003FA3EB010240E8002C77
:109720009CF0000FF6D11046704700BF012350E8AF
:1097300000CF4CEA030240E8002191F0000FF6D17F
:1097400060467047012350E8002F42EA030C40E8CE
:1097500000C191F0000FF6D160467047002350E839
:1097600000CF0CEA030240E8002191F0000FF6D18F
:1097700060467047B8B130B4D0E90112521A04689B
:10978000D2B2531E2160DBB242B101680A685C1E8E
:10979000551C0D601370E3B2FF2BF6D10368002057
:1097A000187130BC70470E20704700BFF0B583B011
:1097B00002AB002503F8015D04461846FEF7CCFA1B
:1097C000D4E900311A688A4210D9511E1960216803
:1097D000A3680F6812F8015C0A79A68AE068DB1BAF
:1097E000DBB29A4206FB050538BF0B719DF80700F6
:1097F000FEF7D8FA284603B0F0BD00BF30B583B0FD
:1098000002AB002203F8012D054618460C46FEF770
:10981000A3FA2A681368591C1160E968AA8A641AB5
:10982000B4FBF2F41C709DF80700FEF7BBFA03B01E
:1098300030BD00BF826842B110B50446436901687B
:10984000006998470023A36010BD70470EB400B5AF
:1098500082B0039929B102AA04AB42F8043D00F09A
:109860008BF802B05DF804EB03B070472DE9F84FB8
:1098700088469045174605461E46DDE90AB175D370
:1098800043464FF00109B3FBF7F39F4209F1010989
:10989000F9D9B14538BFB14611F0010AAA6802D121
:1098A000BBF1000F43D1012402E0013E07FB04F4A9
:1098B000012EFAD8B8FBF4F18F42F7D92D4E05E00E
:1098C000B4FBF7F4A4B1B8FBF4F1AA68705C531CC4
:1098D000AB602B689854D5E901329A4204FB118899
:1098E000EED32846FFF7A6FFB4FBF7F4002CEAD12D
:1098F000BAF1000F15D0BBF1000F12D0CB4510D933
:109900002024AB682A68591CA960D454D5E90132D7
:109910009A420BF1FF3B06D2BBF1000F01D0CB45C1
:10992000EFD1BDE8F88F2846FFF784FFF4E78B07F7
:1099300017D42024CB45B6D92B68511CA9609C5460
:10994000D5E901329A420BF1FF3B05D2BBF1000F82
:10995000A9D0CB45F0D1A6E72846FFF76BFFAA6850
:10996000F4E7002E0CBF30242024E3E74FF0010978
:109970008FE700BFCC2E0300002900F0F4812DE911
:10998000F04F054685B092460C460B78DFF8A0B53F
:1099900001E0237893B1013483B1252B15D0AA6857
:1099A0002968501CA8608B54D5E901329A42F0D343
:1099B0002846FFF73FFF2378002BECD12B7B002BB1
:1099C00040F0148105B0BDE8F08F2146002711F862
:1099D000012B2D2A00F0E180302A00F0E2802B2AB2
:1099E00000F0D2802A2A00F0E080A2F13006F3B223
:1099F000092B03D9B8E1A3F130060146084606EB6E
:109A0000860310F8012BA2F13004092C02EB43036A
:109A1000F1D92E2A00F0D5800023013101E011F8A0
:109A2000012B02F0FB0068280C46F8D0253A532A97
:109A3000AFD801A151F822F0F99B020093990200DE
:109A4000939902009399020093990200939902005E
:109A5000939902009399020093990200939902004E
:109A6000939902009399020093990200939902003E
:109A7000939902009399020093990200939902002E
:109A8000939902009399020093990200939902001E
:109A9000939902009399020093990200939902000E
:109AA00093990200939902009399020093990200FE
:109AB00093990200939902009399020093990200EE
:109AC00093990200939902009399020093990200DE
:109AD00093990200939902009399020093990200CE
:109AE00093990200939902009399020093990200BE
:109AF00093990200939902009399020093990200AE
:109B000093990200139C020093990200939902001A
:109B1000939902009399020093990200939902008D
:109B2000939902009399020093990200939902007D
:109B30002D9C02004F9C0200939902009399020011
:109B400093990200939902004F9C0200939902009E
:109B5000939902009399020093990200939902004D
:109B6000939902009F9C020093990200939902002E
:109B7000139D0200939902004D9D020093990200EB
:109B800093990200139C020047F004070C462146FB
:109B900011F8012B2D2A7FF41FAF47F001070C4667
:109BA000F5E747F002070C46F1E7DAF800301A1D36
:109BB000CAF8002062781E682E2A04F102007FF4A1
:109BC0002BAF4A78A2F13003092B00F25081002319
:109BD00003EB830302EB430310F8012FA2F13001E2
:109BE0000929A3F13003F3D9014616E7284605B049
:109BF000BDE8F04FFFF71EBEAB682A68591CA9608C
:109C00004FF02501D154D5E901329A42FFF4C1AE9B
:109C1000CEE6DAF80020111DCAF8001011682846B7
:109C2000CDE900671022FFF721FEB2E6DAF8002046
:109C3000131DCAF80030AB6829681278581CA86058
:109C4000CA54D5E901329A42FFF4A3AEB0E6DAF87D
:109C50000020111DCAF80010D2F8008088EAE872CE
:109C6000A2EBE872092A4FF0010107DDAF48A0FB23
:109C70000202D208092A01F10101F7DC994238BF3A
:109C80001946894607F00202002E71D12AB1002B35
:109C900000F04781FA0700F18D8000268AE0DAF8AB
:109CA0000020131DCAF80030AB6829681768581CDB
:109CB0003022A860CA54D5E90123934280F028815C
:109CC0002A68581C7821A860D154D5E90123934211
:109CD00080F019810F2F03D93A4612090F2AFCD8B8
:109CE0004FF0805603E036093FF453AEAB68296865
:109CF000B7FBF6F2581CA8601BF80200C854D5E95F
:109D00000131994206FB1277EDD32846FFF792FD09
:109D1000E9E7DAF800301A1DCAF80020D3F800800D
:109D2000FB077ED54746A7EB080917F8013B002B38
:109D30005DD0AA682968501CA8608B54D5E901320F
:109D40009A42F0D32846FFF775FDECE7DAF80020D9
:109D5000111DCAF8001011682846CDE900670A22D3
:109D6000FFF784FD15E6704708460026214650E6B9
:109D7000B8F1000F01DB780700D5013E02B1CBB18D
:109D8000F90717D4002E88D0B14513D220220393AF
:109D9000A9682B68481CA8605A54D5E9013199423A
:109DA00006F1FF365DD2002E00F0BD80B145EFD147
:109DB000039B4E46B8F1000FC0F292807A070AD595
:109DC000A9684A1CAA602A682B205054D5E90121B1
:109DD000914280F0928007F00302022A5FD0CDE921
:109DE000006741460A222846FFF740FDD1E54E456F
:109DF0007FF6CFAD202705E04E453FF4CAAD002EDB
:109E00003FF4C7ADAB682A68591CA960D754D5E99F
:109E100001329A4206F1FF36EED32846FFF70AFDDB
:109E2000EAE7B8F1000F24D0404608F0E9FC074605
:109E3000BE4220D9FEB14FF0200902E0BE421AD046
:109E4000CEB1AB682A68591CA96002F80390D5E925
:109E500001329A4206F1FF36F0D32846FFF7EAFCBA
:109E6000ECE728460292FFF7E5FC029A9BE70146E1
:109E7000D2E54746DCE708F1FF3818F8013F002B30
:109E80003FF487ADAA682968501CA8608B54D5E9B7
:109E900001329A42F1D32846FFF7CCFCEDE7002BC4
:109EA0009DD1002E3BD0B14599D2029323464C461A
:109EB0009946AA682B68501C4FF03001A86099544D
:109EC000D5E901329A4206F1FF3605D22EB3B442EB
:109ED000EFD1029B4C4682E72846FFF7ABFCF5E743
:109EE000A9684A1CAA602A682D205054D5E901218E
:109EF0009142C8F10008FFF46EAF28460293FFF7C5
:109F000099FC029B67E72846FFF794FCAB68E1E603
:109F10002846FFF78FFCAB68D2E6029B4C46002632
:109F20005DE71E4646E7039BB7E600BFCDCCCCCC31
:109F3000CC2E030010B582B038B1A9B101600B6816
:109F4000114602B0BDE8104018470A4A0A4B108873
:109F50000A4A0B490E24000440F001000094FCF76B
:109F600069FE0E2002B010BD024A034B1088054A5C
:109F7000EFE700BF18230020DC2E0300902F030022
:109F8000982F0300C42F03002DE9F04182B0002870
:109F900050D0002A5ED0D0F800C0BCF1000F63D0D2
:109FA0001C46002B31D04768D7F80480B3FBF8F784
:109FB00008FB1737002F38D18F0721D112F0030F7C
:109FC0004DD1C768B9420FD22E4A2F4B10882F4A65
:109FD0002F491024000440F001000094FCF72AFEF1
:109FE000204602B0BDE8F0814E1E05693444AC4203
:109FF000EAD8DCF80C40A44602B0BDE8F041604766
:10A00000204A214B1088234AE2E71E4A1E4B108843
:10A01000214A1F490924000440F001000094FCF784
:10A0200009FE204602B0BDE8F081164A164B1088A2
:10A030001A4AEEE7134A144B1088194A14490E24A1
:10A04000000440F001000094FCF7F4FD204602B04B
:10A05000BDE8F0810B4A0C4B1088124AEEE7094A22
:10A06000094B1088104AB3E7064A074B1088084985
:10A070000E4A0824000440F001000094FCF7DAFDC9
:10A080002046AEE718230020F02E03009430030092
:10A09000982F030058300300D42F03002C30030006
:10A0A000902F0300243003007030030018300300A9
:10A0B000F0B583B000283FD0D0F800C0BCF1000F4D
:10A0C00048D02AB34768D7F800E00EF1FF370F42B7
:10A0D0002DD1C768B9420ED2254A264B1088264A90
:10A0E00026491024000440F001000094FCF7A2FD72
:10A0F000204603B0F0BD4D1E04690EFB0255A5427B
:10A10000EAD8DCF81040A44603B0BDE8F040604750
:10A11000174A184B10881949194A0924000440F0BD
:10A1200001000094FCF786FD204603B0F0BD104A04
:10A13000104B1088134AD3E70D4A0E4B10880F4975
:10A14000114A0E24000440F001000094FCF772FD57
:10A150002046CEE7064A074B108808490B4A0824D8
:10A16000000440F001000094FCF764FD2046C0E7C5
:10A1700018230020042F0300402F0300982F030012
:10A18000D42F0300182F0300902F03001830030072
:10A1900018B103680BB1DB69184770B50D4C0E4D53
:10A1A0000E4B2D1BA3FB05352D0910D005EB8505A6
:10A1B00004EB850501E0AC4209D023682046143445
:10A1C000002BF8D0DB6998470028F4D070BD002040
:10A1D00070BD00BF2C23002040230020CDCCCCCC70
:10A1E00029DF704728DF7047084670470020704716
:10A1F000024B187A003018BF01207047942B0020C2
:10A20000034B187A0122B0FA80F05A744009704763
:10A21000942B002008B510461A4608F0FFF90020DC
:10A2200008BD00BF08B514220021044808F090FAC8
:10A230000348FFF72BF9002008BD00BF942B002036
:10A240005822002010B5094C094B43602046FFF707
:10A250006DFA40B907F0E0FF1C2320748C220549F9
:10A260000548FFF7FBF8002010BD00BF942B00202D
:10A27000CC300300082B00205822002030B55E4C63
:10A28000237A87B0002B3AD05C4B1B6802222272E3
:10A290001A79002A3ED0012A0CD1D3E903021044D6
:10A2A000FFF7A0FF002849D0112803D10123237212
:10A2B00007B030BD19688A68C2B1002268460092B2
:10A2C000C0E902220325026101959A6805921A7974
:10A2D000002A4BD0012A07D102228DF80020DA682B
:10A2E000120302925B6904938B68984700234449E8
:10A2F000444823726360FFF755F907B030BD404909
:10A300004048FFF721F93D4A034610600028BDD1BF
:10A310006060F2E7D3E90525521BB2F5805F28BFE4
:10A320004FF48052D3E903109208012A38BF01226A
:10A3300029442844FFF754FF0028B5D1227C002A85
:10A34000DBD1227A002AD8D0022A0AD1E0601A7919
:10A35000DAB1012A05D1D3E9042101328A421A6116
:10A360001FD0637C73B107F047FFC6E701228DF869
:10A3700000201A690292DA6803925B6904938B6881
:10A380009847B3E7FFF77AFFB7E7D3E90512881AD2
:10A39000B0F5805F94BF121802F5805291429A6125
:10A3A000DFD10022227219688868A8B1684600923D
:10A3B000C0E90122C0E903229A6805921A7982B1A4
:10A3C000012A07D102228DF80020DA6812030292D6
:10A3D0005B6904938B68984709490A48FFF7E2F8DC
:10A3E000BFE701228DF800201A690292DA68039211
:10A3F0005B690493EEE700BF942B0020AC2B002098
:10A40000A82B0020582200202DE9F04782B0824678
:10A410008946174801A990461F46FFF759F810B31F
:10A42000044600211C220D46124E08F091F90A9BA9
:10A43000C4F800A0A360C4E90389676101A925717C
:10A440000B48FFF771F8301DFFF770F938B9747CCD
:10A4500034B9FFF713FF204602B0BDE8F087284665
:10A4600002B0BDE8F087042002B0BDE8F08700BF6D
:10A4700058220020942B00202DE9F04383B0814620
:10A480000D46164801A917469846FFF721F808B36C
:10A4900004461C22002108F05BF9114EC4F800901C
:10A4A00001232D0BC4E90285676101A923710B48C3
:10A4B000FFF73AF8301DFFF739F938B9747C34B931
:10A4C000FFF7DCFE204603B0BDE8F083002003B0B8
:10A4D000BDE8F083042003B0BDE8F08358220020DB
:10A4E000942B002000F0FD03012B00D0704730B505
:10A4F000604CA0F10100B0FA80F0237A40090022FC
:10A5000087B020746274002B3AD05B4B1B68022228
:10A5100022721A79002A3ED0012A0CD1D3E9030213
:10A520001044FFF75FFE002849D0112803D1012312
:10A53000237207B030BD19688A68C2B1002268462C
:10A540000092C0E902220325026101959A680592F2
:10A550001A79002A4BD0012A07D102228DF8002057
:10A56000DA68120302925B6904938B6898470023B0
:10A570004249434823726360FFF714F807B030BDC7
:10A580003E493F48FEF7E0FF3B4A03461060002883
:10A59000BDD16060F2E7D3E90525521BB2F5805FBB
:10A5A00028BF4FF48052D3E903109208012A38BF24
:10A5B000012229442844FFF713FE0028B5D1227C4C
:10A5C000002ADBD1227A002AD8D0022A0AD1E06000
:10A5D0001A79CAB1012A05D1D3E9042101328A428C
:10A5E0001A611DD0637C63B107F006FEC6E7012245
:10A5F0008DF800201A690292DA6803925B6904936D
:10A60000B3E7FFF73BFEB9E7D3E90512881AB0F5C7
:10A61000805F94BF121802F5805291429A61E1D195
:10A620000022227219688868A8B168460092C0E9C1
:10A630000122C0E903229A6805921A7982B1012A9F
:10A6400007D102228DF80020DA68120302925B69BA
:10A6500004938B68984709490948FEF7A3FFC1E7AF
:10A6600001228DF800201A690292DA6803925B6970
:10A670000493EEE7942B0020AC2B0020A82B0020A5
:10A6800058220020831E012B00D9704730B58E4C14
:10A69000237A87B0002B31D0022B2BD103286BD12A
:10A6A000E3680133082B79D9884B00221B68E260EC
:10A6B00022720D2519688A68C2B10022684600928C
:10A6C000C0E90222026101959A6805921A79002A6E
:10A6D00000F0B980012A07D102228DF80020DA6843
:10A6E000120302925B6904938B6898477849794812
:10A6F000FEF758FF637C1BB107F07EFD07B030BD4D
:10A70000237A002B5BD0714B1B68022222721A79CC
:10A71000002A5FD0012A0BD1D3E903021044FFF7CE
:10A7200061FD002869D0112802D101232372E5E7D9
:10A7300019688A68C2B1002268460092C0E9022204
:10A740000325026101959A6805921A79002A70D052
:10A75000012A07D102228DF80020DA681203029242
:10A760005B6904938B6898470023594959482372C1
:10A770006360FEF717FFC1E7544B00221B68E260DD
:10A780001A796AB1012AB5D1D3E9042101328A428A
:10A790001A6111D0637C002BAED1B4E7E360F9E716
:10A7A000D3E90512881AB0F5805F94BF121802F53C
:10A7B000805291429A61EDD1002525727AE7444991
:10A7C0004448FEF7C1FE414A0346106000289CD170
:10A7D000606093E7D3E90525521BB2F5805FD3E9AA
:10A7E000031028BF4FF480529208012A38BF01227B
:10A7F00029442844FFF7F4FC93E7227C002A7FF4E5
:10A800007DAF227A002A3FF479AF022A0AD1E060B4
:10A810001A7912B3012A05D1D3E9042101328A42FF
:10A820001A6126D0637C002B7FF466AFFFF726FD0C
:10A8300064E701228DF800201A690292DA68039217
:10A840005B6904938EE701228DF800201A69029259
:10A85000DA6803925B69049346E7D3E90512881A24
:10A86000B0F5805F94BF121802F5805291429A6150
:10A87000D8D10022227219688868A8B1684600926F
:10A88000C0E90122C0E903229A6805921A7982B1CF
:10A89000012A07D102228DF80020DA681203029201
:10A8A0005B6904938B68984709490A48FEF77AFE6A
:10A8B000B8E701228DF800201A690292DA68039243
:10A8C0005B690493EEE700BF942B0020AC2B0020C3
:10A8D000A82B002058220020FEF74CBF2DE9F041A4
:10A8E000858ACE1C043D2E440746B6FBF5F6FEF7DE
:10A8F0005DFF78B3F6B24FF48073013E0446C58025
:10A900000760838027D08046002509E06379AE4246
:10A9100003F101036371C8F80000076080461AD094
:10A920003846FEF743FF01350028EFD16679721EE5
:10A9300014D02346013082421B68FBD11F684EB100
:10A94000002523682146013538461C46FEF756FF90
:10A95000AE42F6D100242046BDE8F0812768EFE73B
:10A9600004300121FEF7CABEF8B5012104460430C7
:10A97000FEF7D0FEC0B200B1F8BD6679721E12D0EB
:10A980002346013082421B68FBD11F68002EF3D0A2
:10A99000002523682146013538461C46FEF72EFF68
:10A9A000AE42F6D1F8BD2768F2E700BF2DE9F843C3
:10A9B0000446181DE688B0FBF6F30F46904606FBEA
:10A9C000130013B1013B2468FCD1351A454528BF5B
:10A9D0004546B8F1000F15D04FF000090430A8EB40
:10A9E000050820442A4607EB090107F017FE4645F3
:10A9F000A944246835464FF0000028BF4546B8F109
:10AA0000000FEBD1BDE8F8832DE9F843C688043385
:10AA100004460F46B3FBF6F0904606FB103110B12A
:10AA200001382468FCD1751A454528BF4546B8F160
:10AA3000000F15D04FF0000904312144A8EB0508A0
:10AA40002A4607EB090007F0E9FD4645A9442468BA
:10AA500035464FF0000128BF4546B8F1000FEBD155
:10AA6000BDE8F88333DF704741DF7047234B1B7825
:10AA700003B9704770B501212148FEF705FEBFF309
:10AA80005F8F98B91F4D204C6B682E462BB90EE096
:10AA9000304600F0F5F86B684BB11B68207898479A
:10AAA0000028F5D1BFF35F8F154B186070BDFCF720
:10AAB00083F9FCF747F90028FBD12378023B012BEF
:10AAC0000BD907F0A9FBA8B94FF080430122C3F8C6
:10AAD0000025BFF34F8F20BFFDE7BFF34F8F0B491A
:10AAE0000B4BCA6802F4E0621343CB60BFF34F8F95
:10AAF00000BFFDE7FFF7B6FFE6E700BFDC2B002055
:10AB0000E02B0020B02B0020B82B002000ED00E04F
:10AB10000400FA050D490E4A08B500230B701360B6
:10AB2000BFF35F8F0B490C4800F0A0F80B4A0C48AC
:10AB30000121FDF76FF800B108BD02464FF4004156
:10AB40000848BDE80840FDF777B800BFDC2B0020BF
:10AB5000E02B00200C310300B02B00206DAA020076
:10AB600008310300BC2B002000B583B002A80023ED
:10AB700000F8013DFDF7F0F8F1EE103A23F09F03E5
:10AB8000E1EE103ABFF35F8F0A4B4022C3F88421F5
:10AB90009DF80700FDF706F907F03EFB28B920BF36
:10ABA00040BF20BF03B05DF804FBFFF75DFF03B0BB
:10ABB0005DF804FB00E100E0F8B5264D06460121F2
:10ABC0002846FEF761FDBFF35F8FD0B9042E2FD06A
:10ABD000214B1A7892B9214C012226701A70204E0E
:10ABE00073687BB1374604E0384600F049F8736873
:10ABF00043B11B68207898470028F5D1BFF35F8FD9
:10AC00002860F8BDFCF7D8F8FCF79CF80028FBD1C9
:10AC10002378023B012B0DD907F0FEFAB8B94FF0AB
:10AC200080430122C3F80025BFF34F8F20BFFDE70B
:10AC30000A4CD4E7BFF34F8F0A490B4BCA6802F4A2
:10AC4000E0621343CB60BFF34F8F00BFFDE7FFF718
:10AC500009FFE4E7E02B0020DC2B0020B82B0020CC
:10AC6000B02B002000ED00E00400FA0501600B6845
:10AC700043604A68934204BF00234360704700BFAB
:10AC8000436843B1026891680B4443605268934241
:10AC900004BF00234360704730B4184DA5F594728B
:10ACA000AB1ADB1003EBD3735B1002EBC30152F85A
:10ACB0003330984228BF0C4605D311E052F83330A8
:10ACC00098420CD221468B1ADB1003EBD3735B1036
:10ACD0008A4202EBC304F1D3094830BC70470D46E9
:10ACE000984204D904F10802AA42D9D3F4E7606873
:10ACF000034B002808BF1846EFE700BF603203008F
:10AD00002431030010B570B101280BD10D4C23691B
:10AD1000A0703BB1D3E90023012022619847236949
:10AD2000002BF7D110BD074CA36801226270002BE5
:10AD3000F8D0D3E900230020A2609847A368002B35
:10AD4000F7D1EFE7E42B002070B910B5074CA368EA
:10AD5000012262703BB1D3E900230020A260984732
:10AD6000A368002BF7D110BD704700BFE42B002073
:10AD700030B5012883B01CD015D3032811D100F0C1
:10AD8000CDF802A800231F4C00F8013DFCF7E4FFBA
:10AD9000E368013BE360E56865B39DF80700FDF7F4
:10ADA00001F803B030BD184B0122C3F8802003B076
:10ADB00030BD02A80023134C00F8013DFCF7CCFF86
:10ADC000237853B1E3689DF8070001330122E36063
:10ADD000A270FCF7E7FF03B030BD0C486360A360CE
:10ADE0002361E36000F08CF807F016FA30B101231C
:10ADF0002370E7E700F0A6F8A570CEE700F08EF824
:10AE0000F5E700BFE42B002000E100E005AD020003
:10AE100030B585B00478094A094B45688DF8004083
:10AE2000047AC068039053F8213001958DF80840EA
:10AE300052F821106846984705B030BDF82B002025
:10AE4000002C002030B585B0047845688DF80040AE
:10AE5000D0E90240064A074B039053F82130019590
:10AE60008DF8084052F821106846984705B030BD6B
:10AE7000F82B0020002C00202DE9F043DFF874802F
:10AE800006784B7F08F806300D46074696460FCDEC
:10AE900089B06C460FC495E80F003D78DFF85890F4
:10AEA000DFF858C018F8055049F826E084E80F008C
:10AEB0004CF82600049665B1BEF1000F0B4A6946B6
:10AEC00007F1040008BF002201F086F809B0BDE8D0
:10AED000F083BEF1000F064A694607F10C0008BF77
:10AEE000002200F009FE09B0BDE8F08311AE0200B7
:10AEF00045AE020080320020002C0020F82B0020FC
:10AF0000054A13792BB9012110605371184611714C
:10AF100070478520704700BF082C0020084B1A6836
:10AF2000D20706D40122E02183F80013C3F8802160
:10AF30001A604FF080430122C3F81825704700BF04
:10AF400000E100E0044B01221A604FF08042D2F889
:10AF50001834DB03FBD470470C00004010B5154BD0
:10AF60001A6882B07AB10021134A19601B685079BF
:10AF700000934FF080410123009CC1F8083310B9C1
:10AF80001168537188470D4B1A6882B100221A600C
:10AF90001B6801934FF080420221074B0198C2F8D1
:10AFA00008131B68012002B0BDE81040184702B02A
:10AFB00010BD00BF00010040082C0020040100402B
:10AFC00070B5214C94F86A5082B0002D38D14FF002
:10AFD000FF332946062204F16400C4E90033C4E9C2
:10AFE0000233C4E90433C4E90633C4E90833C4E9CD
:10AFF0000A33C4E90C33C4E90E33C4E91033C4E99D
:10B000001233C4E91433C4E91633236607F0A0FBF6
:10B010000E4B0F4A0F4E1560E02183F806134021B6
:10B02000C3F8801119601368019301994FF0004330
:10B030000122284684F86A20C6F8043302B070BDA5
:10B04000082002B070BD00BF102C002000E100E01D
:10B050007C61004000600040034B93F86A000030C0
:10B0600018BF0120704700BF102C0020F0B5744BB2
:10B070001C1894F93050002D6ADA8E78C6F3400619
:10B080009646002E5ED11D6A013500F0C480092469
:10B090000C2553F8247001375DD004F1010C53F8EE
:10B0A0002C70013700F0C280A71CAF4248D253F881
:10B0B0002720013200F0BC8004F1030CAC453FD2E4
:10B0C00053F82C70013700F0B18004F1040CAC454A
:10B0D00036D253F82C70013700F0A88004F1050C2B
:10B0E000AC452DD253F82C70013700F09F8004F14D
:10B0F000060CAC4524D253F82C70013700F0968032
:10B1000004F1070CAC451BD253F82C70013700F04A
:10B110008D8004F1080CAC4512D253F82C70013725
:10B1200000F0848004F1090CAC4509D253F82C706E
:10B1300001377BD00A34AC4202D2DC6A013409D038
:10B140000420F0BD1D68013574D001240825A0E756
:10B150000820F0BD0B241F1865B243F824E087F8DF
:10B160003050002E5ED08A7854071AD4D60741D4C6
:10B170001F284A7887BF334E00F01F0404464FF063
:10B18000A04604F5E074920046F824202E4EC40830
:10B1900000F0070C375D012202FA0CF23A433255F7
:10B1A0008A780C7812F0020209D1083D2B4410462F
:10B1B00093F8602042EA841483F86040F0BDAB004D
:10B1C00003F1804303F5C0430202D3F8101521F4C4
:10B1D0004F3121F44071C3F810152404D3F8101531
:10B1E00004F4403402F47C5222430A43C3F810258D
:10B1F0000020F0BD1F2887BF124A00F01F0404463C
:10B200004FF0A04202EB8402D2F8004724F002047F
:10B21000C2F80047BAE7082684F83060C3F820E097
:10B22000354634461C4484F858009CE7644692E74F
:10B230003C4690E700251A6084F8305093E700BF41
:10B24000102C002000030050742C002070B43A4DE4
:10B250002E1883B096F93030072B20DD2B4493F85D
:10B2600058309B09032B45D0012B14BF4FF44031BC
:10B270004FF400311F284DD900F01F002F4B03EB76
:10B280008000D0F8002722F44032C0F80027D0F820
:10B2900000370B43C0F8003703B070BC7047DAB218
:10B2A000072AF9D8980000F1804000F5C04003F16A
:10B2B0004002D0F81045920092B244F0010402F12D
:10B2C0008042C0F8104502F5C04200200190019C68
:10B2D00010600029E0D096F9302055F82220002A8D
:10B2E000DAD00122164902FA03F3C1F8043303B09D
:10B2F00070BC70471F2810D9104BD3F8103500F0E0
:10B300001F00C34013F0010F0CBF4FF400314FF486
:10B310004031B3E74FF0A043B1E74FF0A0421346EE
:10B32000D2F81025C24012F0010F14BF4FF4403183
:10B330004FF40031A3E700BF102C002000030050A1
:10B34000006000401F288ABF054B4FF0A04300F06B
:10B350001F00D3F8103523FA00F000F00100704709
:10B36000000300502DE9F047002388B0CDE90233F7
:10B37000CE4A1668012E00F03B821E46CC4B1A685E
:10B38000012A00F02782CB4B1A68012A00F01482B0
:10B39000C94B1A68012A00F00182C84B1A68012AB9
:10B3A00000F0EE81C64B1A68012A00F0DB81C54B24
:10B3B0001A68012A00F0C881C34B1A68012A00F0FC
:10B3C000B581C24B1A68012A0FD100221A601B688E
:10B3D00001934FF0A042019BD2F81025BC4B029282
:10B3E000D3F81035039346F0004616F0FF0F1AD03D
:10B3F000B84F00240125A30003F180432E4203F53A
:10B40000C0434FEA45050BD0D3F8100557F8242068
:10B41000D3F81015C0F30520C1F3014102B19047E4
:10B420000134082CE7D1002E02DB08B0BDE8F0871C
:10B43000A84CA74F4FF0FF33CDE9063394F96030A5
:10B440000DF1100800225D1CC8F8042004924FF092
:10B45000010600F0F4805FFA83FC2CF0C00008AB1A
:10B460004FEAD00903EB090E0CF007031EF8082C75
:10B4700006FA03F312EA030521D022184FEA9C11C1
:10B4800092F9302054F82220002A00F02981032963
:10B4900000F028811F2800F2F98005464FF0A04CEB
:10B4A0000CEB850C1EF8185CDCF800E71D40CEF3B1
:10B4B000014E40F0DF80BEF1030F00F0BF8194F930
:10B4C0006130581C32D0DBB223F0C00008AA4FEA2A
:10B4D000D00E02EB0E0C03F007011CF8082C06FA44
:10B4E00001F912EA090F21D02218990992F93020A6
:10B4F00054F82220002A00F0FB80032900F0FB8092
:10B500001F2800F2E98003464FF0A04E0EEB8303A4
:10B510001CF818ECD3F800C71EEA090FCCF3014C55
:10B5200040F0B880BCF1030F00F0AE8194F96230B6
:10B53000591C30D0DBB223F0C00008AA4FEAD00E6D
:10B5400002EB0E0C03F007011CF8082C06FA01F9B7
:10B5500012EA090F1FD02218990992F9302054F8E5
:10B560002220002A00F0D880032900F0D8801F286C
:10B570007CD803464FF0A04E0EEB83031CF818EC6A
:10B58000D3F800C71EEA090FCCF3014C64D1BCF11B
:10B59000030F00F0658194F963305A1C34D0DBB29C
:10B5A00023F0C00008AA4FEAD00E02EB0E0C03F005
:10B5B00007021CF8081C06FA02F2114224D004EB20
:10B5C0000009990999F9309054F82990B9F1000FC0
:10B5D00000F09880032900F098801F288BBFBE469A
:10B5E0004FF0A04E03F01F0303460EEB83031CF83D
:10B5F00018ECD3F800C71EEA020FCCF3014C20D19F
:10B60000BCF1030F00F00181002D3FF40EAF4FF0AD
:10B61000A0430299D3F81035D7F81025994203D1E9
:10B62000039991423FF401AFDDE90401CDE9023213
:10B6300094F960305D1CCDE906017FF40CAF002564
:10B640003DE7BCF1020FDFD1032900F03481B9F1ED
:10B65000000F40F0F180D7E7BCF1020F9BD1032926
:10B6600000F02681002A96D0904794E703F01F034C
:10B67000BE4681E7BEF1020FE1D1032900F021812E
:10B680000025002A3FF41BAF904718E70CF01F0578
:10B69000BC4605E7BCF1020F7FF448AF032900F078
:10B6A0000D81002A3FF442AF90473FE70061004020
:10B6B00004610040086100400C61004010610040DE
:10B6C00014610040186100401C6100407C61004032
:10B6D00000030050102C002003F01F03BE4615E7A6
:10B6E0000329ACD118F809501D4308F80950D1E6D8
:10B6F00003297FF41BAF18F80EA04AEA090A08F8DC
:10B700000EA0FDE603297FF47FAF18F80EA04AEAE9
:10B71000020A08F80EA060E703297FF43CAF18F88E
:10B720000EA04AEA090A08F80EA020E7664AD2F8F5
:10B73000042317067FF545AE00221A601B680093AC
:10B74000009B46F080063CE65F4AD2F8042352068E
:10B750007FF532AE00221A601B680093009B46F012
:10B76000400629E6584AD2F8042391067FF51FAE19
:10B7700000221A601B680093009B46F0200616E624
:10B78000514AD2F80423D0067FF50CAE00221A608D
:10B790001B680093009B46F0100603E64A4AD2F865
:10B7A000042314077FF5F9AD00221A601B6800938B
:10B7B000009B46F00806F0E5434AD2F804235507FB
:10B7C0007FF5E6AD00221A601B680093009B46F0EF
:10B7D0000406DDE53C4AD2F8042397077FF5D3AD94
:10B7E00000221A601B680093009B46F00206CAE51F
:10B7F0003549D1F8041311F0010104D01360136826
:10B800000093009BBAE50E46B8E503297FF41FAF0D
:10B810004FF4003CD3F8002722F44032C3F800274D
:10B82000D3F80027013542EA0C02EDB2C3F8002735
:10B83000B9F1000F3FF4EBAEC847E5E603297FF40A
:10B8400020AF4FF40035DCF8003723F44033CCF858
:10B850000037DCF800372B43CCF80037012510E720
:10B8600003297FF4FFAE4FF4003ED3F800C72CF459
:10B87000403CC3F800C7D3F800C701354EEA0C0CB2
:10B88000EDB2C3F800C7EDE603297FF40AAF4FF429
:10B89000003ED3F800C72CF4403CC3F800C7D3F8EF
:10B8A00000C701354EEA0C0CEDB2C3F800C7F8E64C
:10B8B0004FF4403ED9E74FF4403CABE74FF4403EF5
:10B8C000E7E74FF44035BEE700600040014B1B68DE
:10B8D000184700BF7C2C0020104B984201D000205C
:10B8E000704730B583B002A8002300F8013D0D4633
:10B8F000FCF732FA0A4B1C7934B19DF80700FCF7CB
:10B9000051FA112003B030BD01229DF807001D60DF
:10B910001A71FCF747FA2046F4E700BF0020004008
:10B920007C2C0020034B984203D1034B00221A6069
:10B930001A717047002000407C2C002030B56C4A02
:10B94000D2F8043399058BB066D5D2F82431002B98
:10B9500062D00023C2F82431D2F8243103934FF48B
:10B960000171644B0398C2F8081393F8291009B9C0
:10B97000012151605E4902228DF81820D1F88024FF
:10B98000C1F880249869D96809920022CDE907108E
:10B99000C3E90622D3E9001406A8A047544AD2F806
:10B9A0001C31BBB1534B186A5969884269D350485E
:10B9B0000022C0F81C21D0F81C010190019849B167
:10B9C00098688DF8182008915A610790D3E9001201
:10B9D00006A89047464AD2F84431DBB10021454BD6
:10B9E000C2F84411D2F8440193F82910009000984D
:10B9F00009B1012111609A6962B10022586AD968BF
:10BA00009A610122CDE907108DF8182006A8D3E924
:10BA1000001290470BB030BD354AD2F804335B07B3
:10BA2000BCD5D2F80831002BB8D0324B9969002927
:10BA30003CD00021C2F80811D2F8081104910499F1
:10BA4000D868596AD2F8182542545A6A996901325D
:10BA50005A625A6A8A42A1D1DA691968002A2ED03C
:10BA6000D8685D6A1C699A61079000220120DC6039
:10BA7000DA615A628DF8180008955B6806A8984745
:10BA80008CE793F8280000F0FF0400288FD1C2F85B
:10BA90001C41D2F81C11029102999C68186A196A1B
:10BAA000205C01311962C2F81C0593E7C2F8081145
:10BAB000D2F8080105900598D2F81825C9E793F83F
:10BAC000292012B90A4A01205060094A4FF4017036
:10BAD000C2F80803586ADA68089000240120079227
