:02000002F0000C
:1080000000000420F1820F0019830F001B830F0072
:108010001D830F001F830F0021830F00000000004D
:1080200000000000000000000000000015B70F0075
:1080300025830F000000000027830F0029830F0015
:108040002B830F002B830F002B830F002B830F003C
:108050002B830F002B830F002B830F002B830F002C
:108060002B830F002B830F002B830F002B830F001C
:108070002B830F002B830F002B830F002B830F000C
:10808000FDB60F0065B90F002B830F002B830F0087
:108090002B830F002B830F0091B70F002B830F0052
:1080A0002B830F002B830F002B830F002B830F00DC
:1080B0002B830F002B830F00000000000000000046
:1080C0002B830F002B830F002B830F002B830F00BC
:1080D0002B830F002B830F002B830F002B830F00AC
:1080E0002B830F002B830F0005D20F000000000030
:1080F000000000002B830F00000000002B830F0006
:10810000000000000000000000000000000000006F
:10811000000000000000000000000000000000005F
:10812000000000000000000000000000000000004F
:10813000000000000000000000000000000000003F
:10814000000000000000000000000000000000002F
:10815000000000000000000000000000000000001F
:10816000000000000000000000000000000000000F
:1081700000000000000000000000000000000000FF
:1081800000000000000000000000000000000000EF
:1081900000000000000000000000000000000000DF
:1081A00000000000000000000000000000000000CF
:1081B00000000000000000000000000000000000BF
:1081C00000000000000000000000000000000000AF
:1081D000000000000000000000000000000000009F
:1081E000000000000000000000000000000000008F
:1081F000000000000000000000000000000000007F
:108200000348044B834202D0034B03B11847704725
:10821000345800203458002000000000054806496A
:10822000091A891001EBD171491002D0034B03B137
:1082300018477047345800203458002000000000D0
:1082400010B5064C237843B9FFF7DAFF044B13B19E
:108250000448AFF300800123237010BD485800206C
:1082600000000000F4DD0F0008B5044B1BB1044909
:108270000448AFF30080BDE80840CFE700000000ED
:108280004C580020F4DD0F00134B002B08BF114B9E
:108290009D46A3F5803A00218B460F461148124AAD
:1082A000121A05F0E5F80D4B002B00D098470C4B47
:1082B000002B00D098470020002104000D000B483F
:1082C00004F0B2FF04F0E4FF2000290003F066FB95
:1082D00004F0B0FF000008000000042000000000CF
:1082E0000000000048580020C08700205DD20F0029
:1082F0000649074A074B9B1A03DD043BC858D05078
:10830000FBDC03F05FFAFFF7BFFF000060DE0F0049
:10831000B857002048580020FEE7FEE7FEE7FEE7DA
:10832000FEE7FEE7FEE7FEE7FEE7FEE770B5EFF3E8
:10833000108672B60D4A94680123A4B993600C4B61
:108340000C4DD3F8801029401160C3F88050D3F849
:10835000841051604FF0FF32C3F88420047006B9D6
:1083600062B6002070BD0370F9E700BF64580020BA
:1083700000E100E0FC06FFBD38B5074C054620686B
:1083800018B1294601F086FC18B923682B602560D6
:1083900038BD2468F3E700BF7058002010B5064BC5
:1083A000002253E8001F01EA020043E8000494F0B1
:1083B000000FF6D110BD00BF745800202DE9F04722
:1083C0001B4C80461E4604F114001A4BA3618946DB
:1083D000174603F08BF9B0B9174D6561B8F1000F7E
:1083E0001FD0B9F1000F05D16369AB420DD048F23F
:1083F000025008E0A3694A465B68414604F1140054
:1084000098470028F0D0BDE8F087A2693168D368AA
:10841000994209D39368094832463946BDE8F04786
:10842000184748F21050EEE748F21450EBE700BF4F
:108430006458002080DA0F006E52464878580020B9
:10844000F0B5164C164ED4F8903000220227072BB8
:1084500006D90AB1C4F890300420F0BD0122F6E735
:108460001D0105F1804202F5F0323544C2F80008E2
:10847000C2F80418C5F80878D2F800C8604503F1BE
:108480000103EBD1D2F804289142E7D1D5F80828AE
:10849000022AE3D1C4F890300020DEE764580020BF
:1084A00000E001400A4AD2F800347BB109480023B9
:1084B000D2F80815D940C90748BF03F5C07103F1C8
:1084C000010348BF42F82100072BF1D1704700BFDC
:1084D000000001403546526E024B93F8943003B1D0
:1084E000E0E7704764580020024B012283F8952092
:1084F000704700BF6458002000B10047704708B5BE
:1085000003F03AFA38B5354B93F89620002A59D142
:108510004FF08042D2F81814C80306D43049012025
:108520000860D2F81814C903FBD52E4AC3F8982066
:108530002D492E4C0022C3E927222D4AC3F8A4203E
:108540004A7903EB820003EBC202C0F8004192F8C3
:108550000821002A3FD10868C0F8082591F90420B5
:10856000002AD0B22FDA234C00F00F052C44E0256E
:1085700025765209920002F16042012402F561421F
:1085800000F01F0004FA00F0C2F8800110604A7980
:1085900083F80C4103EBC202C3F83041C2F8041166
:1085A00082F808410A6883F896400221C2F8441311
:1085B000C2F80413104AC3F81C210021C3F8181193
:1085C000C3F8342138BD02F1604404F56144E0256C
:1085D00084F80053CDE703F0CFF900BF64580020C2
:1085E000080000400C590020B8570020419A0F00A5
:1085F00058000800FCEC00E0F9840F0043681A44BE
:10860000426011B101399A4201D10120704713F83B
:10861000010B01F8010FF6E75B689A68064B9A4276
:1086200008D1D0E9012305490132013BC1F84021BD
:10863000C1F84431704700BF98DA0F006458002039
:1086400043F204031A68084B9A4201BF43F208033D
:10865000186800F6FF7020F47F600CBF20F00F0058
:108660004FF48050704700BFDBE5B15108B5FFF70C
:10867000E7FF054BD3F86031184400F6FF7020F493
:108680007F6020F00F0008BD64580020F8B5094E47
:10869000094CA41B0746E4080025A54201D100208F
:1086A000F8BD06EBC50338465B6898470028F7D14C
:1086B0000135F2E700DE0F0008DE0F0029DF70470A
:1086C000024B0620D3F80033184700BF645800203F
:1086D00018DF704743690BB1C0681847704713DF54
:1086E000704766DF704762DF7047B5DF7047B1DF04
:1086F0007047B0DF7047AEDF70477FB50023CDF81D
:108700000A30ADF80E300B4BADF80610B3F810334D
:10871000ADF8083001238DF80A300DF10603CDE9DC
:108720000430054B02A91889FFF7E5FF07B05DF893
:1087300004FB00BF64580020B857002010B5044661
:1087400086B01122002101A804F092FE2378082BA4
:108750000ED1394AB2F81833B2F81A13013B9BB262
:10876000A2F81833E9B1E3B90323A2F81813237070
:10877000627823788DF805306021012A8DF8041085
:108780008DF806200FD00B2A53D12B4B002193F8E4
:108790001C238DF8072083F81C13042101A8FFF780
:1087A000ACFF06B010BD062B1DD0082B01D0032B4B
:1087B0003FD1D4E90123110A8DF807208DF8081064
:1087C000110C120E8DF80A201A0A8DF80B308DF854
:1087D0000C201A0C1B0E8DF809108DF80D208DF849
:1087E0000E300B21DAE7E1688DF80710D4E9012398
:1087F000080A8DF80800080C090E8DF80A10110AF5
:108800008DF80B208DF80C10110C120E8DF80E2027
:108810001A0A8DF80F308DF810201A0C1B0E8DF8E7
:108820000D108DF809008DF811208DF812300F21F0
:10883000B4E70321B2E700BF64580020ADDF704702
:10884000AADF7047A8DF704790DF70478FDF70475F
:1088500086DF70477FDF70477DDF70477CDF7047C2
:108860007ADF704776DF704775DF704774DF7047D7
:1088700073DF704772DF704730B518228DB000216A
:108880000DEB020004F0F4FD282308931623ADF845
:1088900006300023CDF80E30CDF81230ADF816308A
:1088A000214B03F21D3206210292022283F81D237E
:1088B00083F81F1383F8212303215922012409255A
:1088C00083F8201383F822230DF10601FE2203F220
:1088D00026308DF818408DF82D40ADF80C5083F8F7
:1088E0001E4383F82323FFF7B7FFD0B9BDF8062056
:1088F00083F82553111983F82413BDF80C301A445A
:108900000A4BADF80C2002A906AA03F10A00FFF7F2
:10891000B1FF30B9987AFFF7A9FF2146987AFFF79F
:10892000A7FF0DB030BD00BF64580020B85700202D
:108930006DDF70476CDF7047062810B5044602D122
:108940000020FFF7A3FE044BD3F83C331BB12046B5
:10895000BDE81040184710BD6458002010B50B68E2
:108960009A684B680024C0E90243C0E90022947869
:108970002344036192F90340234443614B6803613C
:1089800001F10C034361537803F0C003802B04BF53
:108990000431016110BD10B5836804460BB9002095
:1089A00010BD0368012298470028F8D0A368013B56
:1089B000A360F5E72DE9F04F824685B00D464FF0F4
:1089C00000084FF0000900240DF10F015046FFF799
:1089D000E2FFF8B19DF80F1001F07F025FFA82FB11
:1089E0004FF0000CCDE900BC009AA4F1200CC4F1BA
:1089F000200322FA03F302FA0CF71F431346A340A5
:108A000048EA03080B0649EA070904F1070404D4FD
:108A1000C5E9008905B0BDE8F08F462CD4D100200F
:108A2000F8E72DE9F3480F4669461646FFF7C2FFFF
:108A3000A8B1DDE900BC00230BF001025FEA5C0590
:108A40004FEA3B0413433B7919BF6FEA040B6FEA0B
:108A5000050CA346AC46082B04D1C6E900BC02B005
:108A6000BDE8F088042B09D1C6F800B05A46D317E8
:108A7000634506BF5A4501200020F0E7022B04D1D0
:108A80000FFA8BF333801AB2F1E7012B04D14FFABE
:108A90008BF333705AB2EAE70020E0E773B50D4676
:108AA00069461446FFF786FF68B12B79082B0CD175
:108AB000DDE90056C4E90056DDE90023B34206BFF4
:108AC000AA420120002002B070BD042B05D1DDE9CF
:108AD0000001206005460026EEE7022B03D1009836
:108AE000208085B2F7E7012B05D1DDE90001207078
:108AF00000F0FF05EFE70020E5E737B50D466946D2
:108B00001446FFF757FF30B12A79082ADDE9003112
:108B100003D1C4E9003103B030BD042A18464FEA3E
:108B2000E37108D123601A460B468B4206BF82428E
:108B300001200020EFE7022A04D11BB223801AB2E1
:108B4000D317F2E7012A03D15BB223705AB2F7E7D9
:108B50000020E0E72DE9F3410F460DF107018046C3
:108B6000FFF719FF064620B90026304602B0BDE8DF
:108B7000F0819DF80740220613D504F07F040725F5
:108B80000DF107014046FFF706FF0028ECD09DF8E5
:108B9000072002F07F03AB401C43130605F10705D5
:108BA00001D43C60E1E7232DEAD1DDE773B50D4642
:108BB00001A90446FFF7CEFF064618B90026304645
:108BC00002B070BD94E80F0085E80F0001998A4259
:108BD000F4D3A960A3685B1AA360F0E730B504463C
:108BE00085B01546A9B90268114B9A4211D0102DD3
:108BF00006D82A4669462046FFF7F0FF05B030BD8B
:108C0000102269462046FFF7E9FF0028F6D0103D04
:108C1000EDE7A368AB4201D20020EFE723682A46C4
:108C2000204698470028F7D0A3685D1BA560E5E7BC
:108C3000FD850F00F7B50E4601A907461546FFF75B
:108C400089FFA8B1019A0123D3184FF0000404D280
:108C5000717801F0C001802901D1204608E0317906
:108C60009942FAD329463846FFF7B8FF019BEC54E6
:108C700003B0F0BD73B50D4601A906461446FFF7D3
:108C800069FF88B1019AFF2A10D86B7803F0C003FE
:108C9000802B0BD02979531C994207D321463046AB
:108CA00001F8012BFFF79AFF02B070BD0020FBE72F
:108CB00013B5144669460822FFF790FF18B1DDE9A5
:108CC0000023C4E9002302B010BD13B514460422EA
:108CD0000DEB0201FFF782FF08B1019B236002B098
:108CE00010BD13B5044605291FD8DFE801F0030FB6
:108CF000151E1E1C012201A92046FFF76FFF18B1A7
:108D00009DF90430002BF5DB02B010BD08220021D4
:108D10002046FFF763FFF7E701A9FFF71BFF0028D5
:108D2000F2D0019AF3E70422F1E70020ECE710B556
:108D300043681A787AB103F10C0242601A7B62B977
:108D40000168C368C0E901128C782344036191F97A
:108D500003100B444361104620E059781A7901F062
:108D60003004302C1BD15C7B04F03004302C16D145
:108D700099780269521A02610022597811F0300F75
:108D800002BF816801318160997B114402690A4404
:108D9000026193F90F301A444261012010BD01F0C5
:108DA000F004202C03D1597911FB02F2E5E701F020
:108DB000C001802908BF0422DFE769B10B78022BCC
:108DC0000CD1022804D003280CBF112008207047C2
:108DD00003230B70002070470E2070470820704757
:108DE00038B1054B0360054B43600123037200203B
:108DF00070470E20704700BF45940F00BB8D0F00D9
:108E0000084B1844012290F890301F2B86BF03F0C6
:108E10001F0305494FF0A04102FA03F3C1F80835DA
:108E2000704700BF80DA0F000003005008B502F061
:108E3000A3FD013A02440139824200D2704711F881
:108E4000013F02F80139F7E74BDF704761DF7047F8
:108E500069DF704760DF704711DF704710DF7047D0
:108E60000F4B30B50124C3F80445BFF36F8FBFF338
:108E70004F8F01EB8202401A914207D10022C3F8C2
:108E80000425BFF36F8FBFF34F8F30BD441851F8E7
:108E9000045B2560D3F80044002CFBD0ECE700BF56
:108EA00000E001400A4B0222C3F80425BFF36F8F94
:108EB000BFF34F8FC3F80805D3F80024002AFBD076
:108EC0000022C3F80425BFF36F8FBFF34F8F7047A5
:108ED00000E00140084B1844012290F890301F2B0D
:108EE00086BF03F01F0305494FF0A04102FA03F3C8
:108EF000C1F80C35704700BF80DA0F000003005046
:108F000038B5072834D8DFE800F0042C33333304B5
:108F100033044FF0A0430322164C174DC3F83427F7
:108F20000120C3F83827C3F83C27C3F840270022A4
:108F3000135D1F2B86BF03F01F0329464FF0A0418E
:108F4000013200FA03F3042AC1F80835F0D10020F9
:108F5000FFF7C0FF0120FFF7BDFF0220BDE838404A
:108F60004EE70120FFF74CFF0220BDE83840B1E793
:108F700038BD00BF10DB0F0000030050024B002083
:108F8000C3F80005704700BF00A002500C4B984288
:108F90000DD006D820B1013B98420BD048F21650B4
:108FA0007047084B984208D00D339842F6D148F2EA
:108FB0000350704748F20150704748F20250704722
:108FC0000102F0000202F00010B5084B012253E844
:108FD000000F114643E8001494F0000FF7D1BFF3DF
:108FE0005F8FB0FA80F0400910BD00BFA45B002085
:108FF000054B1B68082B01BF044B1868B0FA80F0C2
:10900000400918BF002070473001001034010010E3
:10901000436843B1026891680B44436052689342CD
:1090200004BF0023436070477FB50E4D0E4C0F4EBA
:1090300001A8FFF709FF70B9B4420295F8D0039474
:10904000039B002BF4D00198D3E90021904702A89C
:10905000FFF7DEFFF4E7052801D002F08DFC04B035
:1090600070BD00BF14DB0F0050DE0F0058DE0F0094
:1090700030B5124DADF5017D4FF4FA740DF10201DA
:1090800003A8ADF80240FFF7E1FE80B90C4B0D4A92
:1090900001959342F2D00293029B002BEED003A8DD
:1090A000D3E90021904701A8FFF7B2FFF4E70528B4
:1090B00001D002F061FC0DF5017D30BD20DB0F0019
:1090C00028DE0F0030DE0F00024B93F8443303B16B
:1090D000CEE770476458002013B50A4B00930A4A44
:1090E0000A4B01939342044601D0019B0BB902B095
:1090F00010BD2046D3E9002190476846FFF788FF5E
:10910000F3E700BF2CDB0F0038DE0F0030DE0F006E
:1091100013B50C4B00930C4A0C4B0193934204463D
:109120000AD1002002B010BDD3E9002120469047AB
:1091300030B16846FFF76CFF019B002BF4D1F0E7DC
:109140001120EFE738DB0F0050DE0F0048DE0F0084
:10915000044B93F850030122B0FA80F083F85923AE
:109160004009704764580020034B93F850030030C7
:1091700018BF0120704700BF6458002000207047CE
:10918000002070470846704708467047104B30B5BE
:109190004360104B012003F5527151E8002F42EA61
:1091A000000441E8004595F0000FF6D172B993F83C
:1091B0005C1383F85813C3F8642303F55C71C3F898
:1091C0006823054AC3F86013C3F86C23002030BD40
:1091D00044DB0F0064580020DC011C0070B50568FA
:1091E000AB6886B004460E4673B11422002168466F
:1091F00004F03EF9A36805932379019633B1012B5E
:109200000ED0AB686846984706B070BD01238DF854
:10921000003023690293E368039363690493F0E7E2
:1092200002238DF80030E3681B030293F5E728DF83
:109230007047034B1869003018BF0120704700BF0A
:1092400064580020F0B515461F4687B004460E4608
:10925000144B012253E8001F41EA020043E8000CCE
:109260009CF0000FF6D131B1112016E006EB013071
:10927000FFF718FE01318D42F8D1FFF78FF8A36890
:10928000002463B1022268468DF80020CDE9014632
:10929000CDE9034505979847204607B0F0BD18462D
:1092A000FBE700BF745800202DE9F043174687B054
:1092B000814688461E460124134A52E8005F45EA6B
:1092C000040342E8003191F0000FF6D1CDB9B208A5
:1092D00039464046FFF7C4FDFFF760F8D9F808208B
:1092E0006AB10E9B8DF800406846CDE90158CDE982
:1092F000037605939047284607B0BDE8F0831046F3
:10930000FAE71120F8E700BF7458002008B5FFF70E
:1093100045F8002008BD024B43600020704700BFA5
:1093200050DB0F0050E8022FC2EA224240E802233D
:10933000002BF7D1704713B550E8023F1FFAA3F492
:10934000B0F806C0644502BFBFF32F8F002211E0C2
:10935000B0F80EC06444B0F80CC0644528BFA4EB5C
:109360000C04C3EA044440E8024CBCF1000FE3D112
:109370004FF001028DF803200193019B9DF803003B
:109380000B6002B010BD50E8012FC2EA024240E873
:109390000123002BF7D1704713B550E8013F9CB271
:1093A000B0F80EC06444B0F80CC0644528BFA4EB0C
:1093B0000C04B0F808C0644502BFBFF32F8F002231
:1093C00008E0C4EA030440E8014CBCF1000FE4D11A
:1093D0004FF001028DF803200193019B9DF80300DB
:1093E0000B6002B010BD30B53AB11368DB430B4DD2
:1093F0000144884204D1D84330BD4FF0FF33F6E733
:1094000010F8012B5340082213F0010418BF2C461A
:10941000013A84EA5303F7D1EBE700BF2083B8EDAC
:1094200010B5074CFFF70CF90022D4F86011FFF7D4
:10943000DAFFD4F864311B1A5842584110BD00BFFE
:109440006458002070B504460D4601B30B78042B18
:1094500004D8DFE803F01E05031E1E00112070BDB6
:109460000D4ED6F89C3190B1013312D10022182153
:109470000430FFF7B8FF07222060214606F5CE70C2
:10948000FFF71CF90028EAD102232B70E7E70E2032
:10949000E5E70820E3E700BF00F00F0010B5084B38
:1094A0009A685AB150B9EFF3108172B6054A1C6838
:1094B00014605C685460986001B962B6002010BD09
:1094C0006458002000E100E073B51B4C94F85C3355
:1094D00073B3012084F84C05FFF71AFE11284FF0F2
:1094E000000627D00220FFF7F7FD02A800F8016D63
:1094F000FEF71CFFFFF7B0FC05469DF8070084F857
:109500005C63FFF7CBFF55B9A36884F84C554BB1AA
:10951000236823F4800323600320FFF7DDFD284642
:1095200002B070BD054B4FF48002C3F88020F3E712
:109530000825F4E73546F2E76458002000E100E032
:1095400038B51449D1F8502512F0010320D0124B40
:1095500098421DD0114B18894FF6FF74A04213D0CA
:1095600042F00402C1F850251321FFF77BF980B9BE
:109570000B4DC82445F001054FF47A40A847013C43
:10958000FAD1BDE838409FE7987AFFF76FF9F8E71E
:10959000002038BD6458002000DE0F00B8570020BE
:1095A00060DB0F0013B5044602A8002300F8013D5C
:1095B000FEF7BCFE084AD2F85435591CC2F85415BF
:1095C000064AA41AF422B4FBF2F41C709DF80700BA
:1095D000FFF764FF02B010BD64580020F866002059
:1095E000E0E737B5224D95F85C43002C3DD10123CF
:1095F000204685F84C35FFF78BFD112832D02046E8
:10960000FFF76AFD1B4B1868019002A800F8054D92
:10961000FEF78CFE184901A8FFF720FC0446B0FABB
:1096200080F0400985F85C039DF80300FFF736FFE2
:10963000C4B9124A85F84C4592F816335B09012BE0
:1096400007D9042B05D0AB682BB94FF48003136006
:1096500005E002F091F92B6843F480032B600120B0
:10966000FFF73AFD204603B030BD0824FAE700BFFB
:109670006458002066DB0F002D8E0F0000E100E033
:1096800038B5831E012B55D82B4C94F85033002B42
:1096900050D0022B0AD1032834D00022D4F85C35F4
:1096A000C4F854231A793AB1012A25D094F85933D1
:1096B000A3BBBDE8384043E0D3E905128D1A142D51
:1096C00094BF521914329A619142EFD102284FF09F
:1096D00000030CBF19460D21D4F85C0584F8503303
:1096E000FFF77CFDB4F86025B4F862359A42DDD10D
:1096F0001248FFF717FED9E71A6901321A615B6950
:109700009A42E2E7D4F854330133082B02D8C4F864
:109710005433CBE70023C4F85433D7E794F84C35DF
:1097200043B194F85C3313B1BDE83840CCE6BDE8F2
:10973000384056E738BD00BF64580020C45B0020A5
:1097400038B52E4C94F85033ABB904F5AC6104F540
:109750005870FFF7F0FD28B9C4F85C050023C4F881
:109760004C3338BDB4F86225D4F860331344C4F8E0
:109770005C35002BF2D0022384F85033D4F85C35EA
:109780001A79A2B1012A29D018460321FFF726FD34
:10979000002384F85033C4F84C33B4F86025B4F88F
:1097A00062359A42DDD11648BDE83840BAE5D3E9C2
:1097B0000520121A142A28BF1422D3E9031592088F
:1097C000012A014438BF01222844FEF777FF58B12F
:1097D0001128D9D1012384F85033C2E7D3E9030219
:1097E0001044FFF724FDF2E794F85833002BB8D16A
:1097F0000146BDE83840022042E700BF645800201F
:10980000C45B002000F0FD03012B09D1054B0022B1
:1098100083F85923421E5042504183F858038FE782
:10982000704700BF645800200A4930B401F55373F3
:10983000012253E8000F40EA020443E8004595F096
:10984000000FF6D120B991F859330BB930BC77E746
:1098500030BC70476458002073B5164C06460D4660
:1098600004F1980001A9FFF797FD00B3BDF804309B
:10987000D4F89820D1181AD0D654BDF80420BDF8D9
:1098800006304D609A4210D104F19800FFF77BFD3D
:10989000094B93F9043001215A0903F01F0301FA1F
:1098A00003F34032054941F82230002000E0042053
:1098B00002B070BD64580020B857002000E100E0FD
:1098C000F8B504464FF4FA764FF400400027E0FB69
:1098D00001670023154630464FF47A72394603F08B
:1098E00043FF094B98420ED8084B25611B68D3F8FB
:1098F000043503446360A36803B1A06021460020DF
:10990000BDE8F840A8E7F8BD17FCFF00B8570020F5
:1099100038B50A4C0546FEF7F5FD002304F58871BD
:10992000012084F82431FFF797FF35B1294604F56B
:109930008870034ABDE83840C2E738BD645800204B
:10994000FF840F00C31E10B50446042B07D8DFE8C0
:1099500003F00303060E0E000648FFF7D9FF064B7F
:10996000D3F864352BB12046BDE81040184702F00B
:1099700003F810BDC0D4010064580020F8B5194E9A
:10998000194DD6F8003443B3D6F80445640904EB06
:109990004404A40842F20F77BC428CBF0023012389
:1099A00085F89430FEF77EFDBC4203D9D6F80C351D
:1099B000DB070ED5FEF7A6FD00230C4985F83C31E8
:1099C0000120FFF749FF24B1094A08482146FFF763
:1099D00077FF084B4FF480321A60012385F8683511
:1099E000F8BD00BF00000140645800208C590020E1
:1099F000D9840F0000E100E038B5104B93F80C510A
:109A000004469DB1B8B1037D03F0FF0573B1D0E901
:109A100003309847A3685BB1227D02F0FF053AB19D
:109A20006268134463602046FEF7A6FC284638BDF2
:109A300000252575FAE70546F8E700BF64580020C1
:109A40002DE9F04303688D4CD3F8042185B0074617
:109A5000002A40F081803B68D3F840217AB100258C
:109A6000C3F84051D3F840310293029BD4F86C35CF
:109A70002BB1D4F86C05FFF7BFFFC4F86C5503A9F0
:109A80007F48FFF758FC002840F08A80DFF8F88113
:109A9000DFF8F891E368002B00F0DB805A68D4F817
:109AA0006C355B68D4F86C1569B1D4F86C15002975
:109AB0004FD09A424DD2D4F86C351B7D1BB1D4F8EF
:109AC0006C05FEF759FCE6680EB13368E360D8F820
:109AD000003075684FF48032C3F80823C3F8482378
:109AE0000022C3F84021D3F84021039225F07F459E
:109AF000039AD3F84025C3F84055D3F80435D31A58
:109B000023F07F43012B04D149F001034FF404609B
:109B10009847D8F800204FF48033C2F84433D2F885
:109B20000435ED1A290225F07F4340F19F8043F070
:109B30007F4313F57A7F00F39C804FF48033C2F8A3
:109B40000433D4F86C3513B93B6801221A60C4F8A9
:109B50006C6505B0BDE8F0830022C3F80421D3F89A
:109B600004310193019BD4F86C353BB1D4F86C35CA
:109B70005B68D4F86C2523F07F435360E568002DC3
:109B80003FF469AF6B68B3F1807F04D22846FFF7DA
:109B900033FF2D68F3E76B6823F07F436B60F8E7D2
:109BA000BDF80E30D4F89820364DDFF8E480134429
:109BB00005F18C06002B3FF469AF1A78012A34D0E6
:109BC00009D3022A1BD10022E368002B4AD019686E
:109BD000E1601A75F8E75A68117D81B901211175A4
:109BE0005A6838685168D0F80405091A414582BF9F
:109BF000516821F07F4151605868FEF7BDFBBDF808
:109C00000C20BDF80E309A4202D13046FFF78AFB95
:109C100003A93046FFF78FFB00283FF437AFBDF8AC
:109C20000E30D4F898201344C4E75A68D4F86C3541
:109C30009A4204BF0023C4F86C35E3682946002B20
:109C4000DDD09A4202D113680B60D8E719461B6831
:109C5000F5E7D4F86C35002B7FF47BAF3B6801222D
:109C60005A6076E7012384F80C31C8E7022B3FF7EE
:109C700064AF3046FFF7C0FE0CE700BF6458002019
:109C8000FC58002070580020B857002070DB0F00EF
:109C900017FCFF0040684B6898428CBF00200120F1
:109CA00070472DE9F341054602A80026254C00F82F
:109CB000016D0F46FEF73AFB94F8701594F8712584
:109CC000D3B2B4F87225934238BF0133C9B238BF5A
:109CD000DEB2B1422FD094F8716594F87135DBB2E1
:109CE0009A4286BF0133DBB2002384F871359DF8B8
:109CF0000700FFF7D3FB4FF6FF739E4220D0D4F846
:109D000074354FEAC60803EB080243F83670ADB16C
:109D1000D4F87835B4F87C05182206FB00302946C3
:109D200003F00CFBD4F87435434418229A800020C9
:109D300002B0BDE8F0814FF6FF76D8E79580F6E7F0
:109D40000420F5E76458002030B5284B28484FF030
:109D5000FF32C3F88020C3F88021C3F88420C3F801
:109D600084214FF000534FF48052C0F57F211A60D8
:109D7000C1F30B0389B023B9B0F57F2F01D8FEF7EB
:109D80005FFBEFF305824FF480531C6841F204033C
:109D90001968002383F3148883F3108883F31188F0
:109DA00083F31388C2F308023AB984F308884FF0AA
:109DB000FF339E46084709B030BD4FF0FF35203CC9
:109DC000CDE90033CDE902330493CDE905514FF0DD
:109DD0008073202269462046079303F0AFFA84F38C
:109DE0000888AE466FF006031847E4E700E100E09C
:109DF00000800F00F0B503881F2B8BB0044600F0E5
:109E0000EC8029D8112B58D006D8012B00F0F68011
:109E1000102B43D00BB0F0BD142B00F077811A2B20
:109E200035D0132BF6D10023ADF812300223ADF854
:109E3000103001AB0593B94B1C8904AA42F60521E9
:109E40002046FEF7FBFC0346002842D1024685214E
:109E50002046FEF7FFFCB2E0512B00F0D5800ED873
:109E6000232B00F0B280502B3CD0212BD2D10AA959
:109E7000002321F8283D8088FEF7E8FC9FE0552B61
:109E800000F08580562B00F0AF80522BC2D100230A
:109E90001A461946A088FEF72AFC90E09F4B82885C
:109EA0001A819F4AD2F880251C460AB101209047AA
:109EB0009C492089FEF7D8FCACE7984B984C4FF6AC
:109EC000FF721A81D4F85025550704D4FEF7D4FC4C
:109ED00008B101F051FDD4F88035002B9AD0022052
:109EE000984797E78E4FC288B7F808339A4291D1C6
:109EF0000AAE002506F8185D3046FEF717FAD7F8C7
:109F0000542507F284539A4212D9511EC7F85415AA
:109F100012F8012C844BF42502FB053507F295530A
:109F200097F858255B1ADBB29A4238BF87F8583544
:109F30009DF81000FFF7B2FA002D3FF46BAF228AB4
:109F400004F11201284603F0F9F9182200213046E5
:109F500003F08EFA08238DF81030744B0593744B80
:109F60000693744BCDE90735238AADF82430B7F852
:109F70007C35172B03D82846FFF714FB4AE76E49B8
:109F80003046FFF78EFE00283FF444AFF3E7C18868
:109F9000F62918D8CB1E98070DD0CB1F9BB2013BDA
:109FA0005A4202F0030203F0030301F1FF3158BFEC
:109FB0005342C91A89B2594B1889FEF796FB0028FB
:109FC0003FF428AF85E7F721F5E7002202A9808852
:109FD000CDE90222FEF738FCF1E7504B00F1080111
:109FE0001889FEF741FCEAE78379002B7FF412AF72
:109FF0004A4B13211889FEF735FCE0E7474B002157
:10A000001889FEF76EFBDAE78379002B3FF402AF85
:10A01000022B7FF4FFAE42490089B1F81023904231
:10A020000D467FF4F7AEA27B012A7FF4F3AE002247
:10A03000CDE90422ADF808308DF8103001AB0120D5
:10A040000393364B8DF81600208AADF818001B8953
:10A05000608AADF81A0004F114000790ADF80A20E8
:10A06000B1F8141302AA1846FEF7E8FB60B99DF890
:10A070000420D20708D440F2FD1204A91846ADF816
:10A080001420FEF736FBC5E6002204A91846ADF8F9
:10A090001420FEF72EFB014600287FF4BBAE1822E9
:10A0A00004A803F0E5F9237D204A0592022B204AFB
:10A0B0008DF81030069220D0062B0ED0012B0ED139
:10A0C0001E48FEF7E3FAB5F81A33A5F81833637D96
:10A0D0000893D4F81630099301E0637D0893069B3A
:10A0E000002B3FF497AEB5F87C35172B7FF692AE78
:10A0F000114904A8FFF7D5FD8CE6A27D637D43EAF4
:10A100000223A5F81A33A5F81833E8E700231A4606
:10A1100019468088FEF79CFB51E700BFB857002026
:10A120006458002076DB0F00F8660020685B002092
:10A130003D870F00E1950F00F5AC0F0000DE0F002A
:10A1400008B510461A4603F0F9F8002008BD08B516
:10A1500010461A4603F0F2F8002008BD2DE9F04140
:10A160002C4C2D4BD4F898259A429AB04BD1D4F868
:10A170009C355B79202B49D1202828BF2020274BF4
:10A18000C4F8E035024604F28461054602A8FEF7F1
:10A1900050FE202204F2A4610AA8FEF74AFE202203
:10A1A00004F2C46112A8FEF744FEFEF70DFF38B3B7
:10A1B000DFF874801A4E4FF480670123C8F8003529
:10A1C0000AAA776002AB009504F5B46104F5BC609F
:10A1D00001F0BEFE0023C8F80035C6F88470BFF356
:10A1E0005F8FC4F8403340B10E4948F2425248F202
:10A1F000165388420CBF104618461AB0BDE8F081CD
:10A2000048F20450F9E748F24050F6E748F211509E
:10A21000F3E700BF645800207052464DDD55AABBDD
:10A2200000E100E08408F00000A0025030B5134BBC
:10A230001348D3F87421D3F86C41D3F89051AC2A69
:10A2400002BFD3F87C31ED18E41A85B022462946C6
:10A2500003F042F880B10B4BD3F800340BB1FEF79A
:10A2600021F910220021684603F002F9A40868468B
:10A2700001950294FEF72CFA05B030BD6458002019
:10A2800000800F0000000140F7B51B4C1B4906463B
:10A290004FF4DC7204F5A47003F01EF818B906B18F
:10A2A000B04700200AE0164D14492B6801221F69AF
:10A2B00028460023B847024610B1032003B0F0BD82
:10A2C000582104F5A670FFF78EF84FF4DC72C4F83D
:10A2D000480104F5A47104F2E46003F02FF82B6840
:10A2E0000096DE6805494FF4DC7304F2E462284608
:10A2F000B0470028D5D0E0E76458002000F00F00F8
:10A30000345800202DE9F04F02F6FF7587B02B0B73
:10A3100003932A4B0493144693F868250E1A0746B4
:10A3200088464FEA163B0AB9FFF728FBBBF1080F36
:10A3300028BF4FF0080B4FEA0B33DFF884900593EA
:10A340000CB9224636E0039B1D489B4528BF9A4620
:10A35000D9F8003038BF059E1B6938BFDA461D4664
:10A3600052464FF00003394628BF2646A84702460A
:10A3700000BBD9F800100090CA68F31C154623F002
:10A380000303424639464846A847024690B9039B14
:10A39000A3EB0A030393049BD3F87831A41B37443F
:10A3A000B0441E44049BC3F87861FFF76DFF02467A
:10A3B0000028C5D0104607B0BDE8F08F64580020D3
:10A3C0003458002008B5164A42F20403D2F890111E
:10A3D000C85803F1A34303F5471303F2D753984238
:10A3E0001AD1D2F87831D2F87C21934216D003F5F5
:10A3F00080501944884203D10020BDE8084043E75B
:10A40000D21A02F6FF7222F47F6222F00F02FFF7E7
:10A4100079FF0028F0D008BD0320FCE70020FAE710
:10A420006458002008B50C22002103F021F8024BEB
:10A430000022C3F8782108BD645800202DE9F043BC
:10A440007B4B7C4F1422DB1B89B0B3FBF2F3064637
:10A4500002FB03F50024B846AC422CD1764C1822FE
:10A46000002102A803F004F804238DF80830D4F882
:10A470009881D4F83C3A984540F0D58094F8382932
:10A48000D4F8187A04F6A4034FF0200904F51465F3
:10A49000002A08BF1D460DEB090304F61C2243F8F1
:10A4A0001C9D41463846FDF789FFD0B1172563480A
:10A4B000FFF7B8FF30E058F80430E0190BB9143456
:10A4C000CAE7DB6998470028F9D05B4BB3F87C35C5
:10A4D000172B03D95A493046FFF7E3FB09B0BDE813
:10A4E000F0834A4605F16F0104F61C2002F0F4FEE9
:10A4F0000028DBD195F855309BBB0122C4F86831A8
:10A500006B68C4F87421C4F85031D4F89031C4F8A1
:10A510007031C4F86C81012520220021494802F0E5
:10A52000A7FFF422FF21484802F0A2FF0A2D88BFAE
:10A530000B3D4FF0000388BF84F81C53C4F87831FA
:10A54000C4F8907188BF0B25404C8DF80950D6E9AE
:10A55000011302A89847002CC0D02046FFF794FEB4
:10A56000BCE703F00209DB0757D542F20403F958B0
:10A5700003F1A34303F5471303F2D753994250D194
:10A58000AB6D03F5FF5203F6FF731F32C3F30B03EA
:10A59000D31A42F20802BA589A4242D343F2040351
:10A5A0001B688B4214BF012300231CD14FF440537E
:10A5B0001B78142B81BF43F21403254A1B68B3FB9D
:10A5C000F2F307F5005298BF00231278142A89BFCE
:10A5D00042F214020022BA581D4988BFB2FBF1F2C0
:10A5E0009B1A18BF012393B1B9F1000F19D0194874
:10A5F000FFF718FFAC23C4F87431AB6DC4F87C319D
:10A60000B9F1000F81D06B68C4F854317DE7B9F11E
:10A61000000F14BFAC23A523EDE7AA23C4F87431BF
:10A62000EEE7052543E701238DF8093000248EE786
:10A63000485800203458002064580020D059002089
:10A640003DA40F00E4590020085A0020C1860F00E5
:10A6500040420F00C459002030B54268527802F0E1
:10A660000F01082987B003460FD103691C68002534
:10A670000CB907B030BD214625736846FEF76EF968
:10A680006846FFF7E9FFA468F2E712F0C00120D1A5
:10A6900002F0300010280ED15A6911705A681869FA
:10A6A0005378946803F00F03072B09D10146204625
:10A6B00000F017F8DDE79006F0D55B691970D8E770
:10A6C0001279214614B102F039FED2E702F0D0FE31
:10A6D000CFE78029CDD10069002192060160C8D55D
:10A6E000EBE77FB50023CDE902318378194490F977
:10A6F00003300491194403780591CDE900003BB182
:10A700006846FFF7A9FF6846FEF711FB0028F7D15E
:10A7100007B05DF804FB2DE9F04155686B7813F044
:10A72000C00E88B006468C46144604D0BEF1400FD9
:10A730006CD0002548E05F4903F00F0201EB820175
:10A7400003F03003102BD1F800711DD006D8002B78
:10A75000EFD122692946B847054635E0202B19D0AC
:10A76000302BE6D1636929781970072A0AD163680A
:10A7700020691A79714602F07BFE63682169986846
:10A78000FFF7AFFF22693EE0636901221A70226978
:10A790006168E0E7BCF1020FD4F8148027D1042AE5
:10A7A00025D804A9FEF702FA05460028C1D0069B69
:10A7B0002BB1616898F800304A799A4208D8059B15
:10A7C0007360069B002BB4D1284608B0BDE8F08129
:10A7D0000879226900FB032204A8B84728B198F839
:10A7E0000030013388F80030E1E70546E7E798F8E4
:10A7F000003021692A7902FB03126979994298D9BC
:10A80000013388F8003061683046A4E717693B6877
:10A8100007F1040813B9FEF764FA9DE7022913D182
:10A8200004A9FEF7C3F9002883D03B68616842465B
:10A8300004A89847054600283FF47BAF069B002BF1
:10A84000F3D1059B7360BFE701292BD009D30529FC
:10A850007FF46FAF04220DEB0201FEF7BFF9042570
:10A8600025E0002501AB591901350B2D3FF461AFEF
:10A8700001223046FEF7B2F900283FF45AAF01AB8F
:10A880002B4413F9013C002BECDB0B4B049301AB85
:10A89000CDE90535002307933B686168424604A86B
:10A8A000984759E7082201A9FEF798F908250028DA
:10A8B000EBD13EE780DA0F00FD850F002DE9F04F68
:10A8C0008B788FB00025CDE904521A4491F90330FA
:10A8D0000692CDE90055CDE902111A4404460792CB
:10A8E0004FF00108A36823BBDDE9033402A85D78BB
:10A8F000FEF71DFA0028F7D115F0300F03D1039BA6
:10A900001B7803B1013494B16309002293425AD1F8
:10A910000EAA02EB830304F01F04C4F120044FF0DD
:10A92000FF3253F8383C22FA04F4A34209D1012043
:10A9300008E008A92046FEF70DF930B9A368002BFE
:10A94000D2D000200FB0BDE8F08F089EDDF80C904B
:10A95000002EC9D0F70806F00706039B1A78974225
:10A9600004D15B7803F00F02082A32D102A8FEF767
:10A97000DEF9039B9945F0D1BD420DD8039A537877
:10A9800003F00F03082B47D002A8FEF7D0F9039B72
:10A990009945F3D14FF0FF3531462046FEF7A1F936
:10A9A00000289FD1CDE79B681B789F4252D1494632
:10A9B00008A8FDF7D3FF89F80C8008AA3146204685
:10A9C000FFF7A9FE43E05DF822100131B9D1013251
:10A9D0009CE713F0300F0FD1049B3F2B0CD85A0982
:10A9E0000EA901EB820203F01F0352F8381C08FA8B
:10A9F00003F30B4342F8383CD4F80C90B9F1000F44
:10AA000004D002AB324639462046C84702AA314636
:10AA10002046FFF780FEC3E71578BD42BCD8069BF1
:10AA2000D4F808A0D3F80090A368B9F1000F14D0AF
:10AA30009A457FF457AFD9F80030D3F800B0BBF196
:10AA4000000FB0D033463A4649462046D847002842
:10AA50003FF477AFD9F80890E6E79A459CD041E7F4
:10AA600070B5114C114DD4F88031C4F8483A04F651
:10AA70009C060F4A0F4BC4F8402AC4F84C3A04F520
:10AA8000D272002331462846C4F8442AC4F8403123
:10AA9000C4F84431FFF725FE3246294604F5246008
:10AAA000BDE870400AE700BF64580020A4DB0F0037
:10AAB000FD850F0019860F00F7B5844CD4F884216A
:10AAC000D4F880319A42264640F0F78094F8503A04
:10AAD00053B1FDF7CBFDD4F86C31C4F8180AC4F8B3
:10AAE0003C3A012003B0F0BDFFF7BAFF002800F0A8
:10AAF000E68094F8385925B994F89C38002B00F07A
:10AB0000DE800023C6F8183AC6F83C3A4DB1704DC5
:10AB100096F8D439A5F199042022019225B9132081
:10AB2000E0E72B466B4CF7E7E3B901AB6A4AD6F88E
:10AB30004411D6F84001FDF741FC88B92A78402A33
:10AB40000ED1691C654802F0F9FB0198FFF706FB7E
:10AB5000002840F0B48094F858302BB90F20C1E79A
:10AB60000A20BFE71620BDE794F859000328F5D85E
:10AB700094F87130032B40F0A480237B002BEDD0A0
:10AB80002369342B40F09F8043F20402237D116837
:10AB9000534A914241D10BB3A269FAB104F11805AD
:10ABA000002243F20C07D1B28B4201D8122099E760
:10ABB00055F822C039888C4502F10102F3D123797E
:10ABC000002B37D00128A3682DD8D6F850219A42FF
:10ABD0008CBF002301237BBB102083E7B0B9012B7E
:10ABE000EDD9A269002AEAD143F20C02013BD9B2A5
:10ABF00004F11C03158803EB810304F1180252F8D9
:10AC0000041BA942DBD09A42F9D1CFE710F1FF3300
:10AC100018BF0123002BD2D1C8E713B1A369002BC1
:10AC2000C4D12379F6E7D6F854219A422CBF0023E9
:10AC30000123D0E7012891D1012386F8503A28BB9F
:10AC400094F8683013B3E56E002D87D0C6F83C5AEF
:10AC5000FDF70CFD2349081AA84207D2FDF7F0FCC6
:10AC6000081A854225D82048FFF7DCFB00231F483F
:10AC7000C6F858310124C6F85C41FFF7D3FBC6F88B
:10AC80006C51FDF7F3FCC6F8180A2AE710F001052D
:10AC900003D094F85A5005B1E56D8307D4D594F8E4
:10ACA0006030002BD0D0124B626EC3F57E239A42E7
:10ACB00001D9042016E71544C6E7082012E705204D
:10ACC00010E714200EE711200CE700BF64580020A5
:10ACD0003962002004610020E85E0020085F002047
:10ACE000DBE5B15100500F00C4590020D0590020BD
:10ACF00000800F00F0B5044689B0162200210DF146
:10AD00000A0002F0B5FB23788DF8083001228DF897
:10AD100009200C2B00F2D981DFE813F00D007F0031
:10AD20000F007F007F00D7017F0075007F00730058
:10AD30001D00300079008DF80C20D4E9011302A821
:10AD400098479DF80930012B00F0B281B64B0520E1
:10AD5000D3F80033ABE14FF08053D3F800210392D6
:10AD6000D3F804210492D3F80C2192020692D3F86E
:10AD70001021920205921B690793DEE743F2040358
:10AD8000A9491D68D1F86821A848854214BF01234C
:10AD90000223012A227C08BF01335AB902238DF80D
:10ADA0000C30D1F854310493A14B0593C3F57E23A5
:10ADB0000693C2E7012A12D1854210D14FF44053C5
:10ADC0001B78142B8ABF43F2140300231B680493DF
:10ADD0004FF48053059343F208031B68E8E79A4257
:10ADE0000BD201238DF80C30D1F850310493FDF7CC
:10ADF00027FC0590D1F86031DAE7FF238DF80C309D
:10AE00009BE7237CFAE7238AADF80C3095E7864B65
:10AE10000720D3F8003398478FE7062B854A01D0E7
:10AE2000012B01D12169D172D17A012905D00229E2
:10AE300000F089800023D372D5E0013B072B3FF659
:10AE40007CAF01A252F823F069AE0F003BAD0F00BA
:10AE500037AF0F0003AF0F003BAD0F0031AF0F0056
:10AE60003BAD0F00A3AE0F006F4D0320D5F80033AC
:10AE700098476669002E00F08580B6F5807F00F265
:10AE800090800021202205F5C07085F8501AC5F881
:10AE9000781102F0EDFAC5F8806101238DF80930D0
:10AEA0004BE7614DA68AD5F88401D5F88031321878
:10AEB0009A4224D8276928443246394600F5D27090
:10AEC00002F03CFAD5F8843105F5C47233443146BA
:10AED0003846C5F88431FEF786FA0123C5F88801A3
:10AEE0008DF80930D5F884310393D5F8883104936F
:10AEF000E368002B3FF421AF206998471DE7032347
:10AF0000EEE7FFF7D9FD0A2805D9474B0B3883F840
:10AF10001C030B23C2E701288DF809007FF40DAF55
:10AF20000020FFF7B1F900283FF407AF0A23B5E787
:10AF30004FF4807305933C4BD3F88421D3F88831C8
:10AF400003920493F9E6013B072B3FF6F6AE01A20C
:10AF500052F823F075AF0F003BAD0F006BB00F0040
:10AF60007BB00F003BAD0F00B5B00F003BAD0F0045
:10AF7000EBAF0F002C4B93F8502A0AB908238DE74A
:10AF800062690AB9032389E7C2F30B0131B1D3F82F
:10AF90009C11D3F83C0A11448142F3D1B2F5805F91
:10AFA00001D904237AE7D3F89C11D3F83C0A551849
:10AFB0008542E3D8C3F88C21D3F89421C3F89811C3
:10AFC000C3F87811C3F890211B486269D3F8186A56
:10AFD000036802F6FF721D69120B00233144A84773
:10AFE00000283FF4AAAE052358E70F4D95F8503AD4
:10AFF000002BC3D0D5F89C11D5F89821A38A521AFA
:10B00000D5F88C111A448A42BCD80B48D5F878611F
:10B010000268D5F8181AE7680097D76822693144A2
:10B02000B84758B1E36867E764580020DBE5B151E1
:10B0300000800F00B857002034580020A28AD5F8AD
:10B0400078311344C5F87831A68AD5F898311E4472
:10B05000C5F89861A18A206905F5C872FEF7C3F9A1
:10B06000C5F89001CDE9036067E6194BD3F890214C
:10B07000D3F89831049203935FE6154DD5F89821E3
:10B08000D5F89C31D5F88C11D31A8B427FF476AF6A
:10B09000D5F89031C5F8943100212046C5F88C11BF
:10B0A000C5F89C21FFF7CAF9D5F80033042098476A
:10B0B00009B0F0BD064BD3F89021D3F89831039333
:10B0C0004FF480530492059337E60223E6E600BF6F
:10B0D00064580020F0B585B00E468C686946074676
:10B0E0001546FDF763FD88B1B06878B1737803F059
:10B0F0003003202B03D129462046FFF7F2FA2A46D7
:10B1000021466846FFF7DAFB019B7B6005B0F0BD86
:10B110002DE9F74F194D83460E4605F5587001A9E4
:10B1200091469A46FEF738F928B3BDF80470D5F871
:10B13000608318EB07041ED01C220021204602F079
:10B1400097F90123237148F807B0BDF80420BDF832
:10B150000630C4F808A0360B9A42E660C4F8149092
:10B1600003D105F55870FEF70EF9FEF75DFB0020E0
:10B1700003B0BDE8F08F0420FAE700BF6458002058
:10B180002DE9F74F184D83468A4605F5587001A9F9
:10B1900091469846FEF700F920B3BDF80460D5F853
:10B1A0006073BC191ED01C220021204602F060F9F9
:10B1B0000023237147F806B00C9BA360BDF8042060
:10B1C000BDF80630C4F814809A42C4E9039A03D14A
:10B1D00005F55870FEF7D7F8FEF726FB002003B000
:10B1E000BDE8F08F0420FAE76458002013B5134C33
:10B1F0001422002104F5527002F03AF904F5587354
:10B2000053E8021FD888B1EB314F4FF0000217BF4F
:10B2100089B240EA004041EA004004E05968B1EBDD
:10B22000314F08BF012243E802010029E8D18DF81F
:10B2300007209DF80730002002B010BD64580020A0
:10B240002DE9F04FC94BD3F8502512F0010F95B0FE
:10B25000984640F08881C3F8800503F28453C8F80B
:10B2600054351123013BDBB2FF2B40F070810023EA
:10B2700014ADCDE90E33109388F8583508930223A6
:10B2800045F81C3D2846FDF723FA0446002840F007
:10B290005A81B748FDF723FA0446002840F053814D
:10B2A000FEF79FF90446002840F04D81B14B08930A
:10B2B00001460C22284602F0DBF801260623089AF4
:10B2C000ADF83830294620208DF834608DF836608E
:10B2D000FDF7BEFD21460C22284602F0C9F8089A67
:10B2E0008DF83640294640208DF837408DF835607E
:10B2F000FDF7AEFD21460C22284602F0B9F8F723EF
:10B30000089AADF83630294623208DF83460FDF7D1
:10B310009FFD21460C22284602F0AAF8089A8DF8D3
:10B32000346029463046FDF793FD21460C2228461D
:10B3300002F09EF84FF4B063089A0D932946A120BD
:10B34000FDF786FD0DF1500A21460C22284602F039
:10B350008FF89DF834305AF8302D64F300032946F5
:10B36000A0208DF83430FDF773FD5046FDF772FDD7
:10B370000446002840F0E780024618217E4888F8FD
:10B380004463FEF730F87D49D1F89C3198420BD1E7
:10B390001C2201F5CE717A4801F0D0FFD8F8503563
:10B3A00043F00203C8F85035112328468DF82030A9
:10B3B000FDF7BEFA0446002840F0C5809DF8353000
:10B3C000284601338DF83530FDF7B4FA04460028DD
:10B3D00040F0B980D8F850359B0740F1BF80D8F8CD
:10B3E0006C0A684982B25046FDF738FA04460028D4
:10B3F00040F0A9806448FDF733FA0446002840F085
:10B40000A280624B4FF6FF7214A91A814FF659635E
:10B41000012021F8483D5E4A8DF80A00FDF712FA36
:10B420000446002840F08F805A4B04AA03F110070D
:10B43000164618685968144603C40833BB422246AE
:10B44000F7D155493046FDF74EF9044600287AD128
:10B4500001461C22284602F00BF89DF83430ADF866
:10B46000044043F004038DF834300223ADF80C306F
:10B4700098F806338DF80E304FF00109C4F3072316
:10B4800069F3030369F307138DF80530E3B243EA68
:10B49000090369F342038DF80630F423CDE90A4429
:10B4A00001AEADF82C3003AF3C4BB8F804030C945C
:10B4B00052462946CDE90876FDF7C2F9A34604466F
:10B4C000002840D101461C22284601F0D1FF9DF8FA
:10B4D0003430ADF8044043F018038DF8343098F858
:10B4E00006338DF80E30C4F3072369F3030369F3C1
:10B4F00007138DF805305FFA8BF343EA090369F30C
:10B500004203DBB243F010038DF806301723CDE978
:10B510000A445246ADF82C302946214BB8F80403B2
:10B520000C94ADF80C90CDE90876FDF789F9044646
:10B5300048B9FDF7A1F9044628B9D8F8503543EACF
:10B540000903C8F85035204615B0BDE8F08FD8F88B
:10B550005425511CC8F85415137083E6114801F0A6
:10B56000EFFF10493EE70024EDE700BF64580020DC
:10B5700000800F00B8570020A0F10F0000F00F006E
:10B58000B8620020BC62002076DB0F00B8570020B4
:10B59000685B0020C8DB0F006A5B00206C5B00204A
:10B5A000745B0020ECDC0F0038B50A4B0025C3F8B3
:10B5B0004053BFF35F8F084C0123C4F8003500F0FF
:10B5C000D3FDC4F8005520B1052848F2035018BF38
:10B5D000032038BD6458002000A002502DE9F84334
:10B5E00013681F2B81460C4615462DD9FDF7ECFC40
:10B5F00068B3DFF86880174E01234FF48067C8F8FE
:10B6000000352146776009F1080000F07DFD002338
:10B61000C8F80035C6F88470BFF35F8F0E4AC2F8D1
:10B620004033FDF7B3FC08B920232B6004F11F035E
:10B630002146994201D9BDE8F8830A781C7801F8BF
:10B64000014B03F80129F4E748F21450F3E748F2FC
:10B650000450F0E700E100E06458002000A0025030
:10B660002DE9F04107460E461446FDF7ADFC88B3C0
:10B670001A4BDFF874800122C3F80025184B4FF4F1
:10B6800080625A600837B4F5805F254628BF4FF4C2
:10B69000805531462A46404601F050FE2A46414632
:10B6A000384600F0D9FC641B2E4408B9002CEAD1BE
:10B6B0000A4A0023C2F80035094A4FF48061C2F8F3
:10B6C0008410BFF35F8F074AC2F84033BDE8F041F2
:10B6D000FDF75CBC48F20450BDE8F08100A00250C8
:10B6E00000E100E0645800202C77002008B5083005
:10B6F00000F098FCBDE80840FDF748BC044B002270
:10B7000082B01A601B680193019B02B0704700BFB2
:10B71000000101401EF0040F0CBFEFF30880EFF3AF
:10B72000098000F001B800BFF8B5044680691649E9
:10B73000164A10F8025C521A0C230E46B2FBF3F2C2
:10B740003DB92069534300229A4205D10123236069
:10B7500013E04FF0FF30F5E7B758AF4201EB020EB0
:10B7600006EB020C0ED1471C08D1DEF80850D4E9D4
:10B770000223D4E90001A8472060F8BDDCF804707A
:10B780008742F2D00C32DFE71CDE0F0028DE0F000C
:10B7900007B5094B0093094A094B0193934201D025
:10B7A000019B13B903B05DF804FBD3E90020904777
:10B7B0006846FDF72DFCF3E764DC0F0048DE0F0060
:10B7C00038DE0F0008B54FF080430022C3F80C218B
:10B7D000C3F81021C3F838254FF0805203F54043D9
:10B7E000D2F80414C3F82015D2F80814C3F82415AD
:10B7F000D2F80C14C3F82815D2F81014C3F82C157D
:10B80000D2F81414C3F83015D2F81814C3F834154C
:10B81000D2F81C14C3F84015D2F82014C3F844150C
:10B82000D2F82414C3F84815D2F82814C3F84C15DC
:10B83000D2F82C14C3F85015D2F83014C3F85415AC
:10B84000D2F83414C3F86015D2F83814C3F864156C
:10B85000D2F83C14C3F86815D2F84014C3F86C153C
:10B86000D2F84424C3F87025FDF7C2FB10B1334B66
:10B87000334A1A60FDF7BCFB18B1324BFB22C3F808
:10B880001825FDF7B5FB48B12F49304B0A681B68F6
:10B8900022F00F0203F00F0313430B60FDF7A8FB28
:10B8A00018B12B4B4FF400721A604FF08043D3F85D
:10B8B0000024D20744BF6FF00102C3F80024254AD8
:10B8C000D2F8883043F47003C2F88830BFF34F8F4A
:10B8D000BFF36F8F4FF01023D3F80022002A03DB51
:10B8E000D3F80432002B24DA1B4B0122C3F80425C1
:10B8F000D3F80024002AFBD04FF010221221C2F806
:10B900000012D3F80024002AFBD04FF0102312229B
:10B91000C3F80422104B1A46D3F800140029FBD0B8
:10B920000021C3F80415D2F80034002BFBD000F03E
:10B9300023F80A4B0A4ADA6008BD00BF8C56004063
:10B940004881030000F00040E40E0040580200105F
:10B950004096024000ED00E000E00140B8570020B2
:10B960000090D003024BD3F80021D3F80401104714
:10B970006458002041DF7047BFF34F8F0549064BE5
:10B98000CA6802F4E0621343CB60BFF34F8F00BF7D
:10B99000FDE700BF00ED00E00400FA0580B54FF4BC
:10B9A00080510020FCF74CFD08B1FFF7E5FFC448CB
:10B9B000C0F57E21C1F30B03002BF6D1B0F57F2F2C
:10B9C000F3D8FCF73DFD01460028EED1BD4CBE4B3F
:10B9D000C4F86435BD4EBE4A4FF0A0433046C3F8AC
:10B9E0006427BC4B3360FDF796FC07460028DCD18A
:10B9F0004FF4DC72B84904F5A47001F09FFCD4F850
:10BA000048516A1C56D03A46582104F5A670FDF7F5
:10BA1000EAFC85424ED1D4F87431A52B00F0208188
:10BA20003BD8012B55D04FF08042D2F8003413F4AC
:10BA3000803300F01C814FF48033C2F800340023BF
:10BA4000D4F86821012A40F021813BB1D4F8643157
:10BA500023B1FDF7E5FC002800F018814FF0A0436A
:10BA6000D3F810359B0140F111814FF08043D3F89A
:10BA70001C3513F0B10F40F00981D4F8A432013322
:10BA800000F06D814FF47F20FDF70CFA57229349A7
:10BA90004FF47F20FDF7E4F966E1AA2B00F0E48083
:10BAA000AC2BC0D1FEF78EFC002840F0DB80FEF707
:10BAB000BDFBD7E04FF4DC720021884801F0D8FCD0
:10BAC00001230020C4F84C31FEF7DEFB0028A2D091
:10BAD0006BE7D4F89011D4F86C51FCF7B1FDD4F8B1
:10BAE000782110441144884240F04181FCF7A8FDC0
:10BAF00000222946FDF777FCD4F87031984201BF47
:10BB00000123C4F86831C4F86401C4F86051002509
:10BB10007348FEF787FC0023724884F89530FEF7DF
:10BB2000B3FB00287FF441AF002D00F0AD80D4F8C6
:10BB30006831012B40F0A880D4F8643123B1FDF7BF
:10BB40006FFC002800F0A08042F2107594F8683570
:10BB50000BB9FDF713FF644BC4F8743503F5847318
:10BB6000C4F87835002384F8713584F870351823CB
:10BB7000A4F87C352023A4F872354FF08043284682
:10BB8000D3F81C25594DDFF88C9112F0B10F1EBF70
:10BB9000D3F81C2502F04E02C3F81C25FDF7B8FEB1
:10BBA000534BC4F83C330020FCF7C6FE514BED1A52
:10BBB000ED0800279846BD426AD14F4B4348336099
:10BBC0000021FDF7E3FA00287FF4EFAED4F88031CE
:10BBD000002B66D0FEF744FF002862D0D4F86C3109
:10BBE000002B5ED00123454F454D84F8503AED1BA4
:10BBF0000122ED0884F8902E0026B54253D102238D
:10BC000084F8903E3F4D4048C4F89C5500232022C4
:10BC100005F10C01C4F89835FDF70BF9202205F168
:10BC20002C013A48FDF705F9394BC4F8983594F8DA
:10BC3000503A002B3ED1374BC4F80033364D002329
:10BC400084F81C33D5F800340BB1FCF72BFC94F8C6
:10BC5000702594F871359A4262D1FFF78BFEF1E7B7
:10BC6000FEF7B0FB012553E7FEF7E0FA4FE7D2F805
:10BC7000201511F0A90F1DBFD2F8201501F05601B3
:10BC8000C2F820150123DBE6FFF776FE234D5DE7C2
:10BC900058F837304846984700287FF486AE013779
:10BCA00089E700239FE757F8363098470028A9D145
:10BCB0000136A2E7FEF700FF0128BCD075E600BF01
:10BCC00000800F0064580020018F0F0034580020BE
:10BCD0000C000300D8DB0F0000F00F00AC5900206F
:10BCE000D0590020E9840F00D462002008DE0F0044
:10BCF00045990F0000DE0F0044DC0F00F8DD0F0057
:10BD000000DE0F00F8DB0F00045E0020245E002040
:10BD10007052464D39890F0000000140C0D4010027
:10BD200094F87035D4F87425B4F87C65D4F87805A7
:10BD3000DBB219B202EBC10703FB060052F8312057
:10BD4000B988904794F87035B4F87225DBB29A42FE
:10BD500086BF0133DBB2002384F8703577E7D4F86F
:10BD6000E43201337FF48EAEFDF7EEFF1DE6AA1A32
:10BD7000FEF7C8FA00287FF4CAAEB7E630B1026811
:10BD8000034B04489A4208BF00207047024870479E
:10BD9000DD55AABB8208F0007108F00038B50D46E9
:10BDA0000446B0B1A0220021043000F045FD95B159
:10BDB0002946082204F1640000F044FD082205F140
:10BDC000200104F1840000F03DFD044B23600020BD
:10BDD00038BD034838BD034838BD00BFDD55AABB98
:10BDE0007108F0008308F0002DE9F74305460E4680
:10BDF00099461146FFF7C2FF0446002840F08480B0
:10BE0000002E00F08580002900F08480B9F1200F19
:10BE100040F0828005F14404082205F10408204620
:10BE200000F010FD05F1240708223146404600F0DD
:10BE300009FD06F120010822384600F003FD02A9A1
:10BE40004FF4807041F8049D00F0A6FA002865D1F7
:10BE5000334A4FF480731360012193600823314A01
:10BE600000F04AFB0121084605232F4A00F044FB5D
:10BE70000823424601211C2000F03EFB08233A46DD
:10BE80000121032000F038FB224608230121022073
:10BE900000F032FB0823254A01211A2000F02CFB78
:10BEA0000523234A01211B2000F026FB0823214AF9
:10BEB0000121142000F020FB08231F4A0121152036
:10BEC00000F01AFB082305F164020121162000F09E
:10BED00013FB082305F184020121172000F00CFB5D
:10BEE0000823164A01210B2000F006FB00F060FB3E
:10BEF0000446019800F0EEFA114B002C18BF1C46C6
:10BF0000A421284600F09AFC204603B0BDE8F08347
:10BF10000C4CF9E70C4CF7E70C4CF5E7084CEFE755
:10BF200090B0025034DD0F00ACDD0F00F4DC0F00E8
:10BF300098DD0F0058DD0F0078DD0F0014DD0F00D5
:10BF40008408F0007608F0008008F0008108F00016
:10BF50002DE9F041069F044615461E46FFF71EFFD9
:10BF600038B93B46324629462046BDE8F041FFF746
:10BF70003BBFBDE8F08100000C4BC2691A608269CA
:10BF800043F8042C426943F8082C026943F80C2C4E
:10BF9000C26843F8102C826843F8142C426843F8B6
:10BFA000182C026843F81C2C704700BF5CB6025086
:10BFB0000C4B1B68C3610C4B1B6883610B4B1B68EC
:10BFC00043610B4B1B6803610A4B1B68C3600A4B40
:10BFD0001B688360094B1B684360094B1B68036047
:10BFE000704700BF5CB6025058B6025054B60250BB
:10BFF00050B602504CB6025048B6025044B60250F9
:10C0000040B6025030B10268034B04489A4208BF60
:10C010000020704702487047DD55AABB0202F000BD
:10C020000002F00038B5044668B1051D28467021AD
:10C0300000F004FC28462022044900F0FBFB044BDE
:10C040002360002038BD034838BD00BFD0DD0F009D
:10C05000DD55AABB0002F000294B2DE9F043044650
:10C060000E4615460FCB85B06F468DE80F002DB9F3
:10C070004FF00009484605B0BDE8F0832046FFF7C1
:10C08000C1FF81460028F5D1231D0193636AA3BB3C
:10C09000236F8BB1C3F14008A84528BFA84604F11F
:10C0A000300031461844424600F0C4FB236F43443D
:10C0B00046442367A5EB0805226F402A06D104F108
:10C0C0003001384600F0CCFB0023236705F03F0821
:10C0D00035F03F0505D031462A46384600F0C0FB12
:10C0E0002E44B8F1000FC3D04246314604F130006F
:10C0F00000F0A0FBC4F87080BCE7DFF80890B9E757
:10C10000C0DD0F000C02F0002DE9FF41144B044686
:10C110000E460FCB8DE80F002046FFF773FF8046D9
:10C12000B0B9CEB1636A251D01953BB901236362A5
:10C13000226F04F13001684600F092FB2B46043E6A
:10C14000243453F8042B12BAA34246F8042FF8D132
:10C15000404604B0BDE8F081DFF80880F8E700BF92
:10C16000C0DD0F000502F000084B1B681B0EF02B12
:10C1700008D1074B1A68074B9A4205D1064B00209D
:10C1800018607047052070470620704728B9025094
:10C1900024BA02500000E0200CBA025030B5002250
:10C1A0000C4C49001346023840F6FC75904202F1EF
:10C1B0000102CABF236025605B181E2A04F1040433
:10C1C000F4D1054A19441360044B054A19609A607A
:10C1D00030BD00BF00B0025078B002507CB00250B9
:10C1E00020F80F0030B51E4B85B01A461968009133
:10C1F0000099CC07FAD500F1A05000F52C40800042
:10C20000016813680193019BD807FAD5154B164CAA
:10C210001868164D1F30202390FBF3F001380028DA
:10C2200010DA00230130400153B1A0F120014FF09A
:10C230000042134204D1013881424FEA5202F8D140
:10C2400005B030BD13680393039BDB07FAD5431891
:10C2500023602B680293029B002BE3D10138DEE7B9
:10C26000B4B00250ACB00250E4B00250DCB00250A6
:10C270007FB51C681CB901F01F041F2C27D1174C77
:10C28000254626680196019EF607FAD500F1A050D2
:10C2900000F52C40800000682C680394039CE407A0
:10C2A000FAD50F4C00EB611020600E4801F01F041E
:10C2B000006802901F2C18BFC94302980FBF10607E
:10C2C00001F01F0100FA01F11160002119601068EE
:10C2D0004300C00F136004B070BD00BFB4B0025083
:10C2E000E4B00250DCB002500C4B18603F3020F03C
:10C2F0003F008901403058609960D96019615961E7
:10C3000099611C330648196082B002680192019A53
:10C31000D207FAD5196002B0704700BF90B0025042
:10C32000B4B0025038B5A0F12003B3F5426F054612
:10C330002CD88F2826D800F1470300F16604DB06CD
:10C340004FEA541400D0013464013F34A40901348D
:10C3500011B1A1421AD30C46E3004FF48050B0FB58
:10C36000F3F0202828BF202002B11060084B0122E2
:10C370001A602146FFF712FF28462146FFF7B4FF57
:10C38000002038BD00F11F046409DDE7014838BD15
:10C390001CB802502221F0000A460021FFF7C2BF5C
:10C3A000F0B5464B89B01D461C680194019CE4071A
:10C3B000FAD5434BDFF810C1DFF810E113449B00BE
:10C3C0000A181B681E2A88BFC0F11E011F330A18F5
:10C3D0005B095A43B2F5806F88BF4FF480614FF01C
:10C3E000000484BFB1FBF3F1091A00F1A05000F57D
:10C3F0002C402746A14233DC2A680492049AD207D3
:10C40000FAD5304A1268296805910599CF07FAD5FF
:10C410002D482E4C0260002216469A4202F101017C
:10C4200040D12A4C134621F0010100268B423CD317
:10C430002B680693069BDE07FAD5254B1B682C68F4
:10C440000794079CE407FAD5036000231F481C46A5
:10C450009A422DD11D4A00208B422CD309B0F0BD49
:10C460002A680292029AD207FAD50219920012683B
:10C470002E680396039EF607FAD5CCF8002000221A
:10C480009A4202F1010206D11E4622F001029642B2
:10C4900004D30134AEE7CEF80070F1E7CEF80070B7
:10C4A0000136F4E726600A46B7E726600133BDE7A8
:10C4B00004600133CCE710600133CDE7B4B0025023
:10C4C00024AC00147CB00250D4B00250D8B002505A
:10C4D00078B0025008B540B1202801464FF007025D
:10C4E00028BF20210020FFF75BFF024B00221A60CB
:10C4F00008BD00BF1CB80250F0B5294D85B02C46D0
:10C500002E680096009EF607FAD500F1A05000F5BF
:10C510002C4080000568206801900198C707FAD573
:10C520002048214F056002EB8306B24229D15A1CF4
:10C530001D4E22F001020027934227D32368029365
:10C54000029BDE07FAD5194B0B449B001B681F3377
:10C550005B099A4213D2216803910399C907FAD55E
:10C56000154400219B1A104A05600846994210D3D1
:10C570005A1C0D4922F00102002093420CD305B051
:10C58000F0BD52F804EBC7F800E0CEE737600133A6
:10C59000D2E710600131E9E708600133EDE700BF41
:10C5A000B4B00250D4B00250D8B0025024AC001441
:10C5B0002DE9F041814B1D6898682033A0B01E46DC
:10C5C0001A680192019AD707FAD57D4B7D4A1A6005
:10C5D00032680292029AD407FAD57B4A1A607B4AE3
:10C5E0001446116803910399C907FAD5784A11686E
:10C5F000C1F3402137680497049FFF07FAD5754FB0
:10C600001F6027680597059FFF07FAD5176800295F
:10C6100000F0CF80B90540F1CC80316806910699D1
:10C62000CF07FAD56C491960216807910799C907A6
:10C63000FAD51168C1F3402137680897089FFF07B2
:10C64000FAD5664F1F6027680997099FFF07FAD53B
:10C650001268002900F0AF80910540F1AC8032688B
:10C660000A920A9AD207FAD5564A1A6032680B9291
:10C670000B9AD707FAD55A4A1A6031680C910C996F
:10C68000CC07FAD55749196031680D910D99C90742
:10C69000FAD55549196031680E910E99CF07FAD530
:10C6A0005249196031680F910F99CC07FAD550495A
:10C6B0001960504B1E46196810911099C907FAD598
:10C6C0003F4C4D4B236033681193119BDB07FAD528
:10C6D0004A4B236033681293129BDF07FAD5484B0D
:10C6E00023603A4B9846196813911399C907FAD5F4
:10C6F000324F386033681493149BDB07FAD52260FD
:10C7000033681593159BD807FAD53E4B23603368E1
:10C710001693169BD907FAD53B4B236033681793C2
:10C72000179BDA07FAD5394B236033681893189BA7
:10C73000DB07FAD5364B236033681993199BD8076A
:10C74000FAD5344B236033681A931A9BD907FAD56C
:10C75000314B236033681B931B9BDA07FAD52F4BB1
:10C76000236000F037FC08BBD8F800301C931C9BFA
:10C77000DB07F9D53D6033681D931D9BD907FAD5BA
:10C78000274B236033681E931E9BDA07FAD5254B8F
:10C790002360D8F800301F931F9BDB07F9D50C4BA3
:10C7A0001B6813F4805F204B08BF184620B0BDE81B
:10C7B000F0811E48FAE71E48F8E700BF90B002502B
:10C7C00080B0025000100251C01F7229B4B0025054
:10C7D00088B00250C0CF0129C01F0E29C03F0029D8
:10C7E00040010249003184A800001649400108A117
:10C7F00080440888B0B00250C044708880077A41F5
:10C80000C0077E4100006A498006164940006E4913
:10C8100000020021008220214082202180822421E8
:10C8200040A161A100C861510308F1000108F100B5
:10C830000208F10000F082BD00F01ABE0A46002195
:10C8400000F016BE01EB820204388A4201D10020BA
:10C85000704752F8043D1BBA40F8043FF5E700006A
:10C860002DE9F74F314B44688046924699461A6845
:10C87000002AFCD12E4B9B461A68002AFCD14FF0AF
:10C88000FF30019100F098FC802000F09BFC294DC6
:10C89000294A2A4F2A4E012307202B60A2F59E72B7
:10C8A000C2F83C011360636A3B60A36A3360D8F846
:10C8B000003042F8043CD8F80830204698470199E7
:10C8C000D9F80030002BFBD1BAF1000F20D11D4B5D
:10C8D00004221A60D9F80030002BFBD1DBF800A04D
:10C8E000BAF1000FFAD1D8F80C30204698473B68CF
:10C8F00063623368A362144BC3F800A0C3F844A179
:10C90000D9F80030002BFBD12B6003B0BDE8F08FCD
:10C91000236A012B04BF0C4A13600C4B40201960A2
:10C92000C3F804A000F054FCD4E700BF10B90250D3
:10C9300020BC025018B8025000B90250CCB70250C7
:10C94000D0B70250C8B7025084B6025028BC02507B
:10C9500010B5544B98B019461A680192019AD20743
:10C96000FAD5514B514A1A600A680292029AD407CA
:10C97000FAD54F4A1A600A680392039AD007FAD58B
:10C980004C4818600A680492049AD207FAD54A4AB9
:10C990001A600A680592059AD407FAD5474A1A60C0
:10C9A0000A680692069AD207FAD5454A1A600A68BA
:10C9B0000792079AD407FAD5424A1A600A68089281
:10C9C000089AD207FAD5404A1A600A680992099A69
:10C9D000D407FAD53D4A1A600A680A920A9AD20721
:10C9E000FAD53B4A1A600A680B920B9AD407FAD51B
:10C9F000384A1A600A680C920C9AD207FAD5364A5D
:10CA00001A600A680D920D9AD407FAD5334A1A6053
:10CA10000A680E920E9AD207FAD5314A1A600A684D
:10CA20000F920F9AD407FAD52E4A1A600A6810920C
:10CA3000109AD207FAD52C4A1A601A4B19461C686C
:10CA40001194119CE407FAD5174B186008681290EE
:10CA50001298C407FAD51A600A681392139AD0077D
:10CA6000FAD5124A1A600A681492149AD207FAD5B3
:10CA70001E4A1A600A681592159AD407FAD51C4AFC
:10CA80001A600A681692169AD007FAD5194A1A60DF
:10CA90000A681792179AD207FAD5174A1A6018B07F
:10CAA00010BD00BFB0B0025080B0025000936521AD
:10CAB00000043190409665900083612100C33021CD
:10CAC00000C3649000816190004610210081112113
:10CAD0000041442100C320290C4610C800863121A2
:10CAE00000C3602140C12829409665210013319080
:10CAF00040962529594614C84004324910B5494B7F
:10CB000094B019461A680092009AD207FAD5464B9B
:10CB1000464A1A600A680192019AD407FAD5444A33
:10CB20001A600A680292029AD007FAD54148186042
:10CB30000A680392039AD207FAD53F4A1A600A6834
:10CB40000492049AD407FAD53C4A1A600A680592FE
:10CB5000059AD207FAD53A4A1A600A680692069AE6
:10CB6000D407FAD5374A1A600A680792079AD2079B
:10CB7000FAD5354A1A600A680892089AD407FAD595
:10CB8000324A1A600A680992099AD207FAD5304ADD
:10CB90001A600A680A920A9AD407FAD52D4A1A60CE
:10CBA0000A680B920B9AD207FAD52B4A1A600A68C8
:10CBB0000C920C9AD407FAD5284A1A600A680D928A
:10CBC0000D9AD207FAD5264A1A600A680E920E9A72
:10CBD000D407FAD5234A1A600A680F920F9AD2072F
:10CBE000FAD5214A1A600F4B19461C681094109C04
:10CBF000E407FAD50C4B1860086811901198C40727
:10CC0000FAD51A600A681292129AD007FAD5174A12
:10CC10001A600A681392139AD207FAD5144A1A6056
:10CC200014B010BDB0B0025080B0025080906521A9
:10CC30000004099040966590808061218020082141
:10CC400080206490008161900046102100811121B4
:10CC50000041442180202029024610C80086092175
:10CC60008020602140212829409665214096252971
:10CC7000594614C810B5504B96B01C461A6801921C
:10CC8000019AD207FAD54D4B4D4A1A60226802929A
:10CC9000029AD207FAD54B4A1A604B4A42EA8040C0
:10CCA00022680392039AD207FAD518602268049288
:10CCB000049AD007FAD5454A1A60A2F5800242EAE2
:10CCC000814122680592059AD207FAD51960226837
:10CCD0000692069AD007FAD53D4A1A602268079252
:10CCE000079AD107FAD53B4A1A6022680892089A37
:10CCF000D207FAD5384A1A6022680992099AD007F1
:10CD0000FAD5364A1A6022680A920A9AD107FAD5E9
:10CD1000334A1A6022680B920B9AD207FAD5314A2D
:10CD20001A6022680C920C9AD007FAD52E4A1A6023
:10CD300022680D920D9AD107FAD52C4A1A60226802
:10CD40000E920E9AD207FAD5294A1A6022680F92DB
:10CD50000F9AD007FAD5274A1A60216810911099C6
:10CD6000C907FAD51A60144B1A461968119111991E
:10CD7000C807FAD5114B2049196011681291129910
:10CD8000C907FAD51D491960116813911399CC0789
:10CD9000FAD50B491960116814911499C807FAD58E
:10CDA00017491960116815911599C907FAD5154ADF
:10CDB0001A6016B010BD00BFB0B0025080B0025073
:10CDC0004004419000862929D81001C840144190A0
:10CDD00040142129401465210034409000310C900A
:10CDE000C0400C90C030202940960D9000416090CA
:10CDF000031645C80086112100416021594644C8E8
:10CE00004014459040142D9070B5264888B00546D2
:10CE100004680094009CE607FAD52348234C04607C
:10CE2000234C44EA83432C680194019CE407FAD51F
:10CE30000360930143EA824242F0104444F4C04448
:10CE40002B680293029BDE07FAD504602B680393DC
:10CE5000039BDB07FAD5174B03608B0143EA814143
:10CE600041F0104343F4C0432E680496049EF60735
:10CE7000FAD503602B680593059BDE07FAD504609D
:10CE800041F058412B680693069BDC07FAD50160F8
:10CE900042F058422B680793079BDB07FAD50260E4
:10CEA00008B070BDB0B0025080B00250C02102295D
:10CEB000807100988061189000B5374B8FB019468B
:10CEC0001A680092009AD207FAD5344B344A1A6095
:10CED0000A680192019AD007FAD5324A1A600A68A4
:10CEE0000292029AD207FAD52F4A1A600A68039270
:10CEF000039AD007FAD52D4A1A600A680492049A58
:10CF0000D207FAD52A4A1A600A680592059AD0070C
:10CF1000FAD5284A1A600A680692069AD207FAD504
:10CF2000254A1A600A680792079AD007FAD5234A59
:10CF30001A600A680892089AD207FAD5204A1A603D
:10CF40000A680992099AD007FAD51E4A1A600A6837
:10CF50000A920A9AD207FAD51B4A1A6008680B90FF
:10CF60000B98C007FAD51A600A680C920C9AD00781
:10CF7000FAD5164A1A600A680D920D9AD207FAD5A8
:10CF8000134A1A600E210D230F220020FFF73CFFE9
:10CF90000FB05DF804FB00BFB0B0025080B002508B
:10CFA0008043012940633921807001298020542168
:10CFB00000D13490C0403490C0302029C0530D902F
:10CFC00000413890832308C880E3102100413821B4
:10CFD000CF4308C82DE9F04192B001230393049395
:10CFE000624B1D461A680592059AD207FAD5604C25
:10CFF000604B2360604B19461A680692069AD70761
:10D00000FAD55E4B1A68D60400F1A8802A68079208
:10D01000079AD007FAD55A4A22600A680892089AF5
:10D02000D207FAD51E68C6F30036002E40F098806D
:10D030001220FFF7D7F807461320FFF7D3F88742EF
:10D040008CBF12201320FFF7CDF8471EFFF734FFE7
:10D0500003AB01AA39461220FFF70AF904AB804658
:10D0600002AA39461320FFF703F900EB4800022813
:10D0700032D003283ED0012874D12B680993099B34
:10D08000DB07FAD53F4B23602B680A930A9BD8072E
:10D09000FAD53D4B23602B680F930F9BD907FAD528
:10D0A0003A4B23602B681093109BDA07FAD5384B64
:10D0B00023602B681193119BDB07FAD5354B236056
:10D0C000013F25D51023192218210020FFF79CFECF
:10D0D000304612B0BDE8F0812B680B930B9BD9074B
:10D0E000FAD52D4B23602B680C930C9BDA07FAD5ED
:10D0F0002A4BCFE72B680D930D9BDB07FAD5284B06
:10D1000023602B680E930E9BD807FAD5254BC1E7F9
:10D1100003AB01AA39461220FFF7AAF804AB044674
:10D1200002AA39461320FFF7A3F810EB440402D1FA
:10D13000FFF70EFCC4E7FFF7E1FC022C08D0032C3C
:10D1400009D0012C10D117211620FFF793FDB7E766
:10D1500015211420F9E70F210E20F6E7124EB7E74C
:10D16000124EB5E7124EB3E7124EB1E7B0B002501F
:10D1700080B0025000084A51B4B0025088B002504A
:10D1800000084E5100065A4940065E4900044241DB
:10D190000014424940042E490006524940065649AF
:10D1A00000063A4940063E490608F1000708F1002A
:10D1B0000408F1000508F100014B1860704700BF3A
:10D1C00008BA0250014B1860704700BF04BA025001
:10D1D000094BC2431A60043B82B01B680193074BA2
:10D1E000019A104204D0064A1060186802B07047D5
:10D1F00020BF1A680192F3E704BA02502C8700207E
:10D2000008BA0250054B4FF0FF321A6053F8042C55
:10D21000034B1A601A68034B1A60704704BA025035
:10D220002C87002008BA0250002301461A461846EF
:10D2300000F0F4B908B5074B044613B1002100F023
:10D240003FFA054B1868836A03B19847204600F0FF
:10D2500089FA00BFC1D60F00F0DD0F0038B50A4CC7
:10D260000A4D641BA4100AD004F18043013B05EB76
:10D270008305013C55F804399847002CF9D1BDE8E5
:10D28000384000F0F7BB00BF345800203058002071
:10D2900070B50D4E0D4D761BB61006D0002401342E
:10D2A00055F8043B9847A642F9D1094E094D761B23
:10D2B00000F0DAFBB61006D00024013455F8043B28
:10D2C0009847A642F9D170BD2C5800202C58002058
:10D2D000305800202C580020032A70B414D940EA9A
:10D2E0000105AD0704460B4622D11D682668AE42F3
:10D2F0001946204603F1040304F1040418D1043A4A
:10D30000032A20461946F0D8541E72B102780B78D1
:10D310009A4208BF641806D00CE010F8012F11F8EB
:10D32000013F9A4206D1A142F7D1002070BC70475C
:10D33000541EEBE7D01A70BC704700BF844641EA28
:10D34000000313F003036DD1403A41D351F8043B7D
:10D3500040F8043B51F8043B40F8043B51F8043BCF
:10D3600040F8043B51F8043B40F8043B51F8043BBF
:10D3700040F8043B51F8043B40F8043B51F8043BAF
:10D3800040F8043B51F8043B40F8043B51F8043B9F
:10D3900040F8043B51F8043B40F8043B51F8043B8F
:10D3A00040F8043B51F8043B40F8043B51F8043B7F
:10D3B00040F8043B51F8043B40F8043B51F8043B6F
:10D3C00040F8043B51F8043B40F8043B403ABDD2DE
:10D3D000303211D351F8043B40F8043B51F8043B80
:10D3E00040F8043B51F8043B40F8043B51F8043B3F
:10D3F00040F8043B103AEDD20C3205D351F8043B0F
:10D4000040F8043B043AF9D2043208D0D2071CBFDA
:10D4100011F8013B00F8013B01D30B880380604603
:10D42000704700BF082A13D38B078DD010F0030379
:10D430008AD0C3F10403D21ADB071CBF11F8013BE9
:10D4400000F8013B80D331F8023B20F8023B7BE738
:10D45000043AD9D3013A11F8013B00F8013BF9D263
:10D460000B7803704B7843708B78837060467047FD
:10D47000F0B4860743D0541E002A3ED0CAB20346F9
:10D4800002E014F1FF3438D303F8012B9D07F8D1E3
:10D49000032C2BD9CDB245EA05250F2C45EA0545CD
:10D4A00016D9A4F110073F0903F1200606EB071671
:10D4B00003F1100242E9045542E902551032B2422A
:10D4C000F8D104F00F040137032C03EB07130DD937
:10D4D0001E462246043A032A46F8045BFAD8221F65
:10D4E00022F003020432134404F003042CB1C9B245
:10D4F0001C4403F8011B9C42FBD1F0BC704714464E
:10D500000346C5E700000000000000000000000026
:10D51000000000000000000000000000000000000B
:10D5200000000000000000000000000000000000FB
:10D5300000000000000000000000000000000000EB
:10D5400090F800F06DE9024520F007016FF0000C43
:10D5500010F0070491F820F040F049804FF00004EB
:10D560006FF00700D1E9002391F840F000F10800C6
:10D5700082FA4CF2A4FA8CF283FA4CF3A2FA8CF3FE
:10D580004BBBD1E9022382FA4CF200F10800A4FA65
:10D590008CF283FA4CF3A2FA8CF3E3B9D1E90423B9
:10D5A00082FA4CF200F10800A4FA8CF283FA4CF3F0
:10D5B000A2FA8CF37BB9D1E9062301F1200182FAAA
:10D5C0004CF200F10800A4FA8CF283FA4CF3A2FAB0
:10D5D0008CF3002BC6D0002A04BF04301A4612BABE
:10D5E000B2FA82F2FDE8024500EBD2007047D1E9C1
:10D5F000002304F00305C4F100004FEAC50514F050
:10D60000040F91F840F00CFA05F562EA05021CBF20
:10D6100063EA050362464FF00004A9E72DE9F843E9
:10D62000234C25680DB36C681F2C3DDC9846914651
:10D630000F46064688B1D5F8880028B3D0F80031E7
:10D6400040F824900122A24000EB84011343022EF3
:10D65000C0F80031C1F8808010D0A31C01346C6088
:10D6600045F823700020BDE8F883124E124D256066
:10D67000002ED8D03468C5F88840D4E7D0F80431FB
:10D680001A43C0F80421E8E70C4B6BB14FF48470E7
:10D69000AFF3008040B100236C68C0F80031C0F8DF
:10D6A0000431C5F88800CBE74FF0FF30DBE700BF5F
:10D6B000BC87002000000000308700200000000030
:10D6C0002DE9F04F264E83B0356801908B464FF020
:10D6D00001080027A5B16C68D5F888A0013C0FD4DB
:10D6E000BBF1000F0FD0BAF1000F06D0A3000AEB78
:10D6F0000302D2F880205A4506D014F1FF34EFD24D
:10D7000003B0BDE8F08FA3006A682B44511E9A68ED
:10D71000A1420CBF6C609F60002AEED0D5F8049047
:10D72000BAF1000F08D1904769683268494501D1C4
:10D73000AA42E2D01546CDE7DAF8001108FA04FC57
:10D740001CEA010FEFD0DAF804315AF824101CEA71
:10D75000030F02D101989047E6E708469047E3E7B8
:10D76000BC870020FEE700BF53B94AB9002908BFB3
:10D7700000281CBF4FF0FF314FF0FF3000F072B9AE
:10D78000ADF1080C6DE904CE00F006F8DDF804E018
:10D79000DDE9022304B070472DE9F047089E0446F6
:10D7A0008846002B4BD18A42154667D9B2FA82F2DD
:10D7B0004AB1C2F1200701FA02F320FA07F79540B7
:10D7C00047EA030894404FEA154E230CB8FBFEF7D6
:10D7D0001FFA85FC0EFB178843EA084307FB0CF190
:10D7E000994209D9EB1807F1FF3080F01B8199426B
:10D7F00040F21881023F2B445B1AA4B2B3FBFEF047
:10D800000EFB103344EA034400FB0CFCA44509D989
:10D810002C1900F1FF3380F00781A44540F2048108
:10D8200002382C4440EA0740A4EB0C0400271EB148
:10D83000D4400023C6E900433946BDE8F0878B4257
:10D8400009D9002E00F0EB800027C6E90001384618
:10D850003946BDE8F087B3FA83F7002F47D18B42F2
:10D8600002D3824200F2FA80841A61EB03030120A2
:10D870009846002EE0D0C6E90048DDE702B9FFDE99
:10D88000B2FA82F2002A40F08F80491B4FEA154E0F
:10D890001FFA85F80127B1FBFEFC230C0EFB1C11BF
:10D8A00043EA014308FB0CF1994207D9EB180CF14C
:10D8B000FF3002D2994200F2CD808446591AA3B2B9
:10D8C000B1FBFEF00EFB101443EA044408FB00F821
:10D8D000A04507D92C1900F1FF3302D2A04500F270
:10D8E000B6801846A4EB080440EA0C409FE7C7F155
:10D8F000200CBB4022FA0CFE4EEA030E01FA07F49C
:10D9000020FA0CF521FA0CF34FEA1E482543B3FB2D
:10D91000F8F92C0C08FB19331FFA8EFA44EA03437A
:10D9200009FB0AF49C4202FA07F200FA07F10BD94C
:10D930001EEB030309F1FF3080F087809C4240F228
:10D940008480A9F1020973441B1BADB2B3FBF8F04C
:10D9500008FB103345EA034400FB0AFAA24508D944
:10D960001EEB040400F1FF336BD2A24569D90238E3
:10D97000744440EA0940A0FB0289A4EB0A044C4528
:10D98000C2464B4654D351D0002E69D0B1EB0A05A4
:10D9900064EB030404FA0CFCFD40FC404CEA050572
:10D9A000C6E90054002747E7C2F1200320FA03F735
:10D9B000954001FA02F021FA03F34FEA154E38437D
:10D9C000010CB3FBFEF71FFA85F80EFB173341EA93
:10D9D000034107FB08F38B4204FA02F407D96918E4
:10D9E00007F1FF3C2FD28B422DD9023F2944CB1A9D
:10D9F00081B2B3FBFEF00EFB103341EA034100FBA2
:10DA000008F38B4207D9691800F1FF3C17D28B420B
:10DA100015D902382944C91A40EA07473BE7374677
:10DA2000304609E70746E7E61846FBE64145ABD234
:10DA3000B8EB020A69EB0E0201381346A4E7604610
:10DA4000E9E7184695E76746D1E781467CE7023863
:10DA50002C4447E7ACF1020C2B442FE7384608E78B
:10DA60003746E9E6704700BFF8B500BFF8BC08BC10
:10DA70009E467047F8B500BFF8BC08BC9E4670478C
:10DA8000EDB60F0061B60F00DDB50F0020000000FD
:10DA90000000000000000000011104FC0400000070
:10DAA00000000000021104FC04000000000000005F
:10DAB000032104FC0410000000000000041101FF19
:10DAC0000100000000000000051102FE040000003B
:10DAD00000000000061104FC04000000000000002B
